Archive member included because of file (symbol)

/home/froux/MEGA/LPC1769_Repo/LPC_Open_Free_RTOS/lpc17xx.cmsis.driver.library/Debug/liblpc17xx.cmsis.driver.library.a(lpc17xx_emac.o)
                              ./Source/lwIP/netif/ethernetif.o (EMAC_Init)
/home/froux/MEGA/LPC1769_Repo/LPC_Open_Free_RTOS/lpc17xx.cmsis.driver.library/Debug/liblpc17xx.cmsis.driver.library.a(lpc17xx_gpio.o)
                              ./Source/FatFS/mmc.o (GPIO_SetDir)
/home/froux/MEGA/LPC1769_Repo/LPC_Open_Free_RTOS/lpc17xx.cmsis.driver.library/Debug/liblpc17xx.cmsis.driver.library.a(lpc17xx_i2c.o)
                              ./Source/FreeRTOS-Products/FreeRTOS-Plus-IO/Device/LPC17xx/FreeRTOS_lpc17xx_i2c.o (I2C_Stop)
/home/froux/MEGA/LPC1769_Repo/LPC_Open_Free_RTOS/lpc17xx.cmsis.driver.library/Debug/liblpc17xx.cmsis.driver.library.a(lpc17xx_libcfg_default.o)
                              /home/froux/MEGA/LPC1769_Repo/LPC_Open_Free_RTOS/lpc17xx.cmsis.driver.library/Debug/liblpc17xx.cmsis.driver.library.a(lpc17xx_i2c.o) (check_failed)
/home/froux/MEGA/LPC1769_Repo/LPC_Open_Free_RTOS/lpc17xx.cmsis.driver.library/Debug/liblpc17xx.cmsis.driver.library.a(lpc17xx_pinsel.o)
                              ./Source/lwIP/netif/ethernetif.o (PINSEL_ConfigPin)
/home/froux/MEGA/LPC1769_Repo/LPC_Open_Free_RTOS/lpc17xx.cmsis.driver.library/Debug/liblpc17xx.cmsis.driver.library.a(lpc17xx_ssp.o)
                              ./Source/FreeRTOS-Products/FreeRTOS-Plus-IO/Device/LPC17xx/FreeRTOS_lpc17xx_ssp.o (SSP_Init)
/home/froux/MEGA/LPC1769_Repo/LPC_Open_Free_RTOS/lpc17xx.cmsis.driver.library/Debug/liblpc17xx.cmsis.driver.library.a(lpc17xx_uart.o)
                              ./Source/FreeRTOS-Products/FreeRTOS-Plus-IO/Device/LPC17xx/FreeRTOS_lpc17xx_uart.o (UART_Init)
/home/froux/MEGA/LPC1769_Repo/LPC_Open_Free_RTOS/lpc17xx.cmsis.driver.library/Debug/liblpc17xx.cmsis.driver.library.a(lpc17xx_clkpwr.o)
                              /home/froux/MEGA/LPC1769_Repo/LPC_Open_Free_RTOS/lpc17xx.cmsis.driver.library/Debug/liblpc17xx.cmsis.driver.library.a(lpc17xx_i2c.o) (CLKPWR_SetPCLKDiv)
/home/froux/MEGA/LPC1769_Repo/LPC_Open_Free_RTOS/CMSISv2p00_LPC17xx/Debug/libCMSISv2p00_LPC17xx.a(system_LPC17xx.o)
                              ./Source/cr_startup_lpc176x.o (SystemInit)
/usr/local/lpcxpresso_7.7.2_379/lpcxpresso/tools/bin/../lib/gcc/arm-none-eabi/4.9.3/../../../../arm-none-eabi/lib/armv7-m/libcr_nohost.a(_cr__main.o)
                              ./Source/cr_startup_lpc176x.o (__main)
/usr/local/lpcxpresso_7.7.2_379/lpcxpresso/tools/bin/../lib/gcc/arm-none-eabi/4.9.3/../../../../arm-none-eabi/lib/armv7-m/libcr_c.a(memcpy.o)
                              ./Source/lwIP/netif/etharp.o (memcpy)
/usr/local/lpcxpresso_7.7.2_379/lpcxpresso/tools/bin/../lib/gcc/arm-none-eabi/4.9.3/../../../../arm-none-eabi/lib/armv7-m/libcr_c.a(memset.o)
                              ./Source/lwIP/lwIP_Apps/apps/httpserver_raw/httpd.o (memset)
/usr/local/lpcxpresso_7.7.2_379/lpcxpresso/tools/bin/../lib/gcc/arm-none-eabi/4.9.3/../../../../arm-none-eabi/lib/armv7-m/libcr_c.a(fflush.o)
                              ./Source/lwIP/netif/etharp.o (fflush)
/usr/local/lpcxpresso_7.7.2_379/lpcxpresso/tools/bin/../lib/gcc/arm-none-eabi/4.9.3/../../../../arm-none-eabi/lib/armv7-m/libcr_c.a(initio.o)
                              /usr/local/lpcxpresso_7.7.2_379/lpcxpresso/tools/bin/../lib/gcc/arm-none-eabi/4.9.3/../../../../arm-none-eabi/lib/armv7-m/libcr_nohost.a(_cr__main.o) (_initio)
/usr/local/lpcxpresso_7.7.2_379/lpcxpresso/tools/bin/../lib/gcc/arm-none-eabi/4.9.3/../../../../arm-none-eabi/lib/armv7-m/libcr_c.a(memcmp.o)
                              ./Source/FreeRTOS-Products/FreeRTOS/tasks.o (memcmp)
/usr/local/lpcxpresso_7.7.2_379/lpcxpresso/tools/bin/../lib/gcc/arm-none-eabi/4.9.3/../../../../arm-none-eabi/lib/armv7-m/libcr_c.a(setvbuf.o)
                              /usr/local/lpcxpresso_7.7.2_379/lpcxpresso/tools/bin/../lib/gcc/arm-none-eabi/4.9.3/../../../../arm-none-eabi/lib/armv7-m/libcr_c.a(initio.o) (setvbuf)
/usr/local/lpcxpresso_7.7.2_379/lpcxpresso/tools/bin/../lib/gcc/arm-none-eabi/4.9.3/../../../../arm-none-eabi/lib/armv7-m/libcr_c.a(stdio.o)
                              /usr/local/lpcxpresso_7.7.2_379/lpcxpresso/tools/bin/../lib/gcc/arm-none-eabi/4.9.3/../../../../arm-none-eabi/lib/armv7-m/libcr_c.a(fflush.o) (__Ciob)
/usr/local/lpcxpresso_7.7.2_379/lpcxpresso/tools/bin/../lib/gcc/arm-none-eabi/4.9.3/../../../../arm-none-eabi/lib/armv7-m/libcr_c.a(stdlib.o)
                              ./Source/lwIP/netif/etharp.o (abort)
/usr/local/lpcxpresso_7.7.2_379/lpcxpresso/tools/bin/../lib/gcc/arm-none-eabi/4.9.3/../../../../arm-none-eabi/lib/armv7-m/libcr_c.a(strcat.o)
                              ./Source/lwIP/lwIP_Apps/lwIP_Apps.o (strcat)
/usr/local/lpcxpresso_7.7.2_379/lpcxpresso/tools/bin/../lib/gcc/arm-none-eabi/4.9.3/../../../../arm-none-eabi/lib/armv7-m/libcr_c.a(strchr.o)
                              ./Source/lwIP/lwIP_Apps/apps/httpserver_raw/httpd.o (strchr)
/usr/local/lpcxpresso_7.7.2_379/lpcxpresso/tools/bin/../lib/gcc/arm-none-eabi/4.9.3/../../../../arm-none-eabi/lib/armv7-m/libcr_c.a(strcmp.o)
                              ./Source/lwIP/lwIP_Apps/apps/httpserver_raw/fs.o (strcmp)
/usr/local/lpcxpresso_7.7.2_379/lpcxpresso/tools/bin/../lib/gcc/arm-none-eabi/4.9.3/../../../../arm-none-eabi/lib/armv7-m/libcr_c.a(strcpy.o)
                              ./Source/lwIP/lwIP_Apps/apps/BasicSocketCommandServer/BasicSocketCommandServer.o (strcpy)
/usr/local/lpcxpresso_7.7.2_379/lpcxpresso/tools/bin/../lib/gcc/arm-none-eabi/4.9.3/../../../../arm-none-eabi/lib/armv7-m/libcr_c.a(strlen.o)
                              ./Source/lwIP/lwIP_Apps/apps/httpserver_raw/httpd.o (strlen)
/usr/local/lpcxpresso_7.7.2_379/lpcxpresso/tools/bin/../lib/gcc/arm-none-eabi/4.9.3/../../../../arm-none-eabi/lib/armv7-m/libcr_c.a(strncmp.o)
                              ./Source/lwIP/lwIP_Apps/apps/httpserver_raw/httpd.o (strncmp)
/usr/local/lpcxpresso_7.7.2_379/lpcxpresso/tools/bin/../lib/gcc/arm-none-eabi/4.9.3/../../../../arm-none-eabi/lib/armv7-m/libcr_c.a(strncpy.o)
                              ./Source/FreeRTOS-Products/FreeRTOS-Plus-CLI/FreeRTOS_CLI.o (strncpy)
/usr/local/lpcxpresso_7.7.2_379/lpcxpresso/tools/bin/../lib/gcc/arm-none-eabi/4.9.3/../../../../arm-none-eabi/lib/armv7-m/libcr_c.a(strstr.o)
                              ./Source/lwIP/lwIP_Apps/apps/httpserver_raw/httpd.o (strstr)
/usr/local/lpcxpresso_7.7.2_379/lpcxpresso/tools/bin/../lib/gcc/arm-none-eabi/4.9.3/../../../../arm-none-eabi/lib/armv7-m/libcr_c.a(__fillbuf.o)
                              /usr/local/lpcxpresso_7.7.2_379/lpcxpresso/tools/bin/../lib/gcc/arm-none-eabi/4.9.3/../../../../arm-none-eabi/lib/armv7-m/libcr_c.a(stdio.o) (__filbuf)
/usr/local/lpcxpresso_7.7.2_379/lpcxpresso/tools/bin/../lib/gcc/arm-none-eabi/4.9.3/../../../../arm-none-eabi/lib/armv7-m/libcr_c.a(_deferredlazyseek.o)
                              /usr/local/lpcxpresso_7.7.2_379/lpcxpresso/tools/bin/../lib/gcc/arm-none-eabi/4.9.3/../../../../arm-none-eabi/lib/armv7-m/libcr_c.a(__fillbuf.o) (_deferredlazyseek)
/usr/local/lpcxpresso_7.7.2_379/lpcxpresso/tools/bin/../lib/gcc/arm-none-eabi/4.9.3/../../../../arm-none-eabi/lib/armv7-m/libcr_c.a(_do_fflush.o)
                              /usr/local/lpcxpresso_7.7.2_379/lpcxpresso/tools/bin/../lib/gcc/arm-none-eabi/4.9.3/../../../../arm-none-eabi/lib/armv7-m/libcr_c.a(fflush.o) (_do_fflush)
/usr/local/lpcxpresso_7.7.2_379/lpcxpresso/tools/bin/../lib/gcc/arm-none-eabi/4.9.3/../../../../arm-none-eabi/lib/armv7-m/libcr_c.a(_fdopen.o)
                              /usr/local/lpcxpresso_7.7.2_379/lpcxpresso/tools/bin/../lib/gcc/arm-none-eabi/4.9.3/../../../../arm-none-eabi/lib/armv7-m/libcr_c.a(initio.o) (_fdopen)
/usr/local/lpcxpresso_7.7.2_379/lpcxpresso/tools/bin/../lib/gcc/arm-none-eabi/4.9.3/../../../../arm-none-eabi/lib/armv7-m/libcr_c.a(_fflush.o)
                              /usr/local/lpcxpresso_7.7.2_379/lpcxpresso/tools/bin/../lib/gcc/arm-none-eabi/4.9.3/../../../../arm-none-eabi/lib/armv7-m/libcr_c.a(__fillbuf.o) (_fflush)
/usr/local/lpcxpresso_7.7.2_379/lpcxpresso/tools/bin/../lib/gcc/arm-none-eabi/4.9.3/../../../../arm-none-eabi/lib/armv7-m/libcr_c.a(_writebuf.o)
                              /usr/local/lpcxpresso_7.7.2_379/lpcxpresso/tools/bin/../lib/gcc/arm-none-eabi/4.9.3/../../../../arm-none-eabi/lib/armv7-m/libcr_c.a(_deferredlazyseek.o) (_Cwritebuf)
/usr/local/lpcxpresso_7.7.2_379/lpcxpresso/tools/bin/../lib/gcc/arm-none-eabi/4.9.3/../../../../arm-none-eabi/lib/armv7-m/libcr_c.a(alloc.o)
                              /usr/local/lpcxpresso_7.7.2_379/lpcxpresso/tools/bin/../lib/gcc/arm-none-eabi/4.9.3/../../../../arm-none-eabi/lib/armv7-m/libcr_c.a(initio.o) (_Csys_alloc)
/usr/local/lpcxpresso_7.7.2_379/lpcxpresso/tools/bin/../lib/gcc/arm-none-eabi/4.9.3/../../../../arm-none-eabi/lib/armv7-m/libcr_c.a(fclose.o)
                              /usr/local/lpcxpresso_7.7.2_379/lpcxpresso/tools/bin/../lib/gcc/arm-none-eabi/4.9.3/../../../../arm-none-eabi/lib/armv7-m/libcr_c.a(initio.o) (fclose)
/usr/local/lpcxpresso_7.7.2_379/lpcxpresso/tools/bin/../lib/gcc/arm-none-eabi/4.9.3/../../../../arm-none-eabi/lib/armv7-m/libcr_c.a(fseek.o)
                              /usr/local/lpcxpresso_7.7.2_379/lpcxpresso/tools/bin/../lib/gcc/arm-none-eabi/4.9.3/../../../../arm-none-eabi/lib/armv7-m/libcr_c.a(_deferredlazyseek.o) (fseek)
/usr/local/lpcxpresso_7.7.2_379/lpcxpresso/tools/bin/../lib/gcc/arm-none-eabi/4.9.3/../../../../arm-none-eabi/lib/armv7-m/libcr_c.a(ftell.o)
                              /usr/local/lpcxpresso_7.7.2_379/lpcxpresso/tools/bin/../lib/gcc/arm-none-eabi/4.9.3/../../../../arm-none-eabi/lib/armv7-m/libcr_c.a(fseek.o) (ftell)
/usr/local/lpcxpresso_7.7.2_379/lpcxpresso/tools/bin/../lib/gcc/arm-none-eabi/4.9.3/../../../../arm-none-eabi/lib/armv7-m/libcr_c.a(raise.o)
                              /usr/local/lpcxpresso_7.7.2_379/lpcxpresso/tools/bin/../lib/gcc/arm-none-eabi/4.9.3/../../../../arm-none-eabi/lib/armv7-m/libcr_c.a(stdlib.o) (raise)
/usr/local/lpcxpresso_7.7.2_379/lpcxpresso/tools/bin/../lib/gcc/arm-none-eabi/4.9.3/../../../../arm-none-eabi/lib/armv7-m/libcr_c.a(remove.o)
                              /usr/local/lpcxpresso_7.7.2_379/lpcxpresso/tools/bin/../lib/gcc/arm-none-eabi/4.9.3/../../../../arm-none-eabi/lib/armv7-m/libcr_c.a(fclose.o) (remove)
/usr/local/lpcxpresso_7.7.2_379/lpcxpresso/tools/bin/../lib/gcc/arm-none-eabi/4.9.3/../../../../arm-none-eabi/lib/armv7-m/libcr_c.a(__init_alloc.o)
                              /usr/local/lpcxpresso_7.7.2_379/lpcxpresso/tools/bin/../lib/gcc/arm-none-eabi/4.9.3/../../../../arm-none-eabi/lib/armv7-m/libcr_c.a(alloc.o) (__heaps)
/usr/local/lpcxpresso_7.7.2_379/lpcxpresso/tools/bin/../lib/gcc/arm-none-eabi/4.9.3/../../../../arm-none-eabi/lib/armv7-m/libcr_c.a(_cr_sbrk.o)
                              /usr/local/lpcxpresso_7.7.2_379/lpcxpresso/tools/bin/../lib/gcc/arm-none-eabi/4.9.3/../../../../arm-none-eabi/lib/armv7-m/libcr_c.a(alloc.o) (_sbrk)
/usr/local/lpcxpresso_7.7.2_379/lpcxpresso/tools/bin/../lib/gcc/arm-none-eabi/4.9.3/../../../../arm-none-eabi/lib/armv7-m/libcr_c.a(errno.o)
                              /usr/local/lpcxpresso_7.7.2_379/lpcxpresso/tools/bin/../lib/gcc/arm-none-eabi/4.9.3/../../../../arm-none-eabi/lib/armv7-m/libcr_c.a(ftell.o) (errno)
/usr/local/lpcxpresso_7.7.2_379/lpcxpresso/tools/bin/../lib/gcc/arm-none-eabi/4.9.3/../../../../arm-none-eabi/lib/armv7-m/libcr_c.a(_cr_check_heap.o)
                              /usr/local/lpcxpresso_7.7.2_379/lpcxpresso/tools/bin/../lib/gcc/arm-none-eabi/4.9.3/../../../../arm-none-eabi/lib/armv7-m/libcr_c.a(_cr_sbrk.o) (__check_heap_overflow)
/usr/local/lpcxpresso_7.7.2_379/lpcxpresso/tools/bin/../lib/gcc/arm-none-eabi/4.9.3/armv7-m/libcr_eabihelpers.a(division_64.o)
                              /home/froux/MEGA/LPC1769_Repo/LPC_Open_Free_RTOS/CMSISv2p00_LPC17xx/Debug/libCMSISv2p00_LPC17xx.a(system_LPC17xx.o) (__aeabi_uldivmod)
/usr/local/lpcxpresso_7.7.2_379/lpcxpresso/tools/bin/../lib/gcc/arm-none-eabi/4.9.3/armv7-m/libcr_eabihelpers.a(division_idiv0.o)
                              /usr/local/lpcxpresso_7.7.2_379/lpcxpresso/tools/bin/../lib/gcc/arm-none-eabi/4.9.3/armv7-m/libcr_eabihelpers.a(division_64.o) (__aeabi_idiv0)
/usr/local/lpcxpresso_7.7.2_379/lpcxpresso/tools/bin/../lib/gcc/arm-none-eabi/4.9.3/armv7-m/libcr_eabihelpers.a(memcpy.o)
                              /usr/local/lpcxpresso_7.7.2_379/lpcxpresso/tools/bin/../lib/gcc/arm-none-eabi/4.9.3/../../../../arm-none-eabi/lib/armv7-m/libcr_c.a(memcpy.o) (__aeabi_memcpy)
/usr/local/lpcxpresso_7.7.2_379/lpcxpresso/tools/bin/../lib/gcc/arm-none-eabi/4.9.3/../../../../arm-none-eabi/lib/armv7-m/libcr_nohost.a(__sys_appexit.o)
                              /usr/local/lpcxpresso_7.7.2_379/lpcxpresso/tools/bin/../lib/gcc/arm-none-eabi/4.9.3/../../../../arm-none-eabi/lib/armv7-m/libcr_c.a(stdlib.o) (__sys_appexit)
/usr/local/lpcxpresso_7.7.2_379/lpcxpresso/tools/bin/../lib/gcc/arm-none-eabi/4.9.3/../../../../arm-none-eabi/lib/armv7-m/libcr_nohost.a(__sys_close.o)
                              /usr/local/lpcxpresso_7.7.2_379/lpcxpresso/tools/bin/../lib/gcc/arm-none-eabi/4.9.3/../../../../arm-none-eabi/lib/armv7-m/libcr_c.a(fclose.o) (__sys_close)
/usr/local/lpcxpresso_7.7.2_379/lpcxpresso/tools/bin/../lib/gcc/arm-none-eabi/4.9.3/../../../../arm-none-eabi/lib/armv7-m/libcr_nohost.a(__sys_flen.o)
                              /usr/local/lpcxpresso_7.7.2_379/lpcxpresso/tools/bin/../lib/gcc/arm-none-eabi/4.9.3/../../../../arm-none-eabi/lib/armv7-m/libcr_c.a(_writebuf.o) (__sys_flen)
/usr/local/lpcxpresso_7.7.2_379/lpcxpresso/tools/bin/../lib/gcc/arm-none-eabi/4.9.3/../../../../arm-none-eabi/lib/armv7-m/libcr_nohost.a(__sys_istty.o)
                              /usr/local/lpcxpresso_7.7.2_379/lpcxpresso/tools/bin/../lib/gcc/arm-none-eabi/4.9.3/../../../../arm-none-eabi/lib/armv7-m/libcr_c.a(_deferredlazyseek.o) (__sys_istty)
/usr/local/lpcxpresso_7.7.2_379/lpcxpresso/tools/bin/../lib/gcc/arm-none-eabi/4.9.3/../../../../arm-none-eabi/lib/armv7-m/libcr_nohost.a(__sys_read.o)
                              /usr/local/lpcxpresso_7.7.2_379/lpcxpresso/tools/bin/../lib/gcc/arm-none-eabi/4.9.3/../../../../arm-none-eabi/lib/armv7-m/libcr_c.a(__fillbuf.o) (__sys_read)
/usr/local/lpcxpresso_7.7.2_379/lpcxpresso/tools/bin/../lib/gcc/arm-none-eabi/4.9.3/../../../../arm-none-eabi/lib/armv7-m/libcr_nohost.a(__sys_readc.o)
                              /usr/local/lpcxpresso_7.7.2_379/lpcxpresso/tools/bin/../lib/gcc/arm-none-eabi/4.9.3/../../../../arm-none-eabi/lib/armv7-m/libcr_c.a(__fillbuf.o) (__sys_readc)
/usr/local/lpcxpresso_7.7.2_379/lpcxpresso/tools/bin/../lib/gcc/arm-none-eabi/4.9.3/../../../../arm-none-eabi/lib/armv7-m/libcr_nohost.a(__sys_remove.o)
                              /usr/local/lpcxpresso_7.7.2_379/lpcxpresso/tools/bin/../lib/gcc/arm-none-eabi/4.9.3/../../../../arm-none-eabi/lib/armv7-m/libcr_c.a(remove.o) (__sys_remove)
/usr/local/lpcxpresso_7.7.2_379/lpcxpresso/tools/bin/../lib/gcc/arm-none-eabi/4.9.3/../../../../arm-none-eabi/lib/armv7-m/libcr_nohost.a(__sys_rename.o)
                              /usr/local/lpcxpresso_7.7.2_379/lpcxpresso/tools/bin/../lib/gcc/arm-none-eabi/4.9.3/../../../../arm-none-eabi/lib/armv7-m/libcr_c.a(remove.o) (__sys_rename)
/usr/local/lpcxpresso_7.7.2_379/lpcxpresso/tools/bin/../lib/gcc/arm-none-eabi/4.9.3/../../../../arm-none-eabi/lib/armv7-m/libcr_nohost.a(__sys_seek.o)
                              /usr/local/lpcxpresso_7.7.2_379/lpcxpresso/tools/bin/../lib/gcc/arm-none-eabi/4.9.3/../../../../arm-none-eabi/lib/armv7-m/libcr_c.a(__fillbuf.o) (__sys_seek)
/usr/local/lpcxpresso_7.7.2_379/lpcxpresso/tools/bin/../lib/gcc/arm-none-eabi/4.9.3/../../../../arm-none-eabi/lib/armv7-m/libcr_nohost.a(__sys_tmpnam.o)
                              /usr/local/lpcxpresso_7.7.2_379/lpcxpresso/tools/bin/../lib/gcc/arm-none-eabi/4.9.3/../../../../arm-none-eabi/lib/armv7-m/libcr_c.a(fclose.o) (__sys_tmpnam)
/usr/local/lpcxpresso_7.7.2_379/lpcxpresso/tools/bin/../lib/gcc/arm-none-eabi/4.9.3/../../../../arm-none-eabi/lib/armv7-m/libcr_nohost.a(__sys_write.o)
                              /usr/local/lpcxpresso_7.7.2_379/lpcxpresso/tools/bin/../lib/gcc/arm-none-eabi/4.9.3/../../../../arm-none-eabi/lib/armv7-m/libcr_c.a(_writebuf.o) (__sys_write)

Allocating common symbols
Common symbol       size              file

current_iphdr_src   0x4               ./Source/lwIP/core/ipv4/ip.o
netif_list          0x4               ./Source/lwIP/core/netif.o
tcp_active_pcbs     0x4               ./Source/lwIP/core/tcp.o
_extra              0x4               /usr/local/lpcxpresso_7.7.2_379/lpcxpresso/tools/bin/../lib/gcc/arm-none-eabi/4.9.3/../../../../arm-none-eabi/lib/armv7-m/libcr_c.a(initio.o)
current_netif       0x4               ./Source/lwIP/core/ipv4/ip.o
tcp_ticks           0x4               ./Source/lwIP/core/tcp.o
tcp_listen_pcbs     0x4               ./Source/lwIP/core/tcp.o
current_iphdr_dest  0x4               ./Source/lwIP/core/ipv4/ip.o
xQueueRegistry      0x50              ./Source/FreeRTOS-Products/FreeRTOS/queue.o
tcp_tmp_pcb         0x4               ./Source/lwIP/core/tcp.o
_exitvector         0x84              /usr/local/lpcxpresso_7.7.2_379/lpcxpresso/tools/bin/../lib/gcc/arm-none-eabi/4.9.3/../../../../arm-none-eabi/lib/armv7-m/libcr_c.a(stdlib.o)
tcp_input_pcb       0x4               ./Source/lwIP/core/tcp_in.o
current_header      0x4               ./Source/lwIP/core/ipv4/ip.o
tcp_bound_pcbs      0x4               ./Source/lwIP/core/tcp.o
fs_memory           0xf0              ./Source/lwIP/lwIP_Apps/apps/httpserver_raw/fs.o
_number_of_exit_functions
                    0x4               /usr/local/lpcxpresso_7.7.2_379/lpcxpresso/tools/bin/../lib/gcc/arm-none-eabi/4.9.3/../../../../arm-none-eabi/lib/armv7-m/libcr_c.a(stdlib.o)
tcp_tw_pcbs         0x4               ./Source/lwIP/core/tcp.o
netif_default       0x4               ./Source/lwIP/core/netif.o
__heaps             0x4               /usr/local/lpcxpresso_7.7.2_379/lpcxpresso/tools/bin/../lib/gcc/arm-none-eabi/4.9.3/../../../../arm-none-eabi/lib/armv7-m/libcr_c.a(__init_alloc.o)
__end_of_heap       0x4               /usr/local/lpcxpresso_7.7.2_379/lpcxpresso/tools/bin/../lib/gcc/arm-none-eabi/4.9.3/../../../../arm-none-eabi/lib/armv7-m/libcr_c.a(__init_alloc.o)
ram_heap            0x1414            ./Source/lwIP/core/mem.o
__Ciob              0x140             /usr/local/lpcxpresso_7.7.2_379/lpcxpresso/tools/bin/../lib/gcc/arm-none-eabi/4.9.3/../../../../arm-none-eabi/lib/armv7-m/libcr_c.a(stdio.o)

Discarded input sections

 .group         0x00000000        0x8 ./Source/lwIP/netif/etharp.o
 .group         0x00000000        0x8 ./Source/lwIP/netif/etharp.o
 .group         0x00000000        0x8 ./Source/lwIP/netif/etharp.o
 .group         0x00000000        0x8 ./Source/lwIP/netif/etharp.o
 .group         0x00000000        0x8 ./Source/lwIP/netif/etharp.o
 .group         0x00000000        0x8 ./Source/lwIP/netif/etharp.o
 .group         0x00000000        0x8 ./Source/lwIP/netif/etharp.o
 .group         0x00000000        0x8 ./Source/lwIP/netif/etharp.o
 .group         0x00000000        0x8 ./Source/lwIP/netif/etharp.o
 .group         0x00000000        0x8 ./Source/lwIP/netif/etharp.o
 .group         0x00000000        0x8 ./Source/lwIP/netif/etharp.o
 .group         0x00000000        0x8 ./Source/lwIP/netif/etharp.o
 .group         0x00000000        0x8 ./Source/lwIP/netif/etharp.o
 .group         0x00000000        0x8 ./Source/lwIP/netif/etharp.o
 .group         0x00000000        0x8 ./Source/lwIP/netif/etharp.o
 .group         0x00000000        0x8 ./Source/lwIP/netif/etharp.o
 .group         0x00000000        0x8 ./Source/lwIP/netif/etharp.o
 .group         0x00000000        0x8 ./Source/lwIP/netif/etharp.o
Memory Configuration

Name             Origin             Length             Attributes
MFlash512        0x00000000         0x00080000         xr
RamLoc32         0x10000000         0x00008000         xrw
RamAHB32         0x2007c000         0x00008000         xrw
*default*        0x00000000         0xffffffff

Linker script and memory map

LOAD ./Source/lwIP/netif/etharp.o
LOAD ./Source/lwIP/netif/ethernetif.o
LOAD ./Source/lwIP/netif/sys_arch.o
LOAD ./Source/lwIP/lwIP_Apps/apps/httpserver_raw/fs.o
LOAD ./Source/lwIP/lwIP_Apps/apps/httpserver_raw/httpd.o
LOAD ./Source/lwIP/lwIP_Apps/apps/BasicSocketCommandServer/BasicSocketCommandServer.o
LOAD ./Source/lwIP/lwIP_Apps/lwIP_Apps.o
LOAD ./Source/lwIP/core/ipv4/autoip.o
LOAD ./Source/lwIP/core/ipv4/icmp.o
LOAD ./Source/lwIP/core/ipv4/igmp.o
LOAD ./Source/lwIP/core/ipv4/inet.o
LOAD ./Source/lwIP/core/ipv4/inet_chksum.o
LOAD ./Source/lwIP/core/ipv4/ip.o
LOAD ./Source/lwIP/core/ipv4/ip_addr.o
LOAD ./Source/lwIP/core/ipv4/ip_frag.o
LOAD ./Source/lwIP/core/def.o
LOAD ./Source/lwIP/core/dhcp.o
LOAD ./Source/lwIP/core/dns.o
LOAD ./Source/lwIP/core/init.o
LOAD ./Source/lwIP/core/lwip_timers.o
LOAD ./Source/lwIP/core/mem.o
LOAD ./Source/lwIP/core/memp.o
LOAD ./Source/lwIP/core/netif.o
LOAD ./Source/lwIP/core/pbuf.o
LOAD ./Source/lwIP/core/raw.o
LOAD ./Source/lwIP/core/stats.o
LOAD ./Source/lwIP/core/sys.o
LOAD ./Source/lwIP/core/tcp.o
LOAD ./Source/lwIP/core/tcp_in.o
LOAD ./Source/lwIP/core/tcp_out.o
LOAD ./Source/lwIP/core/udp.o
LOAD ./Source/lwIP/api/api_lib.o
LOAD ./Source/lwIP/api/api_msg.o
LOAD ./Source/lwIP/api/err.o
LOAD ./Source/lwIP/api/netbuf.o
LOAD ./Source/lwIP/api/netdb.o
LOAD ./Source/lwIP/api/netifapi.o
LOAD ./Source/lwIP/api/sockets.o
LOAD ./Source/lwIP/api/tcpip.o
LOAD ./Source/MemMang/heap_2.o
LOAD ./Source/FreeRTOS-Products/FreeRTOS/portable/GCC/ARM_CM3/port.o
LOAD ./Source/FreeRTOS-Products/FreeRTOS-Plus-IO/Device/LPC17xx/FreeRTOS_lpc17xx_DriverInterface.o
LOAD ./Source/FreeRTOS-Products/FreeRTOS-Plus-IO/Device/LPC17xx/FreeRTOS_lpc17xx_i2c.o
LOAD ./Source/FreeRTOS-Products/FreeRTOS-Plus-IO/Device/LPC17xx/FreeRTOS_lpc17xx_ssp.o
LOAD ./Source/FreeRTOS-Products/FreeRTOS-Plus-IO/Device/LPC17xx/FreeRTOS_lpc17xx_uart.o
LOAD ./Source/FreeRTOS-Products/FreeRTOS-Plus-IO/Common/FreeRTOS_DriverInterface.o
LOAD ./Source/FreeRTOS-Products/FreeRTOS-Plus-IO/Common/FreeRTOS_IOUtils.o
LOAD ./Source/FreeRTOS-Products/FreeRTOS-Plus-IO/Common/IOUtils_CharQueueTxAndRx.o
LOAD ./Source/FreeRTOS-Products/FreeRTOS-Plus-IO/Common/IOUtils_CircularBufferRx.o
LOAD ./Source/FreeRTOS-Products/FreeRTOS-Plus-IO/Common/IOUtils_ZeroCopyTx.o
LOAD ./Source/FreeRTOS-Products/FreeRTOS-Plus-CLI/FreeRTOS_CLI.o
LOAD ./Source/FreeRTOS-Products/FreeRTOS/croutine.o
LOAD ./Source/FreeRTOS-Products/FreeRTOS/list.o
LOAD ./Source/FreeRTOS-Products/FreeRTOS/queue.o
LOAD ./Source/FreeRTOS-Products/FreeRTOS/tasks.o
LOAD ./Source/FreeRTOS-Products/FreeRTOS/timers.o
LOAD ./Source/FatFS/ff.o
LOAD ./Source/FatFS/mmc.o
LOAD ./Source/FatFS/syscall.o
LOAD ./Source/Examples/SSP/SPI-interface-to-SD-card.o
LOAD ./Source/Examples/GPIO/GPIO-output-and-software-timers.o
LOAD ./Source/cr_startup_lpc176x.o
LOAD ./Source/main.o
LOAD ./Source/printf-stdarg.o
LOAD /home/froux/MEGA/LPC1769_Repo/LPC_Open_Free_RTOS/lpc17xx.cmsis.driver.library/Debug/liblpc17xx.cmsis.driver.library.a
LOAD /home/froux/MEGA/LPC1769_Repo/LPC_Open_Free_RTOS/CMSISv2p00_LPC17xx/Debug/libCMSISv2p00_LPC17xx.a
START GROUP
LOAD /usr/local/lpcxpresso_7.7.2_379/lpcxpresso/tools/bin/../lib/gcc/arm-none-eabi/4.9.3/../../../../arm-none-eabi/lib/armv7-m/libcr_nohost.a
LOAD /usr/local/lpcxpresso_7.7.2_379/lpcxpresso/tools/bin/../lib/gcc/arm-none-eabi/4.9.3/../../../../arm-none-eabi/lib/armv7-m/libcr_c.a
LOAD /usr/local/lpcxpresso_7.7.2_379/lpcxpresso/tools/bin/../lib/gcc/arm-none-eabi/4.9.3/armv7-m/libcr_eabihelpers.a
END GROUP
                0x00080000                __top_MFlash512 = 0x80000
                0x10008000                __top_RamLoc32 = 0x10008000
                0x20084000                __top_RamAHB32 = 0x20084000

.text           0x00000000    0x11cf8
 FILL mask 0xff
                0x00000000                __vectors_start__ = ABSOLUTE (.)
 *(.isr_vector)
 .isr_vector    0x00000000       0xcc ./Source/cr_startup_lpc176x.o
                0x00000000                g_pfnVectors
                0x000000cc                . = ALIGN (0x4)
                0x000000cc                __section_table_start = .
                0x000000cc                __data_section_table = .
                0x000000cc        0x4 LONG 0x11cf8 LOADADDR (.data)
                0x000000d0        0x4 LONG 0x10000000 ADDR (.data)
                0x000000d4        0x4 LONG 0x3c SIZEOF (.data)
                0x000000d8        0x4 LONG 0x11cf8 LOADADDR (.data_RAM2)
                0x000000dc        0x4 LONG 0x2007c000 ADDR (.data_RAM2)
                0x000000e0        0x4 LONG 0x0 SIZEOF (.data_RAM2)
                0x000000e4                __data_section_table_end = .
                0x000000e4                __bss_section_table = .
                0x000000e4        0x4 LONG 0x10000040 ADDR (.bss)
                0x000000e8        0x4 LONG 0x4a04 SIZEOF (.bss)
                0x000000ec        0x4 LONG 0x2007c000 ADDR (.bss_RAM2)
                0x000000f0        0x4 LONG 0x0 SIZEOF (.bss_RAM2)
                0x000000f4                __bss_section_table_end = .
                0x000000f4                __section_table_end = .
 *(.after_vectors*)
 .after_vectors
                0x000000f4       0x9c ./Source/cr_startup_lpc176x.o
                0x000000f4                NMI_Handler
                0x000000f6                HardFault_Handler
                0x00000112                MemManage_Handler
                0x00000114                BusFault_Handler
                0x00000116                UsageFault_Handler
                0x0000011a                DebugMon_Handler
                0x00000120                TIMER2_IRQHandler
                0x00000120                RIT_IRQHandler
                0x00000120                I2C0_IRQHandler
                0x00000120                USBActivity_IRQHandler
                0x00000120                PWM1_IRQHandler
                0x00000120                I2C1_IRQHandler
                0x00000120                EINT2_IRQHandler
                0x00000120                UART1_IRQHandler
                0x00000120                EINT3_IRQHandler
                0x00000120                CANActivity_IRQHandler
                0x00000120                TIMER3_IRQHandler
                0x00000120                IntDefaultHandler
                0x00000120                PLL0_IRQHandler
                0x00000120                CAN_IRQHandler
                0x00000120                PLL1_IRQHandler
                0x00000120                I2S_IRQHandler
                0x00000120                I2C2_IRQHandler
                0x00000120                RTC_IRQHandler
                0x00000120                TIMER0_IRQHandler
                0x00000120                SPI_IRQHandler
                0x00000120                EINT1_IRQHandler
                0x00000120                TIMER1_IRQHandler
                0x00000120                UART2_IRQHandler
                0x00000120                ADC_IRQHandler
                0x00000120                USB_IRQHandler
                0x00000120                BOD_IRQHandler
                0x00000120                WDT_IRQHandler
                0x00000120                QEI_IRQHandler
                0x00000120                EINT0_IRQHandler
                0x00000120                DMA_IRQHandler
                0x00000120                UART3_IRQHandler
                0x00000120                MCPWM_IRQHandler
                0x00000122                data_init
                0x00000138                bss_init
                0x0000014a                ResetISR
 *(.text*)
 .text.free_etharp_q
                0x00000190       0x7c ./Source/lwIP/netif/etharp.o
 .text.etharp_send_ip
                0x0000020c       0x64 ./Source/lwIP/netif/etharp.o
 .text.find_entry
                0x00000270      0x1d0 ./Source/lwIP/netif/etharp.o
 .text.etharp_tmr
                0x00000440       0x40 ./Source/lwIP/netif/etharp.o
                0x00000440                etharp_tmr
 .text.etharp_request
                0x00000480       0xfc ./Source/lwIP/netif/etharp.o
                0x00000480                etharp_request
 .text.etharp_query
                0x0000057c      0x158 ./Source/lwIP/netif/etharp.o
                0x0000057c                etharp_query
 .text.etharp_output
                0x000006d4       0xcc ./Source/lwIP/netif/etharp.o
                0x000006d4                etharp_output
 .text.ethernet_input
                0x000007a0      0x220 ./Source/lwIP/netif/etharp.o
                0x000007a0                ethernet_input
 .text.prvLowLevelOutput
                0x000009c0       0x54 ./Source/lwIP/netif/ethernetif.o
 .text.ethernetif_init
                0x00000a14      0x154 ./Source/lwIP/netif/ethernetif.o
                0x00000a14                ethernetif_init
 .text.ENET_IRQHandler
                0x00000b68       0xd0 ./Source/lwIP/netif/ethernetif.o
                0x00000b68                ENET_IRQHandler
 .text.sys_mbox_new
                0x00000c38       0x1a ./Source/lwIP/netif/sys_arch.o
                0x00000c38                sys_mbox_new
 .text.sys_mbox_free
                0x00000c52       0x1c ./Source/lwIP/netif/sys_arch.o
                0x00000c52                sys_mbox_free
 .text.sys_mbox_post
                0x00000c6e       0x1c ./Source/lwIP/netif/sys_arch.o
                0x00000c6e                sys_mbox_post
 *fill*         0x00000c8a        0x2 
 .text.sys_mbox_trypost
                0x00000c8c       0x38 ./Source/lwIP/netif/sys_arch.o
                0x00000c8c                sys_mbox_trypost
 .text.sys_arch_mbox_fetch
                0x00000cc4       0x6c ./Source/lwIP/netif/sys_arch.o
                0x00000cc4                sys_arch_mbox_fetch
 .text.sys_arch_mbox_tryfetch
                0x00000d30       0x34 ./Source/lwIP/netif/sys_arch.o
                0x00000d30                sys_arch_mbox_tryfetch
 .text.sys_sem_new
                0x00000d64       0x3a ./Source/lwIP/netif/sys_arch.o
                0x00000d64                sys_sem_new
 .text.sys_arch_sem_wait
                0x00000d9e       0x4a ./Source/lwIP/netif/sys_arch.o
                0x00000d9e                sys_arch_sem_wait
 .text.sys_mutex_new
                0x00000de8       0x16 ./Source/lwIP/netif/sys_arch.o
                0x00000de8                sys_mutex_new
 .text.sys_mutex_lock
                0x00000dfe       0x18 ./Source/lwIP/netif/sys_arch.o
                0x00000dfe                sys_mutex_lock
 .text.sys_mutex_unlock
                0x00000e16        0xc ./Source/lwIP/netif/sys_arch.o
                0x00000e16                sys_mutex_unlock
 *fill*         0x00000e22        0x2 
 .text.sys_sem_signal
                0x00000e24       0x2c ./Source/lwIP/netif/sys_arch.o
                0x00000e24                sys_sem_signal
 .text.sys_sem_free
                0x00000e50        0x6 ./Source/lwIP/netif/sys_arch.o
                0x00000e50                sys_sem_free
 .text.sys_init
                0x00000e56        0x2 ./Source/lwIP/netif/sys_arch.o
                0x00000e56                sys_init
 .text.sys_thread_new
                0x00000e58       0x2e ./Source/lwIP/netif/sys_arch.o
                0x00000e58                sys_thread_new
 *fill*         0x00000e86        0x2 
 .text.sys_arch_protect
                0x00000e88       0x14 ./Source/lwIP/netif/sys_arch.o
                0x00000e88                sys_arch_protect
 .text.sys_arch_unprotect
                0x00000e9c       0x10 ./Source/lwIP/netif/sys_arch.o
                0x00000e9c                sys_arch_unprotect
 .text.fs_open  0x00000eac       0x88 ./Source/lwIP/lwIP_Apps/apps/httpserver_raw/fs.o
                0x00000eac                fs_open
 .text.fs_close
                0x00000f34       0x20 ./Source/lwIP/lwIP_Apps/apps/httpserver_raw/fs.o
                0x00000f34                fs_close
 .text.fs_read  0x00000f54       0x30 ./Source/lwIP/lwIP_Apps/apps/httpserver_raw/fs.o
                0x00000f54                fs_read
 .text.fs_bytes_left
                0x00000f84        0x8 ./Source/lwIP/lwIP_Apps/apps/httpserver_raw/fs.o
                0x00000f84                fs_bytes_left
 .text.http_write
                0x00000f8c       0x64 ./Source/lwIP/lwIP_Apps/apps/httpserver_raw/httpd.o
 .text.http_state_free
                0x00000ff0       0x2a ./Source/lwIP/lwIP_Apps/apps/httpserver_raw/httpd.o
 .text.http_err
                0x0000101a        0x8 ./Source/lwIP/lwIP_Apps/apps/httpserver_raw/httpd.o
 .text.strnstr  0x00001022       0x4c ./Source/lwIP/lwIP_Apps/apps/httpserver_raw/httpd.o
 *fill*         0x0000106e        0x2 
 .text.http_accept
                0x00001070       0x90 ./Source/lwIP/lwIP_Apps/apps/httpserver_raw/httpd.o
 .text.http_close_conn
                0x00001100       0x54 ./Source/lwIP/lwIP_Apps/apps/httpserver_raw/httpd.o
 .text.http_send_data
                0x00001154      0x4cc ./Source/lwIP/lwIP_Apps/apps/httpserver_raw/httpd.o
 .text.http_sent
                0x00001620       0x16 ./Source/lwIP/lwIP_Apps/apps/httpserver_raw/httpd.o
 .text.http_poll
                0x00001636       0x32 ./Source/lwIP/lwIP_Apps/apps/httpserver_raw/httpd.o
 .text.http_get_404_file
                0x00001668       0x34 ./Source/lwIP/lwIP_Apps/apps/httpserver_raw/httpd.o
 .text.http_recv
                0x0000169c      0x22c ./Source/lwIP/lwIP_Apps/apps/httpserver_raw/httpd.o
 .text.httpd_init
                0x000018c8       0xa4 ./Source/lwIP/lwIP_Apps/apps/httpserver_raw/httpd.o
                0x000018c8                httpd_init
 .text.http_set_ssi_handler
                0x0000196c       0x88 ./Source/lwIP/lwIP_Apps/apps/httpserver_raw/httpd.o
                0x0000196c                http_set_ssi_handler
 .text.vBasicSocketsCommandInterpreterTask
                0x000019f4      0x194 ./Source/lwIP/lwIP_Apps/apps/BasicSocketCommandServer/BasicSocketCommandServer.o
                0x000019f4                vBasicSocketsCommandInterpreterTask
 .text.uslwIPAppsSSIHandler
                0x00001b88       0x48 ./Source/lwIP/lwIP_Apps/lwIP_Apps.o
 .text.lwIPAppsInit
                0x00001bd0       0x84 ./Source/lwIP/lwIP_Apps/lwIP_Apps.o
                0x00001bd0                lwIPAppsInit
 .text.icmp_input
                0x00001c54      0x1cc ./Source/lwIP/core/ipv4/icmp.o
                0x00001c54                icmp_input
 .text.icmp_dest_unreach
                0x00001e20       0x98 ./Source/lwIP/core/ipv4/icmp.o
                0x00001e20                icmp_dest_unreach
 .text.lwip_standard_chksum
                0x00001eb8       0x5a ./Source/lwIP/core/ipv4/inet_chksum.o
 .text.inet_chksum_pseudo
                0x00001f12       0x88 ./Source/lwIP/core/ipv4/inet_chksum.o
                0x00001f12                inet_chksum_pseudo
 .text.inet_chksum
                0x00001f9a        0xc ./Source/lwIP/core/ipv4/inet_chksum.o
                0x00001f9a                inet_chksum
 .text.inet_chksum_pbuf
                0x00001fa6       0x48 ./Source/lwIP/core/ipv4/inet_chksum.o
                0x00001fa6                inet_chksum_pbuf
 *fill*         0x00001fee        0x2 
 .text.ip_route
                0x00001ff0       0x3c ./Source/lwIP/core/ipv4/ip.o
                0x00001ff0                ip_route
 .text.ip_input
                0x0000202c      0x14c ./Source/lwIP/core/ipv4/ip.o
                0x0000202c                ip_input
 .text.ip_output_if
                0x00002178      0x11c ./Source/lwIP/core/ipv4/ip.o
                0x00002178                ip_output_if
 .text.ip_output
                0x00002294       0x64 ./Source/lwIP/core/ipv4/ip.o
                0x00002294                ip_output
 .text.ip4_addr_isbroadcast
                0x000022f8       0x3a ./Source/lwIP/core/ipv4/ip_addr.o
                0x000022f8                ip4_addr_isbroadcast
 .text.lwip_htons
                0x00002332        0x6 ./Source/lwIP/core/def.o
                0x00002332                lwip_htons
 .text.lwip_ntohs
                0x00002338        0x6 ./Source/lwIP/core/def.o
                0x00002338                lwip_ntohs
 .text.lwip_htonl
                0x0000233e        0x4 ./Source/lwIP/core/def.o
                0x0000233e                lwip_htonl
 .text.lwip_ntohl
                0x00002342        0x4 ./Source/lwIP/core/def.o
                0x00002342                lwip_ntohl
 .text.lwip_init
                0x00002346       0x1e ./Source/lwIP/core/init.o
                0x00002346                lwip_init
 .text.sys_timeout
                0x00002364       0x80 ./Source/lwIP/core/lwip_timers.o
                0x00002364                sys_timeout
 .text.tcp_timer_needed
                0x000023e4       0x34 ./Source/lwIP/core/lwip_timers.o
                0x000023e4                tcp_timer_needed
 .text.tcpip_tcp_timer
                0x00002418       0x38 ./Source/lwIP/core/lwip_timers.o
 .text.sys_timeouts_init
                0x00002450       0x10 ./Source/lwIP/core/lwip_timers.o
                0x00002450                sys_timeouts_init
 .text.arp_timer
                0x00002460       0x1c ./Source/lwIP/core/lwip_timers.o
 .text.sys_untimeout
                0x0000247c       0x48 ./Source/lwIP/core/lwip_timers.o
                0x0000247c                sys_untimeout
 .text.sys_timeouts_mbox_fetch
                0x000024c4       0x58 ./Source/lwIP/core/lwip_timers.o
                0x000024c4                sys_timeouts_mbox_fetch
 .text.mem_init
                0x0000251c       0x70 ./Source/lwIP/core/mem.o
                0x0000251c                mem_init
 .text.mem_free
                0x0000258c      0x1b4 ./Source/lwIP/core/mem.o
                0x0000258c                mem_free
 .text.mem_trim
                0x00002740      0x124 ./Source/lwIP/core/mem.o
                0x00002740                mem_trim
 .text.mem_malloc
                0x00002864      0x16c ./Source/lwIP/core/mem.o
                0x00002864                mem_malloc
 .text.memp_init
                0x000029d0       0x48 ./Source/lwIP/core/memp.o
                0x000029d0                memp_init
 .text.memp_malloc
                0x00002a18       0x70 ./Source/lwIP/core/memp.o
                0x00002a18                memp_malloc
 .text.memp_free
                0x00002a88       0x50 ./Source/lwIP/core/memp.o
                0x00002a88                memp_free
 .text.netif_init
                0x00002ad8        0x2 ./Source/lwIP/core/netif.o
                0x00002ad8                netif_init
 *fill*         0x00002ada        0x2 
 .text.netif_set_ipaddr
                0x00002adc       0x50 ./Source/lwIP/core/netif.o
                0x00002adc                netif_set_ipaddr
 .text.netif_set_addr
                0x00002b2c       0x1a ./Source/lwIP/core/netif.o
                0x00002b2c                netif_set_addr
 *fill*         0x00002b46        0x2 
 .text.netif_add
                0x00002b48       0x80 ./Source/lwIP/core/netif.o
                0x00002b48                netif_add
 .text.netif_set_default
                0x00002bc8        0xc ./Source/lwIP/core/netif.o
                0x00002bc8                netif_set_default
 .text.netif_set_up
                0x00002bd4       0x22 ./Source/lwIP/core/netif.o
                0x00002bd4                netif_set_up
 *fill*         0x00002bf6        0x2 
 .text.pbuf_header
                0x00002bf8       0xb4 ./Source/lwIP/core/pbuf.o
                0x00002bf8                pbuf_header
 .text.pbuf_free
                0x00002cac       0xc0 ./Source/lwIP/core/pbuf.o
                0x00002cac                pbuf_free
 .text.pbuf_alloc
                0x00002d6c      0x1d4 ./Source/lwIP/core/pbuf.o
                0x00002d6c                pbuf_alloc
 .text.pbuf_realloc
                0x00002f40       0xfc ./Source/lwIP/core/pbuf.o
                0x00002f40                pbuf_realloc
 .text.pbuf_clen
                0x0000303c       0x10 ./Source/lwIP/core/pbuf.o
                0x0000303c                pbuf_clen
 .text.pbuf_ref
                0x0000304c       0x1a ./Source/lwIP/core/pbuf.o
                0x0000304c                pbuf_ref
 *fill*         0x00003066        0x2 
 .text.pbuf_cat
                0x00003068       0x90 ./Source/lwIP/core/pbuf.o
                0x00003068                pbuf_cat
 .text.pbuf_copy
                0x000030f8      0x13c ./Source/lwIP/core/pbuf.o
                0x000030f8                pbuf_copy
 .text.pbuf_copy_partial
                0x00003234       0xa8 ./Source/lwIP/core/pbuf.o
                0x00003234                pbuf_copy_partial
 .text.tcp_accept_null
                0x000032dc        0x6 ./Source/lwIP/core/tcp.o
 *fill*         0x000032e2        0x2 
 .text.tcp_new_port
                0x000032e4       0x40 ./Source/lwIP/core/tcp.o
 .text.tcp_bind
                0x00003324       0x88 ./Source/lwIP/core/tcp.o
                0x00003324                tcp_bind
 .text.tcp_listen_with_backlog
                0x000033ac       0xb8 ./Source/lwIP/core/tcp.o
                0x000033ac                tcp_listen_with_backlog
 .text.tcp_update_rcv_ann_wnd
                0x00003464       0x64 ./Source/lwIP/core/tcp.o
                0x00003464                tcp_update_rcv_ann_wnd
 .text.tcp_recved
                0x000034c8       0x6c ./Source/lwIP/core/tcp.o
                0x000034c8                tcp_recved
 .text.tcp_seg_free
                0x00003534       0x1c ./Source/lwIP/core/tcp.o
                0x00003534                tcp_seg_free
 .text.tcp_segs_free
                0x00003550       0x10 ./Source/lwIP/core/tcp.o
                0x00003550                tcp_segs_free
 .text.tcp_setprio
                0x00003560        0x4 ./Source/lwIP/core/tcp.o
                0x00003560                tcp_setprio
 .text.tcp_arg  0x00003564        0x4 ./Source/lwIP/core/tcp.o
                0x00003564                tcp_arg
 .text.tcp_recv
                0x00003568        0x6 ./Source/lwIP/core/tcp.o
                0x00003568                tcp_recv
 .text.tcp_sent
                0x0000356e        0x6 ./Source/lwIP/core/tcp.o
                0x0000356e                tcp_sent
 .text.tcp_err  0x00003574        0x6 ./Source/lwIP/core/tcp.o
                0x00003574                tcp_err
 .text.tcp_accept
                0x0000357a        0x4 ./Source/lwIP/core/tcp.o
                0x0000357a                tcp_accept
 .text.tcp_poll
                0x0000357e        0xa ./Source/lwIP/core/tcp.o
                0x0000357e                tcp_poll
 .text.tcp_pcb_purge
                0x00003588       0x38 ./Source/lwIP/core/tcp.o
                0x00003588                tcp_pcb_purge
 .text.tcp_slowtmr
                0x000035c0      0x368 ./Source/lwIP/core/tcp.o
                0x000035c0                tcp_slowtmr
 .text.tcp_pcb_remove
                0x00003928       0xac ./Source/lwIP/core/tcp.o
                0x00003928                tcp_pcb_remove
 .text.tcp_close_shutdown
                0x000039d4      0x138 ./Source/lwIP/core/tcp.o
 .text.tcp_close
                0x00003b0c       0x18 ./Source/lwIP/core/tcp.o
                0x00003b0c                tcp_close
 .text.tcp_recv_null
                0x00003b24       0x24 ./Source/lwIP/core/tcp.o
                0x00003b24                tcp_recv_null
 .text.tcp_fasttmr
                0x00003b48       0x60 ./Source/lwIP/core/tcp.o
                0x00003b48                tcp_fasttmr
 .text.tcp_tmr  0x00003ba8       0x24 ./Source/lwIP/core/tcp.o
                0x00003ba8                tcp_tmr
 .text.tcp_shutdown
                0x00003bcc       0x56 ./Source/lwIP/core/tcp.o
                0x00003bcc                tcp_shutdown
 *fill*         0x00003c22        0x2 
 .text.tcp_abandon
                0x00003c24       0xbc ./Source/lwIP/core/tcp.o
                0x00003c24                tcp_abandon
 .text.tcp_abort
                0x00003ce0        0x6 ./Source/lwIP/core/tcp.o
                0x00003ce0                tcp_abort
 *fill*         0x00003ce6        0x2 
 .text.tcp_next_iss
                0x00003ce8       0x18 ./Source/lwIP/core/tcp.o
                0x00003ce8                tcp_next_iss
 .text.tcp_alloc
                0x00003d00       0xfc ./Source/lwIP/core/tcp.o
                0x00003d00                tcp_alloc
 .text.tcp_new  0x00003dfc        0x6 ./Source/lwIP/core/tcp.o
                0x00003dfc                tcp_new
 .text.tcp_eff_send_mss
                0x00003e02       0x1e ./Source/lwIP/core/tcp.o
                0x00003e02                tcp_eff_send_mss
 .text.tcp_receive
                0x00003e20      0x63c ./Source/lwIP/core/tcp_in.o
 .text.tcp_parseopt.isra.0
                0x0000445c       0x80 ./Source/lwIP/core/tcp_in.o
 .text.tcp_input
                0x000044dc      0x9a8 ./Source/lwIP/core/tcp_in.o
                0x000044dc                tcp_input
 .text.tcp_pbuf_prealloc
                0x00004e84       0x80 ./Source/lwIP/core/tcp_out.o
 .text.tcp_create_segment
                0x00004f04       0xbc ./Source/lwIP/core/tcp_out.o
 .text.tcp_output_alloc_header.constprop.0
                0x00004fc0       0x84 ./Source/lwIP/core/tcp_out.o
 .text.tcp_write
                0x00005044      0x4b8 ./Source/lwIP/core/tcp_out.o
                0x00005044                tcp_write
 .text.tcp_enqueue_flags
                0x000054fc      0x168 ./Source/lwIP/core/tcp_out.o
                0x000054fc                tcp_enqueue_flags
 .text.tcp_send_fin
                0x00005664       0x3c ./Source/lwIP/core/tcp_out.o
                0x00005664                tcp_send_fin
 .text.tcp_send_empty_ack
                0x000056a0       0x5e ./Source/lwIP/core/tcp_out.o
                0x000056a0                tcp_send_empty_ack
 *fill*         0x000056fe        0x2 
 .text.tcp_output
                0x00005700      0x2d4 ./Source/lwIP/core/tcp_out.o
                0x00005700                tcp_output
 .text.tcp_rst  0x000059d4       0xc4 ./Source/lwIP/core/tcp_out.o
                0x000059d4                tcp_rst
 .text.tcp_rexmit_rto
                0x00005a98       0x2e ./Source/lwIP/core/tcp_out.o
                0x00005a98                tcp_rexmit_rto
 .text.tcp_rexmit
                0x00005ac6       0x48 ./Source/lwIP/core/tcp_out.o
                0x00005ac6                tcp_rexmit
 .text.tcp_rexmit_fast
                0x00005b0e       0x56 ./Source/lwIP/core/tcp_out.o
                0x00005b0e                tcp_rexmit_fast
 .text.tcp_keepalive
                0x00005b64       0x52 ./Source/lwIP/core/tcp_out.o
                0x00005b64                tcp_keepalive
 .text.tcp_zero_window_probe
                0x00005bb6       0xb2 ./Source/lwIP/core/tcp_out.o
                0x00005bb6                tcp_zero_window_probe
 .text.netconn_recv_data
                0x00005c68      0x118 ./Source/lwIP/api/api_lib.o
 .text.netconn_new_with_proto_and_callback
                0x00005d80       0xcc ./Source/lwIP/api/api_lib.o
                0x00005d80                netconn_new_with_proto_and_callback
 .text.netconn_delete
                0x00005e4c       0x24 ./Source/lwIP/api/api_lib.o
                0x00005e4c                netconn_delete
 .text.netconn_getaddr
                0x00005e70       0x90 ./Source/lwIP/api/api_lib.o
                0x00005e70                netconn_getaddr
 .text.netconn_bind
                0x00005f00       0x5c ./Source/lwIP/api/api_lib.o
                0x00005f00                netconn_bind
 .text.netconn_listen_with_backlog
                0x00005f5c       0x58 ./Source/lwIP/api/api_lib.o
                0x00005f5c                netconn_listen_with_backlog
 .text.netconn_accept
                0x00005fb4       0xc4 ./Source/lwIP/api/api_lib.o
                0x00005fb4                netconn_accept
 .text.netconn_recv_tcp_pbuf
                0x00006078       0x38 ./Source/lwIP/api/api_lib.o
                0x00006078                netconn_recv_tcp_pbuf
 .text.netconn_recv
                0x000060b0       0xe0 ./Source/lwIP/api/api_lib.o
                0x000060b0                netconn_recv
 .text.netconn_recved
                0x00006190       0x2c ./Source/lwIP/api/api_lib.o
                0x00006190                netconn_recved
 .text.netconn_write
                0x000061bc       0x88 ./Source/lwIP/api/api_lib.o
                0x000061bc                netconn_write
 .text.setup_tcp
                0x00006244       0x44 ./Source/lwIP/api/api_msg.o
 .text.err_tcp  0x00006288       0xf4 ./Source/lwIP/api/api_msg.o
 .text.do_writemore
                0x0000637c      0x1ac ./Source/lwIP/api/api_msg.o
 .text.do_close_internal
                0x00006528      0x1c8 ./Source/lwIP/api/api_msg.o
 .text.poll_tcp
                0x000066f0       0x7c ./Source/lwIP/api/api_msg.o
 .text.recv_tcp
                0x0000676c       0xd8 ./Source/lwIP/api/api_msg.o
 .text.sent_tcp
                0x00006844       0x78 ./Source/lwIP/api/api_msg.o
 .text.do_newconn
                0x000068bc       0x3e ./Source/lwIP/api/api_msg.o
                0x000068bc                do_newconn
 *fill*         0x000068fa        0x2 
 .text.netconn_alloc
                0x000068fc       0x94 ./Source/lwIP/api/api_msg.o
                0x000068fc                netconn_alloc
 .text.netconn_free
                0x00006990       0x84 ./Source/lwIP/api/api_msg.o
                0x00006990                netconn_free
 .text.netconn_drain
                0x00006a14       0xb4 ./Source/lwIP/api/api_msg.o
 .text.accept_function
                0x00006ac8       0x5c ./Source/lwIP/api/api_msg.o
 .text.do_delconn
                0x00006b24       0xe8 ./Source/lwIP/api/api_msg.o
                0x00006b24                do_delconn
 .text.do_bind  0x00006c0c       0x3a ./Source/lwIP/api/api_msg.o
                0x00006c0c                do_bind
 *fill*         0x00006c46        0x2 
 .text.do_listen
                0x00006c48       0x98 ./Source/lwIP/api/api_msg.o
                0x00006c48                do_listen
 .text.do_recv  0x00006ce0       0x40 ./Source/lwIP/api/api_msg.o
                0x00006ce0                do_recv
 .text.do_write
                0x00006d20       0x90 ./Source/lwIP/api/api_msg.o
                0x00006d20                do_write
 .text.do_getaddr
                0x00006db0       0x70 ./Source/lwIP/api/api_msg.o
                0x00006db0                do_getaddr
 .text.netbuf_delete
                0x00006e20       0x22 ./Source/lwIP/api/netbuf.o
                0x00006e20                netbuf_delete
 *fill*         0x00006e42        0x2 
 .text.get_socket
                0x00006e44       0x20 ./Source/lwIP/api/sockets.o
 .text.alloc_socket
                0x00006e64       0x70 ./Source/lwIP/api/sockets.o
 .text.event_callback
                0x00006ed4      0x144 ./Source/lwIP/api/sockets.o
 .text.lwip_socket_init
                0x00007018        0x2 ./Source/lwIP/api/sockets.o
                0x00007018                lwip_socket_init
 *fill*         0x0000701a        0x2 
 .text.lwip_accept
                0x0000701c      0x190 ./Source/lwIP/api/sockets.o
                0x0000701c                lwip_accept
 .text.lwip_bind
                0x000071ac       0x80 ./Source/lwIP/api/sockets.o
                0x000071ac                lwip_bind
 .text.lwip_close
                0x0000722c       0x80 ./Source/lwIP/api/sockets.o
                0x0000722c                lwip_close
 .text.lwip_listen
                0x000072ac       0x40 ./Source/lwIP/api/sockets.o
                0x000072ac                lwip_listen
 .text.lwip_recvfrom
                0x000072ec      0x224 ./Source/lwIP/api/sockets.o
                0x000072ec                lwip_recvfrom
 .text.lwip_recv
                0x00007510       0x10 ./Source/lwIP/api/sockets.o
                0x00007510                lwip_recv
 .text.lwip_send
                0x00007520       0x74 ./Source/lwIP/api/sockets.o
                0x00007520                lwip_send
 .text.lwip_socket
                0x00007594       0x6c ./Source/lwIP/api/sockets.o
                0x00007594                lwip_socket
 .text.tcpip_thread
                0x00007600       0xa4 ./Source/lwIP/api/tcpip.o
 .text.tcpip_input
                0x000076a4       0x40 ./Source/lwIP/api/tcpip.o
                0x000076a4                tcpip_input
 .text.tcpip_apimsg
                0x000076e4       0x34 ./Source/lwIP/api/tcpip.o
                0x000076e4                tcpip_apimsg
 .text.tcpip_init
                0x00007718       0x6c ./Source/lwIP/api/tcpip.o
                0x00007718                tcpip_init
 .text.pvPortMalloc
                0x00007784       0xbc ./Source/MemMang/heap_2.o
                0x00007784                pvPortMalloc
 .text.vPortFree
                0x00007840       0x40 ./Source/MemMang/heap_2.o
                0x00007840                vPortFree
 .text.prvPortStartFirstTask
                0x00007880       0x14 ./Source/FreeRTOS-Products/FreeRTOS/portable/GCC/ARM_CM3/port.o
 .text.pxPortInitialiseStack
                0x00007894       0x16 ./Source/FreeRTOS-Products/FreeRTOS/portable/GCC/ARM_CM3/port.o
                0x00007894                pxPortInitialiseStack
 *fill*         0x000078aa        0x2 
 .text.SVCall_Handler
                0x000078ac       0x20 ./Source/FreeRTOS-Products/FreeRTOS/portable/GCC/ARM_CM3/port.o
                0x000078ac                SVCall_Handler
 .text.vPortYieldFromISR
                0x000078cc       0x10 ./Source/FreeRTOS-Products/FreeRTOS/portable/GCC/ARM_CM3/port.o
                0x000078cc                vPortYieldFromISR
 .text.ulPortSetInterruptMask
                0x000078dc       0x10 ./Source/FreeRTOS-Products/FreeRTOS/portable/GCC/ARM_CM3/port.o
                0x000078dc                ulPortSetInterruptMask
 .text.vPortEnterCritical
                0x000078ec       0x14 ./Source/FreeRTOS-Products/FreeRTOS/portable/GCC/ARM_CM3/port.o
                0x000078ec                vPortEnterCritical
 .text.vPortClearInterruptMask
                0x00007900        0x6 ./Source/FreeRTOS-Products/FreeRTOS/portable/GCC/ARM_CM3/port.o
                0x00007900                vPortClearInterruptMask
 *fill*         0x00007906        0x2 
 .text.vPortExitCritical
                0x00007908       0x14 ./Source/FreeRTOS-Products/FreeRTOS/portable/GCC/ARM_CM3/port.o
                0x00007908                vPortExitCritical
 .text.PendSV_Handler
                0x0000791c       0x3c ./Source/FreeRTOS-Products/FreeRTOS/portable/GCC/ARM_CM3/port.o
                0x0000791c                PendSV_Handler
 .text.SysTick_Handler
                0x00007958       0x20 ./Source/FreeRTOS-Products/FreeRTOS/portable/GCC/ARM_CM3/port.o
                0x00007958                SysTick_Handler
 .text.vPortSetupTimerInterrupt
                0x00007978       0x28 ./Source/FreeRTOS-Products/FreeRTOS/portable/GCC/ARM_CM3/port.o
                0x00007978                vPortSetupTimerInterrupt
 .text.xPortStartScheduler
                0x000079a0       0x30 ./Source/FreeRTOS-Products/FreeRTOS/portable/GCC/ARM_CM3/port.o
                0x000079a0                xPortStartScheduler
 .text.vFreeRTOS_lpc17xx_PopulateFunctionPointers
                0x000079d0       0x22 ./Source/FreeRTOS-Products/FreeRTOS-Plus-IO/Device/LPC17xx/FreeRTOS_lpc17xx_DriverInterface.o
                0x000079d0                vFreeRTOS_lpc17xx_PopulateFunctionPointers
 *fill*         0x000079f2        0x2 
 .text.FreeRTOS_SSP_write
                0x000079f4      0x130 ./Source/FreeRTOS-Products/FreeRTOS-Plus-IO/Device/LPC17xx/FreeRTOS_lpc17xx_ssp.o
                0x000079f4                FreeRTOS_SSP_write
 .text.FreeRTOS_SSP_read
                0x00007b24      0x12c ./Source/FreeRTOS-Products/FreeRTOS-Plus-IO/Device/LPC17xx/FreeRTOS_lpc17xx_ssp.o
                0x00007b24                FreeRTOS_SSP_read
 .text.FreeRTOS_SSP_ioctl
                0x00007c50      0x18c ./Source/FreeRTOS-Products/FreeRTOS-Plus-IO/Device/LPC17xx/FreeRTOS_lpc17xx_ssp.o
                0x00007c50                FreeRTOS_SSP_ioctl
 .text.FreeRTOS_SSP_open
                0x00007ddc      0x154 ./Source/FreeRTOS-Products/FreeRTOS-Plus-IO/Device/LPC17xx/FreeRTOS_lpc17xx_ssp.o
                0x00007ddc                FreeRTOS_SSP_open
 .text.SSP0_IRQHandler
                0x00007f30      0x180 ./Source/FreeRTOS-Products/FreeRTOS-Plus-IO/Device/LPC17xx/FreeRTOS_lpc17xx_ssp.o
                0x00007f30                SSP0_IRQHandler
 .text.SSP1_IRQHandler
                0x000080b0      0x180 ./Source/FreeRTOS-Products/FreeRTOS-Plus-IO/Device/LPC17xx/FreeRTOS_lpc17xx_ssp.o
                0x000080b0                SSP1_IRQHandler
 .text.UART0_IRQHandler
                0x00008230       0x48 ./Source/FreeRTOS-Products/FreeRTOS-Plus-IO/Device/LPC17xx/FreeRTOS_lpc17xx_uart.o
                0x00008230                UART0_IRQHandler
 .text.FreeRTOS_open
                0x00008278       0x7c ./Source/FreeRTOS-Products/FreeRTOS-Plus-IO/Common/FreeRTOS_DriverInterface.o
                0x00008278                FreeRTOS_open
 .text.FreeRTOS_ioctl
                0x000082f4       0xda ./Source/FreeRTOS-Products/FreeRTOS-Plus-IO/Common/FreeRTOS_DriverInterface.o
                0x000082f4                FreeRTOS_ioctl
 .text.vIOUtilsCreateTransferControlStructure
                0x000083ce       0x4a ./Source/FreeRTOS-Products/FreeRTOS-Plus-IO/Common/FreeRTOS_IOUtils.o
                0x000083ce                vIOUtilsCreateTransferControlStructure
 .text.xIOUtilsSetTxQueueTimeout
                0x00008418        0x8 ./Source/FreeRTOS-Products/FreeRTOS-Plus-IO/Common/IOUtils_CharQueueTxAndRx.o
                0x00008418                xIOUtilsSetTxQueueTimeout
 .text.vIOUtilsSetRxQueueTimeout
                0x00008420        0x8 ./Source/FreeRTOS-Products/FreeRTOS-Plus-IO/Common/IOUtils_CharQueueTxAndRx.o
                0x00008420                vIOUtilsSetRxQueueTimeout
 .text.xIOUtilsConfigureTransferQueue
                0x00008428       0x6a ./Source/FreeRTOS-Products/FreeRTOS-Plus-IO/Common/IOUtils_CharQueueTxAndRx.o
                0x00008428                xIOUtilsConfigureTransferQueue
 .text.xIOUtilsReceiveCharsFromRxQueue
                0x00008492       0x40 ./Source/FreeRTOS-Products/FreeRTOS-Plus-IO/Common/IOUtils_CharQueueTxAndRx.o
                0x00008492                xIOUtilsReceiveCharsFromRxQueue
 .text.xIOUtilsSendCharsToTxQueue
                0x000084d2       0x3c ./Source/FreeRTOS-Products/FreeRTOS-Plus-IO/Common/IOUtils_CharQueueTxAndRx.o
                0x000084d2                xIOUtilsSendCharsToTxQueue
 .text.xIOUtilsWaitTxQueueEmpty
                0x0000850e       0x36 ./Source/FreeRTOS-Products/FreeRTOS-Plus-IO/Common/IOUtils_CharQueueTxAndRx.o
                0x0000850e                xIOUtilsWaitTxQueueEmpty
 .text.xIOUtilsClearRxCharQueue
                0x00008544       0x1a ./Source/FreeRTOS-Products/FreeRTOS-Plus-IO/Common/IOUtils_CharQueueTxAndRx.o
                0x00008544                xIOUtilsClearRxCharQueue
 .text.xIOUtilsConfigureCircularBufferRx
                0x0000855e       0x88 ./Source/FreeRTOS-Products/FreeRTOS-Plus-IO/Common/IOUtils_CircularBufferRx.o
                0x0000855e                xIOUtilsConfigureCircularBufferRx
 .text.vIOUtilsClearRxCircularBuffer
                0x000085e6       0x18 ./Source/FreeRTOS-Products/FreeRTOS-Plus-IO/Common/IOUtils_CircularBufferRx.o
                0x000085e6                vIOUtilsClearRxCircularBuffer
 .text.xIOUtilsReadCharsFromCircularBuffer
                0x000085fe       0x74 ./Source/FreeRTOS-Products/FreeRTOS-Plus-IO/Common/IOUtils_CircularBufferRx.o
                0x000085fe                xIOUtilsReadCharsFromCircularBuffer
 .text.vIOUtilsSetCircularBufferTimeout
                0x00008672        0x8 ./Source/FreeRTOS-Products/FreeRTOS-Plus-IO/Common/IOUtils_CircularBufferRx.o
                0x00008672                vIOUtilsSetCircularBufferTimeout
 .text.xIOUtilsConfigureZeroCopyTx
                0x0000867a       0x4c ./Source/FreeRTOS-Products/FreeRTOS-Plus-IO/Common/IOUtils_ZeroCopyTx.o
                0x0000867a                xIOUtilsConfigureZeroCopyTx
 .text.xIOUtilsGetZeroCopyWriteMutex
                0x000086c6       0x34 ./Source/FreeRTOS-Products/FreeRTOS-Plus-IO/Common/IOUtils_ZeroCopyTx.o
                0x000086c6                xIOUtilsGetZeroCopyWriteMutex
 .text.xIOUtilsReleaseZeroCopyWriteMutex
                0x000086fa       0x1e ./Source/FreeRTOS-Products/FreeRTOS-Plus-IO/Common/IOUtils_ZeroCopyTx.o
                0x000086fa                xIOUtilsReleaseZeroCopyWriteMutex
 .text.prvHelpCommand
                0x00008718       0x30 ./Source/FreeRTOS-Products/FreeRTOS-Plus-CLI/FreeRTOS_CLI.o
 .text.FreeRTOS_CLIRegisterCommand
                0x00008748       0x3c ./Source/FreeRTOS-Products/FreeRTOS-Plus-CLI/FreeRTOS_CLI.o
                0x00008748                FreeRTOS_CLIRegisterCommand
 .text.FreeRTOS_CLIProcessCommand
                0x00008784       0xd0 ./Source/FreeRTOS-Products/FreeRTOS-Plus-CLI/FreeRTOS_CLI.o
                0x00008784                FreeRTOS_CLIProcessCommand
 .text.FreeRTOS_CLIGetOutputBuffer
                0x00008854        0x8 ./Source/FreeRTOS-Products/FreeRTOS-Plus-CLI/FreeRTOS_CLI.o
                0x00008854                FreeRTOS_CLIGetOutputBuffer
 .text.FreeRTOS_CLIGetParameter
                0x0000885c       0x50 ./Source/FreeRTOS-Products/FreeRTOS-Plus-CLI/FreeRTOS_CLI.o
                0x0000885c                FreeRTOS_CLIGetParameter
 .text.vListInitialise
                0x000088ac       0x16 ./Source/FreeRTOS-Products/FreeRTOS/list.o
                0x000088ac                vListInitialise
 .text.vListInitialiseItem
                0x000088c2        0x6 ./Source/FreeRTOS-Products/FreeRTOS/list.o
                0x000088c2                vListInitialiseItem
 .text.vListInsertEnd
                0x000088c8       0x1a ./Source/FreeRTOS-Products/FreeRTOS/list.o
                0x000088c8                vListInsertEnd
 .text.vListInsert
                0x000088e2       0x30 ./Source/FreeRTOS-Products/FreeRTOS/list.o
                0x000088e2                vListInsert
 .text.uxListRemove
                0x00008912       0x22 ./Source/FreeRTOS-Products/FreeRTOS/list.o
                0x00008912                uxListRemove
 .text.prvCopyDataToQueue
                0x00008934       0x58 ./Source/FreeRTOS-Products/FreeRTOS/queue.o
 .text.prvCopyDataFromQueue
                0x0000898c       0x26 ./Source/FreeRTOS-Products/FreeRTOS/queue.o
 .text.prvUnlockQueue
                0x000089b2       0x64 ./Source/FreeRTOS-Products/FreeRTOS/queue.o
 .text.xQueueGenericReset
                0x00008a16       0x62 ./Source/FreeRTOS-Products/FreeRTOS/queue.o
                0x00008a16                xQueueGenericReset
 .text.xQueueGenericCreate
                0x00008a78       0x42 ./Source/FreeRTOS-Products/FreeRTOS/queue.o
                0x00008a78                xQueueGenericCreate
 .text.xQueueGetMutexHolder
                0x00008aba       0x1a ./Source/FreeRTOS-Products/FreeRTOS/queue.o
                0x00008aba                xQueueGetMutexHolder
 .text.xQueueCreateCountingSemaphore
                0x00008ad4       0x18 ./Source/FreeRTOS-Products/FreeRTOS/queue.o
                0x00008ad4                xQueueCreateCountingSemaphore
 .text.xQueueGenericSend
                0x00008aec       0xee ./Source/FreeRTOS-Products/FreeRTOS/queue.o
                0x00008aec                xQueueGenericSend
 .text.xQueueCreateMutex
                0x00008bda       0x50 ./Source/FreeRTOS-Products/FreeRTOS/queue.o
                0x00008bda                xQueueCreateMutex
 .text.xQueueGenericSendFromISR
                0x00008c2a       0x6c ./Source/FreeRTOS-Products/FreeRTOS/queue.o
                0x00008c2a                xQueueGenericSendFromISR
 .text.xQueueGenericReceive
                0x00008c96      0x126 ./Source/FreeRTOS-Products/FreeRTOS/queue.o
                0x00008c96                xQueueGenericReceive
 .text.xQueueReceiveFromISR
                0x00008dbc       0x66 ./Source/FreeRTOS-Products/FreeRTOS/queue.o
                0x00008dbc                xQueueReceiveFromISR
 .text.uxQueueMessagesWaiting
                0x00008e22       0x1a ./Source/FreeRTOS-Products/FreeRTOS/queue.o
                0x00008e22                uxQueueMessagesWaiting
 .text.vQueueDelete
                0x00008e3c       0x3c ./Source/FreeRTOS-Products/FreeRTOS/queue.o
                0x00008e3c                vQueueDelete
 .text.vQueueWaitForMessageRestricted
                0x00008e78       0x3a ./Source/FreeRTOS-Products/FreeRTOS/queue.o
                0x00008e78                vQueueWaitForMessageRestricted
 *fill*         0x00008eb2        0x2 
 .text.prvListTaskWithinSingleList
                0x00008eb4       0x78 ./Source/FreeRTOS-Products/FreeRTOS/tasks.o
 .text.prvGenerateRunTimeStatsForTasksInList
                0x00008f2c       0x88 ./Source/FreeRTOS-Products/FreeRTOS/tasks.o
 .text.prvAddCurrentTaskToDelayedList
                0x00008fb4       0x50 ./Source/FreeRTOS-Products/FreeRTOS/tasks.o
 .text.xTaskGenericCreate
                0x00009004      0x1a8 ./Source/FreeRTOS-Products/FreeRTOS/tasks.o
                0x00009004                xTaskGenericCreate
 .text.vTaskDelete
                0x000091ac       0x70 ./Source/FreeRTOS-Products/FreeRTOS/tasks.o
                0x000091ac                vTaskDelete
 .text.vTaskStartScheduler
                0x0000921c       0x60 ./Source/FreeRTOS-Products/FreeRTOS/tasks.o
                0x0000921c                vTaskStartScheduler
 .text.vTaskSuspendAll
                0x0000927c       0x10 ./Source/FreeRTOS-Products/FreeRTOS/tasks.o
                0x0000927c                vTaskSuspendAll
 .text.xTaskGetTickCount
                0x0000928c       0x18 ./Source/FreeRTOS-Products/FreeRTOS/tasks.o
                0x0000928c                xTaskGetTickCount
 .text.xTaskGetTickCountFromISR
                0x000092a4       0x18 ./Source/FreeRTOS-Products/FreeRTOS/tasks.o
                0x000092a4                xTaskGetTickCountFromISR
 .text.vTaskIncrementTick
                0x000092bc       0xd8 ./Source/FreeRTOS-Products/FreeRTOS/tasks.o
                0x000092bc                vTaskIncrementTick
 .text.xTaskResumeAll
                0x00009394       0xcc ./Source/FreeRTOS-Products/FreeRTOS/tasks.o
                0x00009394                xTaskResumeAll
 .text.vTaskDelay
                0x00009460       0x3c ./Source/FreeRTOS-Products/FreeRTOS/tasks.o
                0x00009460                vTaskDelay
 .text.prvIdleTask
                0x0000949c       0x54 ./Source/FreeRTOS-Products/FreeRTOS/tasks.o
 .text.vTaskList
                0x000094f0       0xa4 ./Source/FreeRTOS-Products/FreeRTOS/tasks.o
                0x000094f0                vTaskList
 .text.vTaskGetRunTimeStats
                0x00009594       0xb4 ./Source/FreeRTOS-Products/FreeRTOS/tasks.o
                0x00009594                vTaskGetRunTimeStats
 .text.vTaskSwitchContext
                0x00009648       0xbc ./Source/FreeRTOS-Products/FreeRTOS/tasks.o
                0x00009648                vTaskSwitchContext
 .text.vTaskPlaceOnEventList
                0x00009704       0x4c ./Source/FreeRTOS-Products/FreeRTOS/tasks.o
                0x00009704                vTaskPlaceOnEventList
 .text.vTaskPlaceOnEventListRestricted
                0x00009750       0x34 ./Source/FreeRTOS-Products/FreeRTOS/tasks.o
                0x00009750                vTaskPlaceOnEventListRestricted
 .text.xTaskRemoveFromEventList
                0x00009784       0x6c ./Source/FreeRTOS-Products/FreeRTOS/tasks.o
                0x00009784                xTaskRemoveFromEventList
 .text.vTaskSetTimeOutState
                0x000097f0       0x20 ./Source/FreeRTOS-Products/FreeRTOS/tasks.o
                0x000097f0                vTaskSetTimeOutState
 .text.xTaskCheckForTimeOut
                0x00009810       0x64 ./Source/FreeRTOS-Products/FreeRTOS/tasks.o
                0x00009810                xTaskCheckForTimeOut
 .text.vTaskMissedYield
                0x00009874        0xc ./Source/FreeRTOS-Products/FreeRTOS/tasks.o
                0x00009874                vTaskMissedYield
 .text.xTaskGetCurrentTaskHandle
                0x00009880        0xc ./Source/FreeRTOS-Products/FreeRTOS/tasks.o
                0x00009880                xTaskGetCurrentTaskHandle
 .text.xTaskGetSchedulerState
                0x0000988c       0x1c ./Source/FreeRTOS-Products/FreeRTOS/tasks.o
                0x0000988c                xTaskGetSchedulerState
 .text.vTaskPriorityInherit
                0x000098a8       0x68 ./Source/FreeRTOS-Products/FreeRTOS/tasks.o
                0x000098a8                vTaskPriorityInherit
 .text.vTaskPriorityDisinherit
                0x00009910       0x48 ./Source/FreeRTOS-Products/FreeRTOS/tasks.o
                0x00009910                vTaskPriorityDisinherit
 .text.prvCheckForValidListAndQueue
                0x00009958       0x4c ./Source/FreeRTOS-Products/FreeRTOS/timers.o
 .text.prvInsertTimerInActiveList
                0x000099a4       0x3c ./Source/FreeRTOS-Products/FreeRTOS/timers.o
 .text.xTimerCreateTimerTask
                0x000099e0       0x40 ./Source/FreeRTOS-Products/FreeRTOS/timers.o
                0x000099e0                xTimerCreateTimerTask
 .text.xTimerCreate
                0x00009a20       0x3c ./Source/FreeRTOS-Products/FreeRTOS/timers.o
                0x00009a20                xTimerCreate
 .text.xTimerGenericCommand
                0x00009a5c       0x44 ./Source/FreeRTOS-Products/FreeRTOS/timers.o
                0x00009a5c                xTimerGenericCommand
 .text.prvSwitchTimerLists.isra.1
                0x00009aa0       0x68 ./Source/FreeRTOS-Products/FreeRTOS/timers.o
 .text.prvTimerTask
                0x00009b08      0x158 ./Source/FreeRTOS-Products/FreeRTOS/timers.o
 .text.mem_cpy  0x00009c60       0x14 ./Source/FatFS/ff.o
 .text.get_fileinfo
                0x00009c74       0x80 ./Source/FatFS/ff.o
 .text.move_window
                0x00009cf4       0x76 ./Source/FatFS/ff.o
 *fill*         0x00009d6a        0x2 
 .text.check_fs
                0x00009d6c       0x84 ./Source/FatFS/ff.o
 .text.chk_mounted
                0x00009df0      0x2fc ./Source/FatFS/ff.o
 .text.validate
                0x0000a0ec       0x32 ./Source/FatFS/ff.o
 .text.unlock_fs.isra.4
                0x0000a11e       0x18 ./Source/FatFS/ff.o
 .text.sync     0x0000a136       0xbc ./Source/FatFS/ff.o
 .text.clust2sect
                0x0000a1f2       0x16 ./Source/FatFS/ff.o
                0x0000a1f2                clust2sect
 .text.get_fat  0x0000a208       0xcc ./Source/FatFS/ff.o
                0x0000a208                get_fat
 .text.dir_sdi  0x0000a2d4       0x84 ./Source/FatFS/ff.o
 .text.dir_remove
                0x0000a358       0x24 ./Source/FatFS/ff.o
 .text.put_fat  0x0000a37c       0xf4 ./Source/FatFS/ff.o
                0x0000a37c                put_fat
 .text.create_chain
                0x0000a470       0x9c ./Source/FatFS/ff.o
 .text.dir_next
                0x0000a50c      0x104 ./Source/FatFS/ff.o
 .text.follow_path
                0x0000a610      0x1a0 ./Source/FatFS/ff.o
 .text.dir_register
                0x0000a7b0       0x60 ./Source/FatFS/ff.o
 .text.dir_read
                0x0000a810       0x46 ./Source/FatFS/ff.o
 .text.remove_chain
                0x0000a856       0x54 ./Source/FatFS/ff.o
 *fill*         0x0000a8aa        0x2 
 .text.f_mount  0x0000a8ac       0x40 ./Source/FatFS/ff.o
                0x0000a8ac                f_mount
 .text.f_open   0x0000a8ec      0x154 ./Source/FatFS/ff.o
                0x0000a8ec                f_open
 .text.f_read   0x0000aa40      0x1b4 ./Source/FatFS/ff.o
                0x0000aa40                f_read
 .text.f_write  0x0000abf4      0x1e2 ./Source/FatFS/ff.o
                0x0000abf4                f_write
 .text.f_sync   0x0000add6       0xb6 ./Source/FatFS/ff.o
                0x0000add6                f_sync
 .text.f_close  0x0000ae8c        0xe ./Source/FatFS/ff.o
                0x0000ae8c                f_close
 .text.f_opendir
                0x0000ae9a       0x70 ./Source/FatFS/ff.o
                0x0000ae9a                f_opendir
 .text.f_readdir
                0x0000af0a       0x5e ./Source/FatFS/ff.o
                0x0000af0a                f_readdir
 .text.f_unlink
                0x0000af68       0xc6 ./Source/FatFS/ff.o
                0x0000af68                f_unlink
 *fill*         0x0000b02e        0x2 
 .text.prvWaitForCardReady
                0x0000b030       0x44 ./Source/FatFS/mmc.o
 .text.prvDeselectCard
                0x0000b074       0x24 ./Source/FatFS/mmc.o
 .text.prvWriteDataBlock
                0x0000b098       0xc8 ./Source/FatFS/mmc.o
 .text.prvSelectCard
                0x0000b160       0x20 ./Source/FatFS/mmc.o
 .text.prvSendCommand
                0x0000b180       0xd0 ./Source/FatFS/mmc.o
 .text.unlikely.prvQueryCard.constprop.1
                0x0000b250       0x88 ./Source/FatFS/mmc.o
 .text.prvReceiveDataBlock.constprop.2
                0x0000b2d8       0x6c ./Source/FatFS/mmc.o
 .text.xMMCGetSPIPortHandle
                0x0000b344        0xc ./Source/FatFS/mmc.o
                0x0000b344                xMMCGetSPIPortHandle
 .text.disk_initialize
                0x0000b350      0x1dc ./Source/FatFS/mmc.o
                0x0000b350                disk_initialize
 .text.disk_status
                0x0000b52c       0x1c ./Source/FatFS/mmc.o
                0x0000b52c                disk_status
 .text.disk_read
                0x0000b548       0x84 ./Source/FatFS/mmc.o
                0x0000b548                disk_read
 .text.disk_write
                0x0000b5cc       0xb0 ./Source/FatFS/mmc.o
                0x0000b5cc                disk_write
 .text.disk_ioctl
                0x0000b67c      0x1d8 ./Source/FatFS/mmc.o
                0x0000b67c                disk_ioctl
 .text.get_fattime
                0x0000b854        0x4 ./Source/FatFS/mmc.o
                0x0000b854                get_fattime
 .text.ff_cre_syncobj
                0x0000b858       0x14 ./Source/FatFS/syscall.o
                0x0000b858                ff_cre_syncobj
 .text.ff_del_syncobj
                0x0000b86c        0x4 ./Source/FatFS/syscall.o
                0x0000b86c                ff_del_syncobj
 .text.ff_req_grant
                0x0000b870       0x16 ./Source/FatFS/syscall.o
                0x0000b870                ff_req_grant
 .text.ff_rel_grant
                0x0000b886        0xa ./Source/FatFS/syscall.o
                0x0000b886                ff_rel_grant
 .text.prvCopyCommand
                0x0000b890      0x10c ./Source/Examples/SSP/SPI-interface-to-SD-card.o
 .text.prvDelCommand
                0x0000b99c       0x34 ./Source/Examples/SSP/SPI-interface-to-SD-card.o
 .text.prvDirCommand
                0x0000b9d0       0x7c ./Source/Examples/SSP/SPI-interface-to-SD-card.o
 .text.prvWriteFilesToDisk
                0x0000ba4c       0xb0 ./Source/Examples/SSP/SPI-interface-to-SD-card.o
 .text.prvReadBackCreatedFiles
                0x0000bafc       0xec ./Source/Examples/SSP/SPI-interface-to-SD-card.o
 .text.prvSPIToSDCardTask
                0x0000bbe8       0xd8 ./Source/Examples/SSP/SPI-interface-to-SD-card.o
 .text.vStartSPIInterfaceToSDCardTask
                0x0000bcc0       0x5c ./Source/Examples/SSP/SPI-interface-to-SD-card.o
                0x0000bcc0                vStartSPIInterfaceToSDCardTask
 .text.prvGPIOTimerCallback
                0x0000bd1c       0x54 ./Source/Examples/GPIO/GPIO-output-and-software-timers.o
 .text.vGPIOSoftwareTimersStart
                0x0000bd70       0x6c ./Source/Examples/GPIO/GPIO-output-and-software-timers.o
                0x0000bd70                vGPIOSoftwareTimersStart
 .text.pop_registers_from_fault_stack
                0x0000bddc       0x24 ./Source/cr_startup_lpc176x.o
                0x0000bddc                pop_registers_from_fault_stack
 .text.prvRunTimeStatsCommand
                0x0000be00       0x28 ./Source/main.o
 .text.prvTaskStatsCommand
                0x0000be28       0x28 ./Source/main.o
 .text.startup.main
                0x0000be50       0xb4 ./Source/main.o
                0x0000be50                main
 .text.vMainConfigureTimerForRunTimeStats
                0x0000bf04       0x1c ./Source/main.o
                0x0000bf04                vMainConfigureTimerForRunTimeStats
 .text.ulMainGetRunTimeCounterValue
                0x0000bf20       0x54 ./Source/main.o
                0x0000bf20                ulMainGetRunTimeCounterValue
 .text.pvApplicationGetEMACTxBufferAddress
                0x0000bf74        0xc ./Source/main.o
                0x0000bf74                pvApplicationGetEMACTxBufferAddress
 .text.pvApplicationGetEMACRxBufferAddress
                0x0000bf80        0xc ./Source/main.o
                0x0000bf80                pvApplicationGetEMACRxBufferAddress
 .text.vApplicationMallocFailedHook
                0x0000bf8c        0x8 ./Source/main.o
                0x0000bf8c                vApplicationMallocFailedHook
 .text.vApplicationStackOverflowHook
                0x0000bf94        0x8 ./Source/main.o
                0x0000bf94                vApplicationStackOverflowHook
 .text.printchar
                0x0000bf9c        0xe ./Source/printf-stdarg.o
 .text.prints   0x0000bfaa       0x86 ./Source/printf-stdarg.o
 .text.printi   0x0000c030       0xa6 ./Source/printf-stdarg.o
 *fill*         0x0000c0d6        0x2 
 .text.print    0x0000c0d8      0x120 ./Source/printf-stdarg.o
 .text.printf   0x0000c1f8       0x1c ./Source/printf-stdarg.o
                0x0000c1f8                printf
 .text.sprintf  0x0000c214       0x1e ./Source/printf-stdarg.o
                0x0000c214                sprintf
 .text.snprintf
                0x0000c232       0x1e ./Source/printf-stdarg.o
                0x0000c232                snprintf
 .text.rx_descr_init
                0x0000c250       0x94 /home/froux/MEGA/LPC1769_Repo/LPC_Open_Free_RTOS/lpc17xx.cmsis.driver.library/Debug/liblpc17xx.cmsis.driver.library.a(lpc17xx_emac.o)
 .text.tx_descr_init
                0x0000c2e4       0x84 /home/froux/MEGA/LPC1769_Repo/LPC_Open_Free_RTOS/lpc17xx.cmsis.driver.library/Debug/liblpc17xx.cmsis.driver.library.a(lpc17xx_emac.o)
 .text.write_PHY
                0x0000c368       0x5c /home/froux/MEGA/LPC1769_Repo/LPC_Open_Free_RTOS/lpc17xx.cmsis.driver.library/Debug/liblpc17xx.cmsis.driver.library.a(lpc17xx_emac.o)
 .text.read_PHY
                0x0000c3c4       0x64 /home/froux/MEGA/LPC1769_Repo/LPC_Open_Free_RTOS/lpc17xx.cmsis.driver.library/Debug/liblpc17xx.cmsis.driver.library.a(lpc17xx_emac.o)
 .text.setEmacAddr
                0x0000c428       0x54 /home/froux/MEGA/LPC1769_Repo/LPC_Open_Free_RTOS/lpc17xx.cmsis.driver.library/Debug/liblpc17xx.cmsis.driver.library.a(lpc17xx_emac.o)
 .text.EMAC_Init
                0x0000c47c      0x1a4 /home/froux/MEGA/LPC1769_Repo/LPC_Open_Free_RTOS/lpc17xx.cmsis.driver.library/Debug/liblpc17xx.cmsis.driver.library.a(lpc17xx_emac.o)
                0x0000c47c                EMAC_Init
 .text.EMAC_SetPHYMode
                0x0000c620       0xf0 /home/froux/MEGA/LPC1769_Repo/LPC_Open_Free_RTOS/lpc17xx.cmsis.driver.library/Debug/liblpc17xx.cmsis.driver.library.a(lpc17xx_emac.o)
                0x0000c620                EMAC_SetPHYMode
 .text.EMAC_UpdatePHYStatus
                0x0000c710       0xac /home/froux/MEGA/LPC1769_Repo/LPC_Open_Free_RTOS/lpc17xx.cmsis.driver.library/Debug/liblpc17xx.cmsis.driver.library.a(lpc17xx_emac.o)
                0x0000c710                EMAC_UpdatePHYStatus
 .text.EMAC_NextPacketToSend
                0x0000c7bc       0x20 /home/froux/MEGA/LPC1769_Repo/LPC_Open_Free_RTOS/lpc17xx.cmsis.driver.library/Debug/liblpc17xx.cmsis.driver.library.a(lpc17xx_emac.o)
                0x0000c7bc                EMAC_NextPacketToSend
 .text.EMAC_StartTransmitNextBuffer
                0x0000c7dc       0x4c /home/froux/MEGA/LPC1769_Repo/LPC_Open_Free_RTOS/lpc17xx.cmsis.driver.library/Debug/liblpc17xx.cmsis.driver.library.a(lpc17xx_emac.o)
                0x0000c7dc                EMAC_StartTransmitNextBuffer
 .text.EMAC_NextPacketToRead
                0x0000c828       0x20 /home/froux/MEGA/LPC1769_Repo/LPC_Open_Free_RTOS/lpc17xx.cmsis.driver.library/Debug/liblpc17xx.cmsis.driver.library.a(lpc17xx_emac.o)
                0x0000c828                EMAC_NextPacketToRead
 .text.EMAC_CheckReceiveIndex
                0x0000c848       0x28 /home/froux/MEGA/LPC1769_Repo/LPC_Open_Free_RTOS/lpc17xx.cmsis.driver.library/Debug/liblpc17xx.cmsis.driver.library.a(lpc17xx_emac.o)
                0x0000c848                EMAC_CheckReceiveIndex
 .text.EMAC_CheckTransmitIndex
                0x0000c870       0x48 /home/froux/MEGA/LPC1769_Repo/LPC_Open_Free_RTOS/lpc17xx.cmsis.driver.library/Debug/liblpc17xx.cmsis.driver.library.a(lpc17xx_emac.o)
                0x0000c870                EMAC_CheckTransmitIndex
 .text.EMAC_CheckReceiveDataStatus
                0x0000c8b8       0x38 /home/froux/MEGA/LPC1769_Repo/LPC_Open_Free_RTOS/lpc17xx.cmsis.driver.library/Debug/liblpc17xx.cmsis.driver.library.a(lpc17xx_emac.o)
                0x0000c8b8                EMAC_CheckReceiveDataStatus
 .text.EMAC_GetReceiveDataSize
                0x0000c8f0       0x2c /home/froux/MEGA/LPC1769_Repo/LPC_Open_Free_RTOS/lpc17xx.cmsis.driver.library/Debug/liblpc17xx.cmsis.driver.library.a(lpc17xx_emac.o)
                0x0000c8f0                EMAC_GetReceiveDataSize
 .text.EMAC_UpdateRxConsumeIndex
                0x0000c91c       0x34 /home/froux/MEGA/LPC1769_Repo/LPC_Open_Free_RTOS/lpc17xx.cmsis.driver.library/Debug/liblpc17xx.cmsis.driver.library.a(lpc17xx_emac.o)
                0x0000c91c                EMAC_UpdateRxConsumeIndex
 .text.GPIO_GetPointer
                0x0000c950       0x74 /home/froux/MEGA/LPC1769_Repo/LPC_Open_Free_RTOS/lpc17xx.cmsis.driver.library/Debug/liblpc17xx.cmsis.driver.library.a(lpc17xx_gpio.o)
 .text.GPIO_SetDir
                0x0000c9c4       0x50 /home/froux/MEGA/LPC1769_Repo/LPC_Open_Free_RTOS/lpc17xx.cmsis.driver.library/Debug/liblpc17xx.cmsis.driver.library.a(lpc17xx_gpio.o)
                0x0000c9c4                GPIO_SetDir
 .text.GPIO_SetValue
                0x0000ca14       0x28 /home/froux/MEGA/LPC1769_Repo/LPC_Open_Free_RTOS/lpc17xx.cmsis.driver.library/Debug/liblpc17xx.cmsis.driver.library.a(lpc17xx_gpio.o)
                0x0000ca14                GPIO_SetValue
 .text.GPIO_ClearValue
                0x0000ca3c       0x28 /home/froux/MEGA/LPC1769_Repo/LPC_Open_Free_RTOS/lpc17xx.cmsis.driver.library/Debug/liblpc17xx.cmsis.driver.library.a(lpc17xx_gpio.o)
                0x0000ca3c                GPIO_ClearValue
 .text.check_failed
                0x0000ca64        0xc /home/froux/MEGA/LPC1769_Repo/LPC_Open_Free_RTOS/lpc17xx.cmsis.driver.library/Debug/liblpc17xx.cmsis.driver.library.a(lpc17xx_libcfg_default.o)
                0x0000ca64                check_failed
 .text.set_PinFunc
                0x0000ca70       0x80 /home/froux/MEGA/LPC1769_Repo/LPC_Open_Free_RTOS/lpc17xx.cmsis.driver.library/Debug/liblpc17xx.cmsis.driver.library.a(lpc17xx_pinsel.o)
 .text.set_ResistorMode
                0x0000caf0       0x80 /home/froux/MEGA/LPC1769_Repo/LPC_Open_Free_RTOS/lpc17xx.cmsis.driver.library/Debug/liblpc17xx.cmsis.driver.library.a(lpc17xx_pinsel.o)
 .text.set_OpenDrainMode
                0x0000cb70       0x6c /home/froux/MEGA/LPC1769_Repo/LPC_Open_Free_RTOS/lpc17xx.cmsis.driver.library/Debug/liblpc17xx.cmsis.driver.library.a(lpc17xx_pinsel.o)
 .text.PINSEL_ConfigPin
                0x0000cbdc       0x50 /home/froux/MEGA/LPC1769_Repo/LPC_Open_Free_RTOS/lpc17xx.cmsis.driver.library/Debug/liblpc17xx.cmsis.driver.library.a(lpc17xx_pinsel.o)
                0x0000cbdc                PINSEL_ConfigPin
 .text.setSSPclock
                0x0000cc2c       0xc4 /home/froux/MEGA/LPC1769_Repo/LPC_Open_Free_RTOS/lpc17xx.cmsis.driver.library/Debug/liblpc17xx.cmsis.driver.library.a(lpc17xx_ssp.o)
 .text.SSP_Init
                0x0000ccf0       0x9c /home/froux/MEGA/LPC1769_Repo/LPC_Open_Free_RTOS/lpc17xx.cmsis.driver.library/Debug/liblpc17xx.cmsis.driver.library.a(lpc17xx_ssp.o)
                0x0000ccf0                SSP_Init
 .text.SSP_DeInit
                0x0000cd8c       0x58 /home/froux/MEGA/LPC1769_Repo/LPC_Open_Free_RTOS/lpc17xx.cmsis.driver.library/Debug/liblpc17xx.cmsis.driver.library.a(lpc17xx_ssp.o)
                0x0000cd8c                SSP_DeInit
 .text.SSP_GetDataSize
                0x0000cde4       0x40 /home/froux/MEGA/LPC1769_Repo/LPC_Open_Free_RTOS/lpc17xx.cmsis.driver.library/Debug/liblpc17xx.cmsis.driver.library.a(lpc17xx_ssp.o)
                0x0000cde4                SSP_GetDataSize
 .text.SSP_ConfigStructInit
                0x0000ce24       0x3c /home/froux/MEGA/LPC1769_Repo/LPC_Open_Free_RTOS/lpc17xx.cmsis.driver.library/Debug/liblpc17xx.cmsis.driver.library.a(lpc17xx_ssp.o)
                0x0000ce24                SSP_ConfigStructInit
 .text.SSP_Cmd  0x0000ce60       0x6c /home/froux/MEGA/LPC1769_Repo/LPC_Open_Free_RTOS/lpc17xx.cmsis.driver.library/Debug/liblpc17xx.cmsis.driver.library.a(lpc17xx_ssp.o)
                0x0000ce60                SSP_Cmd
 .text.SSP_SendData
                0x0000cecc       0x40 /home/froux/MEGA/LPC1769_Repo/LPC_Open_Free_RTOS/lpc17xx.cmsis.driver.library/Debug/liblpc17xx.cmsis.driver.library.a(lpc17xx_ssp.o)
                0x0000cecc                SSP_SendData
 .text.SSP_ReceiveData
                0x0000cf0c       0x3c /home/froux/MEGA/LPC1769_Repo/LPC_Open_Free_RTOS/lpc17xx.cmsis.driver.library/Debug/liblpc17xx.cmsis.driver.library.a(lpc17xx_ssp.o)
                0x0000cf0c                SSP_ReceiveData
 .text.SSP_ReadWrite
                0x0000cf48      0x354 /home/froux/MEGA/LPC1769_Repo/LPC_Open_Free_RTOS/lpc17xx.cmsis.driver.library/Debug/liblpc17xx.cmsis.driver.library.a(lpc17xx_ssp.o)
                0x0000cf48                SSP_ReadWrite
 .text.SSP_IntConfig
                0x0000d29c       0x60 /home/froux/MEGA/LPC1769_Repo/LPC_Open_Free_RTOS/lpc17xx.cmsis.driver.library/Debug/liblpc17xx.cmsis.driver.library.a(lpc17xx_ssp.o)
                0x0000d29c                SSP_IntConfig
 .text.UART_GetIntId
                0x0000d2fc       0x58 /home/froux/MEGA/LPC1769_Repo/LPC_Open_Free_RTOS/lpc17xx.cmsis.driver.library/Debug/liblpc17xx.cmsis.driver.library.a(lpc17xx_uart.o)
                0x0000d2fc                UART_GetIntId
 .text.CLKPWR_GetPCLKSEL
                0x0000d354       0x4c /home/froux/MEGA/LPC1769_Repo/LPC_Open_Free_RTOS/lpc17xx.cmsis.driver.library/Debug/liblpc17xx.cmsis.driver.library.a(lpc17xx_clkpwr.o)
                0x0000d354                CLKPWR_GetPCLKSEL
 .text.CLKPWR_GetPCLK
                0x0000d3a0       0x64 /home/froux/MEGA/LPC1769_Repo/LPC_Open_Free_RTOS/lpc17xx.cmsis.driver.library/Debug/liblpc17xx.cmsis.driver.library.a(lpc17xx_clkpwr.o)
                0x0000d3a0                CLKPWR_GetPCLK
 .text.CLKPWR_ConfigPPWR
                0x0000d404       0x58 /home/froux/MEGA/LPC1769_Repo/LPC_Open_Free_RTOS/lpc17xx.cmsis.driver.library/Debug/liblpc17xx.cmsis.driver.library.a(lpc17xx_clkpwr.o)
                0x0000d404                CLKPWR_ConfigPPWR
 .text.SystemInit
                0x0000d45c       0xe0 /home/froux/MEGA/LPC1769_Repo/LPC_Open_Free_RTOS/CMSISv2p00_LPC17xx/Debug/libCMSISv2p00_LPC17xx.a(system_LPC17xx.o)
                0x0000d45c                SystemInit
 .text.__main   0x0000d53c       0x14 /usr/local/lpcxpresso_7.7.2_379/lpcxpresso/tools/bin/../lib/gcc/arm-none-eabi/4.9.3/../../../../arm-none-eabi/lib/armv7-m/libcr_nohost.a(_cr__main.o)
                0x0000d53c                __main
 .text.memcpy   0x0000d550        0x4 /usr/local/lpcxpresso_7.7.2_379/lpcxpresso/tools/bin/../lib/gcc/arm-none-eabi/4.9.3/../../../../arm-none-eabi/lib/armv7-m/libcr_c.a(memcpy.o)
                0x0000d550                memcpy
 .text.memset   0x0000d554        0x4 /usr/local/lpcxpresso_7.7.2_379/lpcxpresso/tools/bin/../lib/gcc/arm-none-eabi/4.9.3/../../../../arm-none-eabi/lib/armv7-m/libcr_c.a(memset.o)
                0x0000d554                memset
 .text.fflush   0x0000d558       0x30 /usr/local/lpcxpresso_7.7.2_379/lpcxpresso/tools/bin/../lib/gcc/arm-none-eabi/4.9.3/../../../../arm-none-eabi/lib/armv7-m/libcr_c.a(fflush.o)
                0x0000d558                fflush
 .text._initio  0x0000d588       0xa4 /usr/local/lpcxpresso_7.7.2_379/lpcxpresso/tools/bin/../lib/gcc/arm-none-eabi/4.9.3/../../../../arm-none-eabi/lib/armv7-m/libcr_c.a(initio.o)
                0x0000d588                _initio
 .text._terminateio
                0x0000d62c       0x44 /usr/local/lpcxpresso_7.7.2_379/lpcxpresso/tools/bin/../lib/gcc/arm-none-eabi/4.9.3/../../../../arm-none-eabi/lib/armv7-m/libcr_c.a(initio.o)
                0x0000d62c                _terminateio
 .text.memcmp   0x0000d670       0x42 /usr/local/lpcxpresso_7.7.2_379/lpcxpresso/tools/bin/../lib/gcc/arm-none-eabi/4.9.3/../../../../arm-none-eabi/lib/armv7-m/libcr_c.a(memcmp.o)
                0x0000d670                memcmp
 *fill*         0x0000d6b2        0x2 
 .text.setvbuf  0x0000d6b4       0x40 /usr/local/lpcxpresso_7.7.2_379/lpcxpresso/tools/bin/../lib/gcc/arm-none-eabi/4.9.3/../../../../arm-none-eabi/lib/armv7-m/libcr_c.a(setvbuf.o)
                0x0000d6b4                setvbuf
 .text.exit     0x0000d6f4       0x2c /usr/local/lpcxpresso_7.7.2_379/lpcxpresso/tools/bin/../lib/gcc/arm-none-eabi/4.9.3/../../../../arm-none-eabi/lib/armv7-m/libcr_c.a(stdlib.o)
                0x0000d6f4                exit
 .text.abort    0x0000d720       0x12 /usr/local/lpcxpresso_7.7.2_379/lpcxpresso/tools/bin/../lib/gcc/arm-none-eabi/4.9.3/../../../../arm-none-eabi/lib/armv7-m/libcr_c.a(stdlib.o)
                0x0000d720                abort
 .text.strcat   0x0000d732       0x1e /usr/local/lpcxpresso_7.7.2_379/lpcxpresso/tools/bin/../lib/gcc/arm-none-eabi/4.9.3/../../../../arm-none-eabi/lib/armv7-m/libcr_c.a(strcat.o)
                0x0000d732                strcat
 .text.strchr   0x0000d750       0x1a /usr/local/lpcxpresso_7.7.2_379/lpcxpresso/tools/bin/../lib/gcc/arm-none-eabi/4.9.3/../../../../arm-none-eabi/lib/armv7-m/libcr_c.a(strchr.o)
                0x0000d750                strchr
 .text.strcmp   0x0000d76a       0x44 /usr/local/lpcxpresso_7.7.2_379/lpcxpresso/tools/bin/../lib/gcc/arm-none-eabi/4.9.3/../../../../arm-none-eabi/lib/armv7-m/libcr_c.a(strcmp.o)
                0x0000d76a                strcmp
 .text.strcpy   0x0000d7ae       0x42 /usr/local/lpcxpresso_7.7.2_379/lpcxpresso/tools/bin/../lib/gcc/arm-none-eabi/4.9.3/../../../../arm-none-eabi/lib/armv7-m/libcr_c.a(strcpy.o)
                0x0000d7ae                strcpy
 .text.strlen   0x0000d7f0       0x4a /usr/local/lpcxpresso_7.7.2_379/lpcxpresso/tools/bin/../lib/gcc/arm-none-eabi/4.9.3/../../../../arm-none-eabi/lib/armv7-m/libcr_c.a(strlen.o)
                0x0000d7f0                strlen
 .text.strncmp  0x0000d83a       0x56 /usr/local/lpcxpresso_7.7.2_379/lpcxpresso/tools/bin/../lib/gcc/arm-none-eabi/4.9.3/../../../../arm-none-eabi/lib/armv7-m/libcr_c.a(strncmp.o)
                0x0000d83a                strncmp
 .text.strncpy  0x0000d890       0x58 /usr/local/lpcxpresso_7.7.2_379/lpcxpresso/tools/bin/../lib/gcc/arm-none-eabi/4.9.3/../../../../arm-none-eabi/lib/armv7-m/libcr_c.a(strncpy.o)
                0x0000d890                strncpy
 .text.strstr   0x0000d8e8       0x1e /usr/local/lpcxpresso_7.7.2_379/lpcxpresso/tools/bin/../lib/gcc/arm-none-eabi/4.9.3/../../../../arm-none-eabi/lib/armv7-m/libcr_c.a(strstr.o)
                0x0000d8e8                strstr
 .text._deferredlazyseek
                0x0000d906       0x44 /usr/local/lpcxpresso_7.7.2_379/lpcxpresso/tools/bin/../lib/gcc/arm-none-eabi/4.9.3/../../../../arm-none-eabi/lib/armv7-m/libcr_c.a(_deferredlazyseek.o)
                0x0000d906                _deferredlazyseek
 .text._do_fflush
                0x0000d94a       0x44 /usr/local/lpcxpresso_7.7.2_379/lpcxpresso/tools/bin/../lib/gcc/arm-none-eabi/4.9.3/../../../../arm-none-eabi/lib/armv7-m/libcr_c.a(_do_fflush.o)
                0x0000d94a                _do_fflush
 .text._fdopen  0x0000d98e       0x6a /usr/local/lpcxpresso_7.7.2_379/lpcxpresso/tools/bin/../lib/gcc/arm-none-eabi/4.9.3/../../../../arm-none-eabi/lib/armv7-m/libcr_c.a(_fdopen.o)
                0x0000d98e                _fdopen
 .text._fflush  0x0000d9f8       0x58 /usr/local/lpcxpresso_7.7.2_379/lpcxpresso/tools/bin/../lib/gcc/arm-none-eabi/4.9.3/../../../../arm-none-eabi/lib/armv7-m/libcr_c.a(_fflush.o)
                0x0000d9f8                _fflush
 .text._Cwritebuf
                0x0000da50       0x70 /usr/local/lpcxpresso_7.7.2_379/lpcxpresso/tools/bin/../lib/gcc/arm-none-eabi/4.9.3/../../../../arm-none-eabi/lib/armv7-m/libcr_c.a(_writebuf.o)
                0x0000da50                _Cwritebuf
 .text.malloc   0x0000dac0       0xcc /usr/local/lpcxpresso_7.7.2_379/lpcxpresso/tools/bin/../lib/gcc/arm-none-eabi/4.9.3/../../../../arm-none-eabi/lib/armv7-m/libcr_c.a(alloc.o)
                0x0000dac0                malloc
 .text.free     0x0000db8c       0x30 /usr/local/lpcxpresso_7.7.2_379/lpcxpresso/tools/bin/../lib/gcc/arm-none-eabi/4.9.3/../../../../arm-none-eabi/lib/armv7-m/libcr_c.a(alloc.o)
                0x0000db8c                free
 .text._Csys_alloc
                0x0000dbbc       0x20 /usr/local/lpcxpresso_7.7.2_379/lpcxpresso/tools/bin/../lib/gcc/arm-none-eabi/4.9.3/../../../../arm-none-eabi/lib/armv7-m/libcr_c.a(alloc.o)
                0x0000dbbc                _Csys_alloc
 .text.fclose   0x0000dbdc       0x6c /usr/local/lpcxpresso_7.7.2_379/lpcxpresso/tools/bin/../lib/gcc/arm-none-eabi/4.9.3/../../../../arm-none-eabi/lib/armv7-m/libcr_c.a(fclose.o)
                0x0000dbdc                fclose
 .text.fseek    0x0000dc48      0x110 /usr/local/lpcxpresso_7.7.2_379/lpcxpresso/tools/bin/../lib/gcc/arm-none-eabi/4.9.3/../../../../arm-none-eabi/lib/armv7-m/libcr_c.a(fseek.o)
                0x0000dc48                fseek
 .text.ftell    0x0000dd58       0x4c /usr/local/lpcxpresso_7.7.2_379/lpcxpresso/tools/bin/../lib/gcc/arm-none-eabi/4.9.3/../../../../arm-none-eabi/lib/armv7-m/libcr_c.a(ftell.o)
                0x0000dd58                ftell
 .text.raise    0x0000dda4        0x6 /usr/local/lpcxpresso_7.7.2_379/lpcxpresso/tools/bin/../lib/gcc/arm-none-eabi/4.9.3/../../../../arm-none-eabi/lib/armv7-m/libcr_c.a(raise.o)
                0x0000dda4                raise
 .text.remove   0x0000ddaa       0x14 /usr/local/lpcxpresso_7.7.2_379/lpcxpresso/tools/bin/../lib/gcc/arm-none-eabi/4.9.3/../../../../arm-none-eabi/lib/armv7-m/libcr_c.a(remove.o)
                0x0000ddaa                remove
 *fill*         0x0000ddbe        0x2 
 .text._sbrk    0x0000ddc0       0x40 /usr/local/lpcxpresso_7.7.2_379/lpcxpresso/tools/bin/../lib/gcc/arm-none-eabi/4.9.3/../../../../arm-none-eabi/lib/armv7-m/libcr_c.a(_cr_sbrk.o)
                0x0000ddc0                _sbrk
 .text.__check_heap_overflow
                0x0000de00       0x18 /usr/local/lpcxpresso_7.7.2_379/lpcxpresso/tools/bin/../lib/gcc/arm-none-eabi/4.9.3/../../../../arm-none-eabi/lib/armv7-m/libcr_c.a(_cr_check_heap.o)
                0x0000de00                __check_heap_overflow
 .text.__aeabi_memcpy
                0x0000de18       0x34 /usr/local/lpcxpresso_7.7.2_379/lpcxpresso/tools/bin/../lib/gcc/arm-none-eabi/4.9.3/armv7-m/libcr_eabihelpers.a(memcpy.o)
                0x0000de18                __aeabi_memcpy
                0x0000de22                __aeabi_memcpy4
                0x0000de22                __aeabi_memcpy8
 .text.__aeabi_memset_lowlevel
                0x0000de4c       0x32 /usr/local/lpcxpresso_7.7.2_379/lpcxpresso/tools/bin/../lib/gcc/arm-none-eabi/4.9.3/armv7-m/libcr_eabihelpers.a(memcpy.o)
                0x0000de4c                __aeabi_lowlevel_memset
 .text.__sys_appexit
                0x0000de7e        0x2 /usr/local/lpcxpresso_7.7.2_379/lpcxpresso/tools/bin/../lib/gcc/arm-none-eabi/4.9.3/../../../../arm-none-eabi/lib/armv7-m/libcr_nohost.a(__sys_appexit.o)
                0x0000de7e                __exit
                0x0000de7e                __sys_appexit
 .text.__sys_close
                0x0000de80        0x6 /usr/local/lpcxpresso_7.7.2_379/lpcxpresso/tools/bin/../lib/gcc/arm-none-eabi/4.9.3/../../../../arm-none-eabi/lib/armv7-m/libcr_nohost.a(__sys_close.o)
                0x0000de80                __sys_close
 .text.__sys_flen
                0x0000de86        0x6 /usr/local/lpcxpresso_7.7.2_379/lpcxpresso/tools/bin/../lib/gcc/arm-none-eabi/4.9.3/../../../../arm-none-eabi/lib/armv7-m/libcr_nohost.a(__sys_flen.o)
                0x0000de86                __sys_flen
 .text.__sys_istty
                0x0000de8c        0x6 /usr/local/lpcxpresso_7.7.2_379/lpcxpresso/tools/bin/../lib/gcc/arm-none-eabi/4.9.3/../../../../arm-none-eabi/lib/armv7-m/libcr_nohost.a(__sys_istty.o)
                0x0000de8c                __sys_istty
 .text.__sys_remove
                0x0000de92        0x6 /usr/local/lpcxpresso_7.7.2_379/lpcxpresso/tools/bin/../lib/gcc/arm-none-eabi/4.9.3/../../../../arm-none-eabi/lib/armv7-m/libcr_nohost.a(__sys_remove.o)
                0x0000de92                __sys_remove
 .text.__sys_seek
                0x0000de98        0x6 /usr/local/lpcxpresso_7.7.2_379/lpcxpresso/tools/bin/../lib/gcc/arm-none-eabi/4.9.3/../../../../arm-none-eabi/lib/armv7-m/libcr_nohost.a(__sys_seek.o)
                0x0000de98                __sys_seek
 .text.__sys_tmpnam
                0x0000de9e        0x6 /usr/local/lpcxpresso_7.7.2_379/lpcxpresso/tools/bin/../lib/gcc/arm-none-eabi/4.9.3/../../../../arm-none-eabi/lib/armv7-m/libcr_nohost.a(__sys_tmpnam.o)
                0x0000de9e                __sys_tmpnam
 .text.__sys_write
                0x0000dea4        0x4 /usr/local/lpcxpresso_7.7.2_379/lpcxpresso/tools/bin/../lib/gcc/arm-none-eabi/4.9.3/../../../../arm-none-eabi/lib/armv7-m/libcr_nohost.a(__sys_write.o)
                0x0000dea4                __write
                0x0000dea4                __sys_write
 *(.rodata .rodata.* .constdata .constdata.*)
 .rodata.ethbroadcast
                0x0000dea8        0x6 ./Source/lwIP/netif/etharp.o
                0x0000dea8                ethbroadcast
 .rodata.str1.1
                0x0000deae      0x212 ./Source/lwIP/netif/etharp.o
                                0x21c (size before relaxing)
 .rodata.ethzero
                0x0000e0c0        0x6 ./Source/lwIP/netif/etharp.o
                0x0000e0c0                ethzero
 .rodata.str1.1
                0x0000e0c6       0x32 ./Source/lwIP/netif/ethernetif.o
                                 0x5a (size before relaxing)
 .rodata.data__logo_jpg
                0x0000e0f8      0xfee ./Source/lwIP/lwIP_Apps/apps/httpserver_raw/fs.o
 .rodata.data__index_shtml
                0x0000f0e6      0x3af ./Source/lwIP/lwIP_Apps/apps/httpserver_raw/fs.o
 *fill*         0x0000f495        0x3 
 .rodata.file__404_html
                0x0000f498       0x14 ./Source/lwIP/lwIP_Apps/apps/httpserver_raw/fs.o
                0x0000f498                file__404_html
 .rodata.data__404_html
                0x0000f4ac      0x2a3 ./Source/lwIP/lwIP_Apps/apps/httpserver_raw/fs.o
 *fill*         0x0000f74f        0x1 
 .rodata.file__logo_jpg
                0x0000f750       0x14 ./Source/lwIP/lwIP_Apps/apps/httpserver_raw/fs.o
                0x0000f750                file__logo_jpg
 .rodata.file__index_shtml
                0x0000f764       0x14 ./Source/lwIP/lwIP_Apps/apps/httpserver_raw/fs.o
                0x0000f764                file__index_shtml
 .rodata.data__runtime_shtml
                0x0000f778      0x3ab ./Source/lwIP/lwIP_Apps/apps/httpserver_raw/fs.o
 *fill*         0x0000fb23        0x1 
 .rodata.file__runtime_shtml
                0x0000fb24       0x14 ./Source/lwIP/lwIP_Apps/apps/httpserver_raw/fs.o
                0x0000fb24                file__runtime_shtml
 .rodata.str1.1
                0x0000fb38      0x1f3 ./Source/lwIP/lwIP_Apps/apps/httpserver_raw/httpd.o
                                0x237 (size before relaxing)
 *fill*         0x0000fd2b        0x1 
 .rodata.g_pcSSIExtensions
                0x0000fd2c       0x10 ./Source/lwIP/lwIP_Apps/apps/httpserver_raw/httpd.o
                0x0000fd2c                g_pcSSIExtensions
 .rodata.g_psDefaultFilenames
                0x0000fd3c       0x28 ./Source/lwIP/lwIP_Apps/apps/httpserver_raw/httpd.o
                0x0000fd3c                g_psDefaultFilenames
 .rodata.str1.1
                0x0000fd64       0xa4 ./Source/lwIP/lwIP_Apps/apps/BasicSocketCommandServer/BasicSocketCommandServer.o
                                 0xa7 (size before relaxing)
 .rodata.str1.1
                0x0000fe08       0x31 ./Source/lwIP/lwIP_Apps/lwIP_Apps.o
 .rodata.str1.1
                0x0000fe39      0x10f ./Source/lwIP/core/ipv4/icmp.o
                                0x158 (size before relaxing)
 .rodata.str1.1
                0x0000ff48       0x57 ./Source/lwIP/core/ipv4/ip.o
                                 0x7f (size before relaxing)
 *fill*         0x0000ff9f        0x1 
 .rodata.ip_addr_any
                0x0000ffa0        0x4 ./Source/lwIP/core/ipv4/ip_addr.o
                0x0000ffa0                ip_addr_any
 .rodata.str1.1
                0x0000ffa4       0x5f ./Source/lwIP/core/lwip_timers.o
                                 0x87 (size before relaxing)
 .rodata.str1.1
                0x00010003      0x1c9 ./Source/lwIP/core/mem.o
                                0x1f1 (size before relaxing)
 .rodata.memp_num
                0x000101cc       0x16 ./Source/lwIP/core/memp.o
 .rodata.str1.1
                0x000101e2       0x7b ./Source/lwIP/core/memp.o
                                 0xa3 (size before relaxing)
 *fill*         0x0001025d        0x1 
 .rodata.memp_sizes
                0x0001025e       0x16 ./Source/lwIP/core/memp.o
 .rodata.str1.1
                0x00010274       0x33 ./Source/lwIP/core/netif.o
                                 0x5b (size before relaxing)
 .rodata.str1.1
                0x000102a7      0x388 ./Source/lwIP/core/pbuf.o
                                0x3ba (size before relaxing)
 *fill*         0x0001062f        0x1 
 .rodata.tcp_pcb_lists
                0x00010630       0x10 ./Source/lwIP/core/tcp.o
                0x00010630                tcp_pcb_lists
 .rodata.tcp_backoff
                0x00010640        0xd ./Source/lwIP/core/tcp.o
                0x00010640                tcp_backoff
 .rodata.str1.1
                0x0001064d      0x2f9 ./Source/lwIP/core/tcp.o
                                0x32f (size before relaxing)
 .rodata.tcp_persist_backoff
                0x00010946        0x7 ./Source/lwIP/core/tcp.o
                0x00010946                tcp_persist_backoff
 .rodata.str1.1
                0x0001094d      0x25b ./Source/lwIP/core/tcp_in.o
                                0x283 (size before relaxing)
 .rodata.str1.1
                0x00010ba8      0x30c ./Source/lwIP/core/tcp_out.o
                                0x334 (size before relaxing)
 .rodata.str1.1
                0x00010eb4      0x28d ./Source/lwIP/api/api_lib.o
                                0x2bf (size before relaxing)
 .rodata.str1.1
                0x00011141      0x366 ./Source/lwIP/api/api_msg.o
                                0x3d5 (size before relaxing)
 *fill*         0x000114a7        0x1 
 .rodata.err_to_errno_table
                0x000114a8       0x40 ./Source/lwIP/api/sockets.o
 .rodata.str1.1
                0x000114e8      0x1ee ./Source/lwIP/api/sockets.o
                                0x216 (size before relaxing)
 .rodata.str1.1
                0x000116d6       0x62 ./Source/lwIP/api/tcpip.o
                                 0x8a (size before relaxing)
 .rodata.xIRQ   0x00011738        0x2 ./Source/FreeRTOS-Products/FreeRTOS-Plus-IO/Device/LPC17xx/FreeRTOS_lpc17xx_ssp.o
 .rodata.str1.1
                0x0001173a       0x35 ./Source/FreeRTOS-Products/FreeRTOS-Plus-IO/Common/FreeRTOS_DriverInterface.o
 *fill*         0x0001176f        0x1 
 .rodata.xAvailablePeripherals
                0x00011770       0x54 ./Source/FreeRTOS-Products/FreeRTOS-Plus-IO/Common/FreeRTOS_DriverInterface.o
 .rodata.xHelpCommand
                0x000117c4       0x10 ./Source/FreeRTOS-Products/FreeRTOS-Plus-CLI/FreeRTOS_CLI.o
 .rodata.str1.1
                0x000117d4       0xdd ./Source/FreeRTOS-Products/FreeRTOS-Plus-CLI/FreeRTOS_CLI.o
 .rodata.str1.1
                0x000118b1       0x42 ./Source/FreeRTOS-Products/FreeRTOS/tasks.o
                                 0x45 (size before relaxing)
 .rodata.ucExpectedStackBytes.4583
                0x000118f3       0x14 ./Source/FreeRTOS-Products/FreeRTOS/tasks.o
 .rodata.str1.1
                0x00011907        0x8 ./Source/FreeRTOS-Products/FreeRTOS/timers.o
 .rodata.str1.1
                0x0001190f        0xf ./Source/FatFS/ff.o
 .rodata        0x0001191e        0x2 ./Source/FatFS/mmc.o
 .rodata.str1.1
                0x00000000        0x7 ./Source/FatFS/mmc.o
 .rodata.xDirCommand
                0x00011920       0x10 ./Source/Examples/SSP/SPI-interface-to-SD-card.o
 .rodata.xCopyCommand
                0x00011930       0x10 ./Source/Examples/SSP/SPI-interface-to-SD-card.o
 .rodata.str1.1
                0x00011940      0x1a8 ./Source/Examples/SSP/SPI-interface-to-SD-card.o
                                0x1aa (size before relaxing)
 .rodata.xDelCommand
                0x00011ae8       0x10 ./Source/Examples/SSP/SPI-interface-to-SD-card.o
 .rodata.str1.1
                0x00011af8        0x8 ./Source/Examples/GPIO/GPIO-output-and-software-timers.o
 .rodata.ucLEDPorts
                0x00011b00        0x2 ./Source/Examples/GPIO/GPIO-output-and-software-timers.o
                0x00011b00                ucLEDPorts
 *fill*         0x00011b02        0x2 
 .rodata.xRunTimeStats
                0x00011b04       0x10 ./Source/main.o
 .rodata.str1.1
                0x00011b14      0x175 ./Source/main.o
 *fill*         0x00011c89        0x3 
 .rodata.xTaskStats
                0x00011c8c       0x10 ./Source/main.o
 .rodata.str1.1
                0x00011c9c        0x7 ./Source/printf-stdarg.o
 *fill*         0x00011ca3        0x1 
 .rodata.EMAC_clkdiv
                0x00011ca4        0x8 /home/froux/MEGA/LPC1769_Repo/LPC_Open_Free_RTOS/lpc17xx.cmsis.driver.library/Debug/liblpc17xx.cmsis.driver.library.a(lpc17xx_emac.o)
                0x00011ca4                EMAC_clkdiv
 .rodata        0x00011cac       0x18 /home/froux/MEGA/LPC1769_Repo/LPC_Open_Free_RTOS/lpc17xx.cmsis.driver.library/Debug/liblpc17xx.cmsis.driver.library.a(lpc17xx_ssp.o)
 .rodata        0x00011cc4       0x1c /home/froux/MEGA/LPC1769_Repo/LPC_Open_Free_RTOS/lpc17xx.cmsis.driver.library/Debug/liblpc17xx.cmsis.driver.library.a(lpc17xx_uart.o)
 .rodata.str1.1
                0x00000000        0x7 /usr/local/lpcxpresso_7.7.2_379/lpcxpresso/tools/bin/../lib/gcc/arm-none-eabi/4.9.3/../../../../arm-none-eabi/lib/armv7-m/libcr_c.a(initio.o)
                                  0x4 (size before relaxing)
 .rodata.str1.1
                0x00011ce0       0x18 /usr/local/lpcxpresso_7.7.2_379/lpcxpresso/tools/bin/../lib/gcc/arm-none-eabi/4.9.3/../../../../arm-none-eabi/lib/armv7-m/libcr_c.a(alloc.o)
                0x00011cf8                . = ALIGN (0x4)

.glue_7         0x00011cf8        0x0
 .glue_7        0x00000000        0x0 linker stubs

.glue_7t        0x00011cf8        0x0
 .glue_7t       0x00000000        0x0 linker stubs

.vfp11_veneer   0x00011cf8        0x0
 .vfp11_veneer  0x00000000        0x0 linker stubs

.v4_bx          0x00011cf8        0x0
 .v4_bx         0x00000000        0x0 linker stubs

.iplt           0x00011cf8        0x0
 .iplt          0x00000000        0x0 ./Source/lwIP/netif/etharp.o

.rel.dyn        0x00011cf8        0x0
 .rel.iplt      0x00000000        0x0 ./Source/lwIP/netif/etharp.o

.ARM.extab
 *(.ARM.extab* .gnu.linkonce.armextab.*)
                0x00011cf8                __exidx_start = .

.ARM.exidx
 *(.ARM.exidx* .gnu.linkonce.armexidx.*)
                0x00011cf8                __exidx_end = .
                0x00011cf8                _etext = .

.data_RAM2      0x2007c000        0x0 load address 0x00011cf8
 FILL mask 0xff
                0x2007c000                PROVIDE (__start_data_RAM2, .)
 *(.ramfunc.$RAM2)
 *(.ramfunc.$RamAHB32)
 *(.data.$RAM2*)
 *(.data.$RamAHB32*)
                0x2007c000                . = ALIGN (0x4)
                0x2007c000                PROVIDE (__end_data_RAM2, .)

.uninit_RESERVED
                0x10000000        0x0
 *(.bss.$RESERVED*)
                0x10000000                . = ALIGN (0x4)
                0x10000000                _end_uninit_RESERVED = .

.data           0x10000000       0x3c load address 0x00011cf8
 FILL mask 0xff
                0x10000000                _data = .
 *(vtable)
 *(.ramfunc*)
 *(.data*)
 .data.pccSSITags
                0x10000000        0x8 ./Source/lwIP/lwIP_Apps/lwIP_Apps.o
 .data.iss.5318
                0x10000008        0x4 ./Source/lwIP/core/tcp.o
 .data.port.5186
                0x1000000c        0x2 ./Source/lwIP/core/tcp.o
 *fill*         0x1000000e        0x2 
 .data.xFreeBytesRemaining
                0x10000010        0x4 ./Source/MemMang/heap_2.o
 .data.uxCriticalNesting
                0x10000014        0x4 ./Source/FreeRTOS-Products/FreeRTOS/portable/GCC/ARM_CM3/port.o
 .data.pxLastCommandInList.4114
                0x10000018        0x4 ./Source/FreeRTOS-Products/FreeRTOS-Plus-CLI/FreeRTOS_CLI.o
 .data.xRegisteredCommands
                0x1000001c        0x8 ./Source/FreeRTOS-Products/FreeRTOS-Plus-CLI/FreeRTOS_CLI.o
 .data.xNextTaskUnblockTime
                0x10000024        0x4 ./Source/FreeRTOS-Products/FreeRTOS/tasks.o
 .data.xDiskStatus
                0x10000028        0x1 ./Source/FatFS/mmc.o
 *fill*         0x10000029        0x3 
 .data.ulLEDBits
                0x1000002c        0x8 ./Source/Examples/GPIO/GPIO-output-and-software-timers.o
                0x1000002c                ulLEDBits
 .data.ucState.5704
                0x10000034        0x1 ./Source/Examples/GPIO/GPIO-output-and-software-timers.o
 *fill*         0x10000035        0x3 
 .data.SystemCoreClock
                0x10000038        0x4 /home/froux/MEGA/LPC1769_Repo/LPC_Open_Free_RTOS/CMSISv2p00_LPC17xx/Debug/libCMSISv2p00_LPC17xx.a(system_LPC17xx.o)
                0x10000038                SystemCoreClock
                0x1000003c                . = ALIGN (0x4)
                0x1000003c                _edata = .

.igot.plt       0x1000003c        0x0 load address 0x00011d34
 .igot.plt      0x00000000        0x0 ./Source/lwIP/netif/etharp.o

.bss_RAM2       0x2007c000        0x0
                0x2007c000                PROVIDE (__start_bss_RAM2, .)
 *(.bss.$RAM2*)
 *(.bss.$RamAHB32*)
                0x2007c000                . = ALIGN (0x4)
                0x2007c000                PROVIDE (__end_bss_RAM2, .)

.bss            0x10000040     0x4a04
                0x10000040                _bss = .
 *(.bss*)
 .bss.etharp_cached_entry
                0x10000040        0x1 ./Source/lwIP/netif/etharp.o
 *fill*         0x10000041        0x3 
 .bss.arp_table
                0x10000044       0xa0 ./Source/lwIP/netif/etharp.o
 .bss.pxNetIfInUse
                0x100000e4        0x4 ./Source/lwIP/netif/ethernetif.o
 .bss.xInsideISR
                0x100000e8        0x4 ./Source/lwIP/netif/sys_arch.o
                0x100000e8                xInsideISR
 .bss.g_pfnSSIHandler
                0x100000ec        0x4 ./Source/lwIP/lwIP_Apps/apps/httpserver_raw/httpd.o
                0x100000ec                g_pfnSSIHandler
 .bss.g_ppcTags
                0x100000f0        0x4 ./Source/lwIP/lwIP_Apps/apps/httpserver_raw/httpd.o
                0x100000f0                g_ppcTags
 .bss.g_iNumTags
                0x100000f4        0x4 ./Source/lwIP/lwIP_Apps/apps/httpserver_raw/httpd.o
                0x100000f4                g_iNumTags
 .bss.cLastInputString.4554
                0x100000f8       0x22 ./Source/lwIP/lwIP_Apps/apps/BasicSocketCommandServer/BasicSocketCommandServer.o
 .bss.cInputString.4553
                0x1000011a       0x22 ./Source/lwIP/lwIP_Apps/apps/BasicSocketCommandServer/BasicSocketCommandServer.o
 .bss.uiUpdateCount.5076
                0x1000013c        0x4 ./Source/lwIP/lwIP_Apps/lwIP_Apps.o
 .bss.cUpdateString.5077
                0x10000140       0xc8 ./Source/lwIP/lwIP_Apps/lwIP_Apps.o
 .bss.xNetIf.5069
                0x10000208       0x30 ./Source/lwIP/lwIP_Apps/lwIP_Apps.o
 .bss.ip_id     0x10000238        0x2 ./Source/lwIP/core/ipv4/ip.o
 *fill*         0x1000023a        0x2 
 .bss.tcpip_tcp_timer_active
                0x1000023c        0x4 ./Source/lwIP/core/lwip_timers.o
 .bss.next_timeout
                0x10000240        0x4 ./Source/lwIP/core/lwip_timers.o
 .bss.lfree     0x10000244        0x4 ./Source/lwIP/core/mem.o
 .bss.ram_end   0x10000248        0x4 ./Source/lwIP/core/mem.o
 .bss.mem_mutex
                0x1000024c        0x4 ./Source/lwIP/core/mem.o
 .bss.ram       0x10000250        0x4 ./Source/lwIP/core/mem.o
 .bss.memp_memory
                0x10000254     0x19e3 ./Source/lwIP/core/memp.o
 *fill*         0x10001c37        0x1 
 .bss.memp_tab  0x10001c38       0x2c ./Source/lwIP/core/memp.o
 .bss.netifnum.5057
                0x10001c64        0x1 ./Source/lwIP/core/netif.o
 .bss.tcp_timer
                0x10001c65        0x1 ./Source/lwIP/core/tcp.o
 *fill*         0x10001c66        0x2 
 .bss.seqno     0x10001c68        0x4 ./Source/lwIP/core/tcp_in.o
 .bss.iphdr     0x10001c6c        0x4 ./Source/lwIP/core/tcp_in.o
 .bss.tcplen    0x10001c70        0x2 ./Source/lwIP/core/tcp_in.o
 *fill*         0x10001c72        0x2 
 .bss.ackno     0x10001c74        0x4 ./Source/lwIP/core/tcp_in.o
 .bss.flags     0x10001c78        0x1 ./Source/lwIP/core/tcp_in.o
 .bss.recv_flags
                0x10001c79        0x1 ./Source/lwIP/core/tcp_in.o
 *fill*         0x10001c7a        0x2 
 .bss.tcphdr    0x10001c7c        0x4 ./Source/lwIP/core/tcp_in.o
 .bss.recv_data
                0x10001c80        0x4 ./Source/lwIP/core/tcp_in.o
 .bss.inseg     0x10001c84       0x10 ./Source/lwIP/core/tcp_in.o
 .bss.select_cb_list
                0x10001c94        0x4 ./Source/lwIP/api/sockets.o
 .bss.sockets   0x10001c98       0xf0 ./Source/lwIP/api/sockets.o
 .bss.select_cb_ctr
                0x10001d88        0x4 ./Source/lwIP/api/sockets.o
 .bss.mbox      0x10001d8c        0x4 ./Source/lwIP/api/tcpip.o
 .bss.tcpip_init_done_arg
                0x10001d90        0x4 ./Source/lwIP/api/tcpip.o
 .bss.tcpip_init_done
                0x10001d94        0x4 ./Source/lwIP/api/tcpip.o
 .bss.xStart    0x10001d98        0x8 ./Source/MemMang/heap_2.o
 .bss.xHeapHasBeenInitialised.4119
                0x10001da0        0x4 ./Source/MemMang/heap_2.o
 .bss.xEnd      0x10001da4        0x8 ./Source/MemMang/heap_2.o
 .bss.xSSPConfigurations
                0x10001dac       0x30 ./Source/FreeRTOS-Products/FreeRTOS-Plus-IO/Device/LPC17xx/FreeRTOS_lpc17xx_ssp.o
 .bss.ulReceiveActive
                0x10001ddc        0x8 ./Source/FreeRTOS-Products/FreeRTOS-Plus-IO/Device/LPC17xx/FreeRTOS_lpc17xx_ssp.o
 .bss.pxRxTransferControlStructs
                0x10001de4        0x8 ./Source/FreeRTOS-Products/FreeRTOS-Plus-IO/Device/LPC17xx/FreeRTOS_lpc17xx_ssp.o
 .bss.pxTxTransferControlStructs
                0x10001dec        0x8 ./Source/FreeRTOS-Products/FreeRTOS-Plus-IO/Device/LPC17xx/FreeRTOS_lpc17xx_ssp.o
 .bss.pxRxTransferControlStructs
                0x10001df4       0x10 ./Source/FreeRTOS-Products/FreeRTOS-Plus-IO/Device/LPC17xx/FreeRTOS_lpc17xx_uart.o
 .bss.pxTxTransferControlStructs
                0x10001e04       0x10 ./Source/FreeRTOS-Products/FreeRTOS-Plus-IO/Device/LPC17xx/FreeRTOS_lpc17xx_uart.o
 .bss.cOutputBuffer
                0x10001e14      0x400 ./Source/FreeRTOS-Products/FreeRTOS-Plus-CLI/FreeRTOS_CLI.o
 .bss.pxCommand.4124
                0x10002214        0x4 ./Source/FreeRTOS-Products/FreeRTOS-Plus-CLI/FreeRTOS_CLI.o
 .bss.pxCommand.4158
                0x10002218        0x4 ./Source/FreeRTOS-Products/FreeRTOS-Plus-CLI/FreeRTOS_CLI.o
 .bss.uxTopReadyPriority
                0x1000221c        0x4 ./Source/FreeRTOS-Products/FreeRTOS/tasks.o
 .bss.uxTasksDeleted
                0x10002220        0x4 ./Source/FreeRTOS-Products/FreeRTOS/tasks.o
 .bss.xTickCount
                0x10002224        0x4 ./Source/FreeRTOS-Products/FreeRTOS/tasks.o
 .bss.pxReadyTasksLists
                0x10002228       0x64 ./Source/FreeRTOS-Products/FreeRTOS/tasks.o
 .bss.pxOverflowDelayedTaskList
                0x1000228c        0x4 ./Source/FreeRTOS-Products/FreeRTOS/tasks.o
 .bss.pcStatusString.4673
                0x10002290       0x2a ./Source/FreeRTOS-Products/FreeRTOS/tasks.o
 *fill*         0x100022ba        0x2 
 .bss.xTasksWaitingTermination
                0x100022bc       0x14 ./Source/FreeRTOS-Products/FreeRTOS/tasks.o
 .bss.pxDelayedTaskList
                0x100022d0        0x4 ./Source/FreeRTOS-Products/FreeRTOS/tasks.o
 .bss.uxCurrentNumberOfTasks
                0x100022d4        0x4 ./Source/FreeRTOS-Products/FreeRTOS/tasks.o
 .bss.xPendingReadyList
                0x100022d8       0x14 ./Source/FreeRTOS-Products/FreeRTOS/tasks.o
 .bss.xSchedulerRunning
                0x100022ec        0x4 ./Source/FreeRTOS-Products/FreeRTOS/tasks.o
 .bss.ulTaskSwitchedInTime
                0x100022f0        0x4 ./Source/FreeRTOS-Products/FreeRTOS/tasks.o
 .bss.xMissedYield
                0x100022f4        0x4 ./Source/FreeRTOS-Products/FreeRTOS/tasks.o
 .bss.pxCurrentTCB
                0x100022f8        0x4 ./Source/FreeRTOS-Products/FreeRTOS/tasks.o
                0x100022f8                pxCurrentTCB
 .bss.pcStatsString
                0x100022fc       0x32 ./Source/FreeRTOS-Products/FreeRTOS/tasks.o
 *fill*         0x1000232e        0x2 
 .bss.xSuspendedTaskList
                0x10002330       0x14 ./Source/FreeRTOS-Products/FreeRTOS/tasks.o
 .bss.xDelayedTaskList1
                0x10002344       0x14 ./Source/FreeRTOS-Products/FreeRTOS/tasks.o
 .bss.xDelayedTaskList2
                0x10002358       0x14 ./Source/FreeRTOS-Products/FreeRTOS/tasks.o
 .bss.uxTaskNumber
                0x1000236c        0x4 ./Source/FreeRTOS-Products/FreeRTOS/tasks.o
 .bss.uxSchedulerSuspended
                0x10002370        0x4 ./Source/FreeRTOS-Products/FreeRTOS/tasks.o
 .bss.uxMissedTicks
                0x10002374        0x4 ./Source/FreeRTOS-Products/FreeRTOS/tasks.o
 .bss.xNumOfOverflows
                0x10002378        0x4 ./Source/FreeRTOS-Products/FreeRTOS/tasks.o
 .bss.uxTopUsedPriority
                0x1000237c        0x4 ./Source/FreeRTOS-Products/FreeRTOS/tasks.o
 .bss.pxCurrentTimerList
                0x10002380        0x4 ./Source/FreeRTOS-Products/FreeRTOS/timers.o
 .bss.xActiveTimerList1
                0x10002384       0x14 ./Source/FreeRTOS-Products/FreeRTOS/timers.o
 .bss.xActiveTimerList2
                0x10002398       0x14 ./Source/FreeRTOS-Products/FreeRTOS/timers.o
 .bss.xLastTime.4191
                0x100023ac        0x4 ./Source/FreeRTOS-Products/FreeRTOS/timers.o
 .bss.xTimerQueue
                0x100023b0        0x4 ./Source/FreeRTOS-Products/FreeRTOS/timers.o
 .bss.pxOverflowTimerList
                0x100023b4        0x4 ./Source/FreeRTOS-Products/FreeRTOS/timers.o
 .bss.Fsid      0x100023b8        0x2 ./Source/FatFS/ff.o
 *fill*         0x100023ba        0x2 
 .bss.FatFs     0x100023bc        0x4 ./Source/FatFS/ff.o
 .bss.xLocalSPIPort.5896
                0x100023c0        0x4 ./Source/FatFS/mmc.o
 .bss.xSPIPort  0x100023c4        0x4 ./Source/FatFS/mmc.o
 .bss.ucInsertedCardType
                0x100023c8        0x1 ./Source/FatFS/mmc.o
 *fill*         0x100023c9        0x3 
 .bss.xFatfs    0x100023cc      0x234 ./Source/Examples/SSP/SPI-interface-to-SD-card.o
 .bss.xRamBufferMutex
                0x10002600        0x4 ./Source/Examples/SSP/SPI-interface-to-SD-card.o
 .bss.xCommandLineFile1
                0x10002604      0x224 ./Source/Examples/SSP/SPI-interface-to-SD-card.o
 .bss.xCommandLineFile2
                0x10002828      0x224 ./Source/Examples/SSP/SPI-interface-to-SD-card.o
 .bss.cFileName.6314
                0x10002a4c        0xd ./Source/Examples/SSP/SPI-interface-to-SD-card.o
 *fill*         0x10002a59        0x3 
 .bss.xDirectoryOpen.6331
                0x10002a5c        0x4 ./Source/Examples/SSP/SPI-interface-to-SD-card.o
 .bss.cRAMBuffer
                0x10002a60      0x7d0 ./Source/Examples/SSP/SPI-interface-to-SD-card.o
 .bss.xDirectory.6333
                0x10003230       0x1c ./Source/Examples/SSP/SPI-interface-to-SD-card.o
 .bss.xFileInfo.6332
                0x1000324c       0x18 ./Source/Examples/SSP/SPI-interface-to-SD-card.o
 .bss.ucLED.5703
                0x10003264        0x1 ./Source/Examples/GPIO/GPIO-output-and-software-timers.o
 *fill*         0x10003265        0x3 
 .bss.xGPIOTimer
                0x10003268        0x4 ./Source/Examples/GPIO/GPIO-output-and-software-timers.o
 .bss.ulEMACTxBufferStart
                0x1000326c        0x4 ./Source/main.o
 .bss.ulEMACRxBufferStart
                0x10003270        0x4 ./Source/main.o
 .bss.pucFreeRTOSHeap
                0x10003274        0x4 ./Source/main.o
                0x10003274                pucFreeRTOSHeap
 .bss.ulClocksPer10thOfAMilliSecond
                0x10003278        0x4 ./Source/main.o
 .bss.Rx_Desc   0x1000327c       0x20 /home/froux/MEGA/LPC1769_Repo/LPC_Open_Free_RTOS/lpc17xx.cmsis.driver.library/Debug/liblpc17xx.cmsis.driver.library.a(lpc17xx_emac.o)
 *fill*         0x1000329c        0x4 
 .bss.Rx_Stat   0x100032a0       0x20 /home/froux/MEGA/LPC1769_Repo/LPC_Open_Free_RTOS/lpc17xx.cmsis.driver.library/Debug/liblpc17xx.cmsis.driver.library.a(lpc17xx_emac.o)
 .bss.Tx_Desc   0x100032c0       0x18 /home/froux/MEGA/LPC1769_Repo/LPC_Open_Free_RTOS/lpc17xx.cmsis.driver.library/Debug/liblpc17xx.cmsis.driver.library.a(lpc17xx_emac.o)
 .bss.Tx_Stat   0x100032d8        0xc /home/froux/MEGA/LPC1769_Repo/LPC_Open_Free_RTOS/lpc17xx.cmsis.driver.library/Debug/liblpc17xx.cmsis.driver.library.a(lpc17xx_emac.o)
 .bss.errno     0x100032e4        0x4 /usr/local/lpcxpresso_7.7.2_379/lpcxpresso/tools/bin/../lib/gcc/arm-none-eabi/4.9.3/../../../../arm-none-eabi/lib/armv7-m/libcr_c.a(errno.o)
                0x100032e4                errno
 *(COMMON)
 COMMON         0x100032e8       0xf0 ./Source/lwIP/lwIP_Apps/apps/httpserver_raw/fs.o
                0x100032e8                fs_memory
 COMMON         0x100033d8       0x10 ./Source/lwIP/core/ipv4/ip.o
                0x100033d8                current_iphdr_src
                0x100033dc                current_netif
                0x100033e0                current_iphdr_dest
                0x100033e4                current_header
 COMMON         0x100033e8     0x1414 ./Source/lwIP/core/mem.o
                0x100033e8                ram_heap
 COMMON         0x100047fc        0x8 ./Source/lwIP/core/netif.o
                0x100047fc                netif_list
                0x10004800                netif_default
 COMMON         0x10004804       0x18 ./Source/lwIP/core/tcp.o
                0x10004804                tcp_active_pcbs
                0x10004808                tcp_ticks
                0x1000480c                tcp_listen_pcbs
                0x10004810                tcp_tmp_pcb
                0x10004814                tcp_bound_pcbs
                0x10004818                tcp_tw_pcbs
 COMMON         0x1000481c        0x4 ./Source/lwIP/core/tcp_in.o
                0x1000481c                tcp_input_pcb
 COMMON         0x10004820       0x50 ./Source/FreeRTOS-Products/FreeRTOS/queue.o
                0x10004820                xQueueRegistry
 COMMON         0x10004870        0x4 /usr/local/lpcxpresso_7.7.2_379/lpcxpresso/tools/bin/../lib/gcc/arm-none-eabi/4.9.3/../../../../arm-none-eabi/lib/armv7-m/libcr_c.a(initio.o)
                0x10004870                _extra
 COMMON         0x10004874      0x140 /usr/local/lpcxpresso_7.7.2_379/lpcxpresso/tools/bin/../lib/gcc/arm-none-eabi/4.9.3/../../../../arm-none-eabi/lib/armv7-m/libcr_c.a(stdio.o)
                0x10004874                __Ciob
 COMMON         0x100049b4       0x88 /usr/local/lpcxpresso_7.7.2_379/lpcxpresso/tools/bin/../lib/gcc/arm-none-eabi/4.9.3/../../../../arm-none-eabi/lib/armv7-m/libcr_c.a(stdlib.o)
                0x100049b4                _exitvector
                0x10004a38                _number_of_exit_functions
 COMMON         0x10004a3c        0x8 /usr/local/lpcxpresso_7.7.2_379/lpcxpresso/tools/bin/../lib/gcc/arm-none-eabi/4.9.3/../../../../arm-none-eabi/lib/armv7-m/libcr_c.a(__init_alloc.o)
                0x10004a3c                __heaps
                0x10004a40                __end_of_heap
                0x10004a44                . = ALIGN (0x4)
                0x10004a44                _ebss = .
                0x10004a44                PROVIDE (end, .)

.noinit_RAM2    0x2007c000        0x0
 *(.noinit.$RAM2*)
 *(.noinit.$RamAHB32*)
                0x2007c000                . = ALIGN (0x4)

.noinit         0x10004a44        0x0
                0x10004a44                _noinit = .
 *(.noinit*)
                0x10004a44                . = ALIGN (0x4)
                0x10004a44                _end_noinit = .
                0x10004a44                PROVIDE (_pvHeapStart, DEFINED (__user_heap_base)?__user_heap_base:.)
                0x10008000                PROVIDE (_vStackTop, DEFINED (__user_stack_top)?__user_stack_top:(__top_RamLoc32 - 0x0))
OUTPUT(FreeRTOS-Plus-Demo-2.axf elf32-littlearm)

.debug_info     0x00000000    0x30051
 .debug_info    0x00000000     0x181c ./Source/lwIP/netif/etharp.o
 .debug_info    0x0000181c     0x12ec ./Source/lwIP/netif/ethernetif.o
 .debug_info    0x00002b08      0xac2 ./Source/lwIP/netif/sys_arch.o
 .debug_info    0x000035ca      0x4e3 ./Source/lwIP/lwIP_Apps/apps/httpserver_raw/fs.o
 .debug_info    0x00003aad     0x1fad ./Source/lwIP/lwIP_Apps/apps/httpserver_raw/httpd.o
 .debug_info    0x00005a5a      0x7ba ./Source/lwIP/lwIP_Apps/apps/BasicSocketCommandServer/BasicSocketCommandServer.o
 .debug_info    0x00006214      0x716 ./Source/lwIP/lwIP_Apps/lwIP_Apps.o
 .debug_info    0x0000692a      0xb56 ./Source/lwIP/core/ipv4/icmp.o
 .debug_info    0x00007480      0x59e ./Source/lwIP/core/ipv4/inet_chksum.o
 .debug_info    0x00007a1e      0xa9d ./Source/lwIP/core/ipv4/ip.o
 .debug_info    0x000084bb      0x6ee ./Source/lwIP/core/ipv4/ip_addr.o
 .debug_info    0x00008ba9      0x14d ./Source/lwIP/core/def.o
 .debug_info    0x00008cf6       0xfd ./Source/lwIP/core/init.o
 .debug_info    0x00008df3      0xb21 ./Source/lwIP/core/lwip_timers.o
 .debug_info    0x00009914      0xa84 ./Source/lwIP/core/mem.o
 .debug_info    0x0000a398      0x4aa ./Source/lwIP/core/memp.o
 .debug_info    0x0000a842      0xdf3 ./Source/lwIP/core/netif.o
 .debug_info    0x0000b635     0x15da ./Source/lwIP/core/pbuf.o
 .debug_info    0x0000cc0f     0x202e ./Source/lwIP/core/tcp.o
 .debug_info    0x0000ec3d     0x1b2b ./Source/lwIP/core/tcp_in.o
 .debug_info    0x00010768     0x203e ./Source/lwIP/core/tcp_out.o
 .debug_info    0x000127a6     0x1d7e ./Source/lwIP/api/api_lib.o
 .debug_info    0x00014524     0x267c ./Source/lwIP/api/api_msg.o
 .debug_info    0x00016ba0      0x88f ./Source/lwIP/api/netbuf.o
 .debug_info    0x0001742f     0x2e4d ./Source/lwIP/api/sockets.o
 .debug_info    0x0001a27c      0xfbd ./Source/lwIP/api/tcpip.o
 .debug_info    0x0001b239      0x2df ./Source/MemMang/heap_2.o
 .debug_info    0x0001b518      0x27a ./Source/FreeRTOS-Products/FreeRTOS/portable/GCC/ARM_CM3/port.o
 .debug_info    0x0001b792      0x2f0 ./Source/FreeRTOS-Products/FreeRTOS-Plus-IO/Device/LPC17xx/FreeRTOS_lpc17xx_DriverInterface.o
 .debug_info    0x0001ba82     0x19be ./Source/FreeRTOS-Products/FreeRTOS-Plus-IO/Device/LPC17xx/FreeRTOS_lpc17xx_ssp.o
 .debug_info    0x0001d440     0x12d6 ./Source/FreeRTOS-Products/FreeRTOS-Plus-IO/Device/LPC17xx/FreeRTOS_lpc17xx_uart.o
 .debug_info    0x0001e716      0xd10 ./Source/FreeRTOS-Products/FreeRTOS-Plus-IO/Common/FreeRTOS_DriverInterface.o
 .debug_info    0x0001f426      0x2d5 ./Source/FreeRTOS-Products/FreeRTOS-Plus-IO/Common/FreeRTOS_IOUtils.o
 .debug_info    0x0001f6fb      0x82a ./Source/FreeRTOS-Products/FreeRTOS-Plus-IO/Common/IOUtils_CharQueueTxAndRx.o
 .debug_info    0x0001ff25      0x610 ./Source/FreeRTOS-Products/FreeRTOS-Plus-IO/Common/IOUtils_CircularBufferRx.o
 .debug_info    0x00020535      0x565 ./Source/FreeRTOS-Products/FreeRTOS-Plus-IO/Common/IOUtils_ZeroCopyTx.o
 .debug_info    0x00020a9a      0x553 ./Source/FreeRTOS-Products/FreeRTOS-Plus-CLI/FreeRTOS_CLI.o
 .debug_info    0x00020fed      0x27d ./Source/FreeRTOS-Products/FreeRTOS/list.o
 .debug_info    0x0002126a     0x1256 ./Source/FreeRTOS-Products/FreeRTOS/queue.o
 .debug_info    0x000224c0     0x1eb9 ./Source/FreeRTOS-Products/FreeRTOS/tasks.o
 .debug_info    0x00024379      0xe4d ./Source/FreeRTOS-Products/FreeRTOS/timers.o
 .debug_info    0x000251c6     0x2ded ./Source/FatFS/ff.o
 .debug_info    0x00027fb3     0x11d3 ./Source/FatFS/mmc.o
 .debug_info    0x00029186      0x25f ./Source/FatFS/syscall.o
 .debug_info    0x000293e5     0x15f2 ./Source/Examples/SSP/SPI-interface-to-SD-card.o
 .debug_info    0x0002a9d7      0x32e ./Source/Examples/GPIO/GPIO-output-and-software-timers.o
 .debug_info    0x0002ad05      0x360 ./Source/cr_startup_lpc176x.o
 .debug_info    0x0002b065      0x916 ./Source/main.o
 .debug_info    0x0002b97b      0x50f ./Source/printf-stdarg.o
 .debug_info    0x0002be8a      0xd2a /home/froux/MEGA/LPC1769_Repo/LPC_Open_Free_RTOS/lpc17xx.cmsis.driver.library/Debug/liblpc17xx.cmsis.driver.library.a(lpc17xx_emac.o)
 .debug_info    0x0002cbb4      0xd78 /home/froux/MEGA/LPC1769_Repo/LPC_Open_Free_RTOS/lpc17xx.cmsis.driver.library/Debug/liblpc17xx.cmsis.driver.library.a(lpc17xx_gpio.o)
 .debug_info    0x0002d92c       0xd3 /home/froux/MEGA/LPC1769_Repo/LPC_Open_Free_RTOS/lpc17xx.cmsis.driver.library/Debug/liblpc17xx.cmsis.driver.library.a(lpc17xx_libcfg_default.o)
 .debug_info    0x0002d9ff      0x455 /home/froux/MEGA/LPC1769_Repo/LPC_Open_Free_RTOS/lpc17xx.cmsis.driver.library/Debug/liblpc17xx.cmsis.driver.library.a(lpc17xx_pinsel.o)
 .debug_info    0x0002de54      0x70c /home/froux/MEGA/LPC1769_Repo/LPC_Open_Free_RTOS/lpc17xx.cmsis.driver.library/Debug/liblpc17xx.cmsis.driver.library.a(lpc17xx_ssp.o)
 .debug_info    0x0002e560     0x11ba /home/froux/MEGA/LPC1769_Repo/LPC_Open_Free_RTOS/lpc17xx.cmsis.driver.library/Debug/liblpc17xx.cmsis.driver.library.a(lpc17xx_uart.o)
 .debug_info    0x0002f71a      0x61f /home/froux/MEGA/LPC1769_Repo/LPC_Open_Free_RTOS/lpc17xx.cmsis.driver.library/Debug/liblpc17xx.cmsis.driver.library.a(lpc17xx_clkpwr.o)
 .debug_info    0x0002fd39      0x318 /home/froux/MEGA/LPC1769_Repo/LPC_Open_Free_RTOS/CMSISv2p00_LPC17xx/Debug/libCMSISv2p00_LPC17xx.a(system_LPC17xx.o)

.debug_abbrev   0x00000000     0x838a
 .debug_abbrev  0x00000000      0x3a1 ./Source/lwIP/netif/etharp.o
 .debug_abbrev  0x000003a1      0x444 ./Source/lwIP/netif/ethernetif.o
 .debug_abbrev  0x000007e5      0x233 ./Source/lwIP/netif/sys_arch.o
 .debug_abbrev  0x00000a18      0x22e ./Source/lwIP/lwIP_Apps/apps/httpserver_raw/fs.o
 .debug_abbrev  0x00000c46      0x3d0 ./Source/lwIP/lwIP_Apps/apps/httpserver_raw/httpd.o
 .debug_abbrev  0x00001016      0x16d ./Source/lwIP/lwIP_Apps/apps/BasicSocketCommandServer/BasicSocketCommandServer.o
 .debug_abbrev  0x00001183      0x1a5 ./Source/lwIP/lwIP_Apps/lwIP_Apps.o
 .debug_abbrev  0x00001328      0x28b ./Source/lwIP/core/ipv4/icmp.o
 .debug_abbrev  0x000015b3      0x1a5 ./Source/lwIP/core/ipv4/inet_chksum.o
 .debug_abbrev  0x00001758      0x27b ./Source/lwIP/core/ipv4/ip.o
 .debug_abbrev  0x000019d3      0x21f ./Source/lwIP/core/ipv4/ip_addr.o
 .debug_abbrev  0x00001bf2       0xd6 ./Source/lwIP/core/def.o
 .debug_abbrev  0x00001cc8       0x82 ./Source/lwIP/core/init.o
 .debug_abbrev  0x00001d4a      0x281 ./Source/lwIP/core/lwip_timers.o
 .debug_abbrev  0x00001fcb      0x25d ./Source/lwIP/core/mem.o
 .debug_abbrev  0x00002228      0x1cc ./Source/lwIP/core/memp.o
 .debug_abbrev  0x000023f4      0x351 ./Source/lwIP/core/netif.o
 .debug_abbrev  0x00002745      0x25e ./Source/lwIP/core/pbuf.o
 .debug_abbrev  0x000029a3      0x45e ./Source/lwIP/core/tcp.o
 .debug_abbrev  0x00002e01      0x3a8 ./Source/lwIP/core/tcp_in.o
 .debug_abbrev  0x000031a9      0x3d5 ./Source/lwIP/core/tcp_out.o
 .debug_abbrev  0x0000357e      0x387 ./Source/lwIP/api/api_lib.o
 .debug_abbrev  0x00003905      0x39d ./Source/lwIP/api/api_msg.o
 .debug_abbrev  0x00003ca2      0x1b6 ./Source/lwIP/api/netbuf.o
 .debug_abbrev  0x00003e58      0x3ce ./Source/lwIP/api/sockets.o
 .debug_abbrev  0x00004226      0x2a9 ./Source/lwIP/api/tcpip.o
 .debug_abbrev  0x000044cf      0x19b ./Source/MemMang/heap_2.o
 .debug_abbrev  0x0000466a      0x197 ./Source/FreeRTOS-Products/FreeRTOS/portable/GCC/ARM_CM3/port.o
 .debug_abbrev  0x00004801      0x11f ./Source/FreeRTOS-Products/FreeRTOS-Plus-IO/Device/LPC17xx/FreeRTOS_lpc17xx_DriverInterface.o
 .debug_abbrev  0x00004920      0x359 ./Source/FreeRTOS-Products/FreeRTOS-Plus-IO/Device/LPC17xx/FreeRTOS_lpc17xx_ssp.o
 .debug_abbrev  0x00004c79      0x35f ./Source/FreeRTOS-Products/FreeRTOS-Plus-IO/Device/LPC17xx/FreeRTOS_lpc17xx_uart.o
 .debug_abbrev  0x00004fd8      0x243 ./Source/FreeRTOS-Products/FreeRTOS-Plus-IO/Common/FreeRTOS_DriverInterface.o
 .debug_abbrev  0x0000521b      0x109 ./Source/FreeRTOS-Products/FreeRTOS-Plus-IO/Common/FreeRTOS_IOUtils.o
 .debug_abbrev  0x00005324      0x1cc ./Source/FreeRTOS-Products/FreeRTOS-Plus-IO/Common/IOUtils_CharQueueTxAndRx.o
 .debug_abbrev  0x000054f0      0x19f ./Source/FreeRTOS-Products/FreeRTOS-Plus-IO/Common/IOUtils_CircularBufferRx.o
 .debug_abbrev  0x0000568f      0x17b ./Source/FreeRTOS-Products/FreeRTOS-Plus-IO/Common/IOUtils_ZeroCopyTx.o
 .debug_abbrev  0x0000580a      0x23e ./Source/FreeRTOS-Products/FreeRTOS-Plus-CLI/FreeRTOS_CLI.o
 .debug_abbrev  0x00005a48       0xdd ./Source/FreeRTOS-Products/FreeRTOS/list.o
 .debug_abbrev  0x00005b25      0x2ae ./Source/FreeRTOS-Products/FreeRTOS/queue.o
 .debug_abbrev  0x00005dd3      0x395 ./Source/FreeRTOS-Products/FreeRTOS/tasks.o
 .debug_abbrev  0x00006168      0x2db ./Source/FreeRTOS-Products/FreeRTOS/timers.o
 .debug_abbrev  0x00006443      0x319 ./Source/FatFS/ff.o
 .debug_abbrev  0x0000675c      0x353 ./Source/FatFS/mmc.o
 .debug_abbrev  0x00006aaf      0x109 ./Source/FatFS/syscall.o
 .debug_abbrev  0x00006bb8      0x311 ./Source/Examples/SSP/SPI-interface-to-SD-card.o
 .debug_abbrev  0x00006ec9      0x182 ./Source/Examples/GPIO/GPIO-output-and-software-timers.o
 .debug_abbrev  0x0000704b      0x141 ./Source/cr_startup_lpc176x.o
 .debug_abbrev  0x0000718c      0x376 ./Source/main.o
 .debug_abbrev  0x00007502      0x1c9 ./Source/printf-stdarg.o
 .debug_abbrev  0x000076cb      0x27d /home/froux/MEGA/LPC1769_Repo/LPC_Open_Free_RTOS/lpc17xx.cmsis.driver.library/Debug/liblpc17xx.cmsis.driver.library.a(lpc17xx_emac.o)
 .debug_abbrev  0x00007948      0x20f /home/froux/MEGA/LPC1769_Repo/LPC_Open_Free_RTOS/lpc17xx.cmsis.driver.library/Debug/liblpc17xx.cmsis.driver.library.a(lpc17xx_gpio.o)
 .debug_abbrev  0x00007b57       0x6c /home/froux/MEGA/LPC1769_Repo/LPC_Open_Free_RTOS/lpc17xx.cmsis.driver.library/Debug/liblpc17xx.cmsis.driver.library.a(lpc17xx_libcfg_default.o)
 .debug_abbrev  0x00007bc3      0x141 /home/froux/MEGA/LPC1769_Repo/LPC_Open_Free_RTOS/lpc17xx.cmsis.driver.library/Debug/liblpc17xx.cmsis.driver.library.a(lpc17xx_pinsel.o)
 .debug_abbrev  0x00007d04      0x1c5 /home/froux/MEGA/LPC1769_Repo/LPC_Open_Free_RTOS/lpc17xx.cmsis.driver.library/Debug/liblpc17xx.cmsis.driver.library.a(lpc17xx_ssp.o)
 .debug_abbrev  0x00007ec9      0x211 /home/froux/MEGA/LPC1769_Repo/LPC_Open_Free_RTOS/lpc17xx.cmsis.driver.library/Debug/liblpc17xx.cmsis.driver.library.a(lpc17xx_uart.o)
 .debug_abbrev  0x000080da      0x1ca /home/froux/MEGA/LPC1769_Repo/LPC_Open_Free_RTOS/lpc17xx.cmsis.driver.library/Debug/liblpc17xx.cmsis.driver.library.a(lpc17xx_clkpwr.o)
 .debug_abbrev  0x000082a4       0xe6 /home/froux/MEGA/LPC1769_Repo/LPC_Open_Free_RTOS/CMSISv2p00_LPC17xx/Debug/libCMSISv2p00_LPC17xx.a(system_LPC17xx.o)

.debug_loc      0x00000000    0x1640a
 .debug_loc     0x00000000      0xbb4 ./Source/lwIP/netif/etharp.o
 .debug_loc     0x00000bb4      0x338 ./Source/lwIP/netif/ethernetif.o
 .debug_loc     0x00000eec      0x662 ./Source/lwIP/netif/sys_arch.o
 .debug_loc     0x0000154e      0x197 ./Source/lwIP/lwIP_Apps/apps/httpserver_raw/fs.o
 .debug_loc     0x000016e5      0xde7 ./Source/lwIP/lwIP_Apps/apps/httpserver_raw/httpd.o
 .debug_loc     0x000024cc      0x10e ./Source/lwIP/lwIP_Apps/apps/BasicSocketCommandServer/BasicSocketCommandServer.o
 .debug_loc     0x000025da       0xd7 ./Source/lwIP/lwIP_Apps/lwIP_Apps.o
 .debug_loc     0x000026b1      0x22a ./Source/lwIP/core/ipv4/icmp.o
 .debug_loc     0x000028db      0x6af ./Source/lwIP/core/ipv4/inet_chksum.o
 .debug_loc     0x00002f8a      0x401 ./Source/lwIP/core/ipv4/ip.o
 .debug_loc     0x0000338b      0x4b2 ./Source/lwIP/core/ipv4/ip_addr.o
 .debug_loc     0x0000383d       0x84 ./Source/lwIP/core/def.o
 .debug_loc     0x000038c1      0x2d0 ./Source/lwIP/core/lwip_timers.o
 .debug_loc     0x00003b91      0x3c5 ./Source/lwIP/core/mem.o
 .debug_loc     0x00003f56      0x163 ./Source/lwIP/core/memp.o
 .debug_loc     0x000040b9      0x3e5 ./Source/lwIP/core/netif.o
 .debug_loc     0x0000449e     0x10fe ./Source/lwIP/core/pbuf.o
 .debug_loc     0x0000559c      0xe5b ./Source/lwIP/core/tcp.o
 .debug_loc     0x000063f7      0x67b ./Source/lwIP/core/tcp_in.o
 .debug_loc     0x00006a72     0x12b6 ./Source/lwIP/core/tcp_out.o
 .debug_loc     0x00007d28      0xe61 ./Source/lwIP/api/api_lib.o
 .debug_loc     0x00008b89      0xd0b ./Source/lwIP/api/api_msg.o
 .debug_loc     0x00009894      0x466 ./Source/lwIP/api/netbuf.o
 .debug_loc     0x00009cfa     0x2108 ./Source/lwIP/api/sockets.o
 .debug_loc     0x0000be02      0x47a ./Source/lwIP/api/tcpip.o
 .debug_loc     0x0000c27c      0x229 ./Source/MemMang/heap_2.o
 .debug_loc     0x0000c4a5       0x73 ./Source/FreeRTOS-Products/FreeRTOS/portable/GCC/ARM_CM3/port.o
 .debug_loc     0x0000c518       0x98 ./Source/FreeRTOS-Products/FreeRTOS-Plus-IO/Device/LPC17xx/FreeRTOS_lpc17xx_DriverInterface.o
 .debug_loc     0x0000c5b0      0xcc4 ./Source/FreeRTOS-Products/FreeRTOS-Plus-IO/Device/LPC17xx/FreeRTOS_lpc17xx_ssp.o
 .debug_loc     0x0000d274      0x618 ./Source/FreeRTOS-Products/FreeRTOS-Plus-IO/Device/LPC17xx/FreeRTOS_lpc17xx_uart.o
 .debug_loc     0x0000d88c      0x665 ./Source/FreeRTOS-Products/FreeRTOS-Plus-IO/Common/FreeRTOS_DriverInterface.o
 .debug_loc     0x0000def1       0x8f ./Source/FreeRTOS-Products/FreeRTOS-Plus-IO/Common/FreeRTOS_IOUtils.o
 .debug_loc     0x0000df80      0x313 ./Source/FreeRTOS-Products/FreeRTOS-Plus-IO/Common/IOUtils_CharQueueTxAndRx.o
 .debug_loc     0x0000e293      0x201 ./Source/FreeRTOS-Products/FreeRTOS-Plus-IO/Common/IOUtils_CircularBufferRx.o
 .debug_loc     0x0000e494      0x214 ./Source/FreeRTOS-Products/FreeRTOS-Plus-IO/Common/IOUtils_ZeroCopyTx.o
 .debug_loc     0x0000e6a8      0x40b ./Source/FreeRTOS-Products/FreeRTOS-Plus-CLI/FreeRTOS_CLI.o
 .debug_loc     0x0000eab3       0x89 ./Source/FreeRTOS-Products/FreeRTOS/list.o
 .debug_loc     0x0000eb3c      0xdb1 ./Source/FreeRTOS-Products/FreeRTOS/queue.o
 .debug_loc     0x0000f8ed     0x12f6 ./Source/FreeRTOS-Products/FreeRTOS/tasks.o
 .debug_loc     0x00010be3      0x632 ./Source/FreeRTOS-Products/FreeRTOS/timers.o
 .debug_loc     0x00011215     0x3431 ./Source/FatFS/ff.o
 .debug_loc     0x00014646      0xae0 ./Source/FatFS/mmc.o
 .debug_loc     0x00015126       0xfb ./Source/FatFS/syscall.o
 .debug_loc     0x00015221      0x59d ./Source/Examples/SSP/SPI-interface-to-SD-card.o
 .debug_loc     0x000157be       0x63 ./Source/Examples/GPIO/GPIO-output-and-software-timers.o
 .debug_loc     0x00015821      0x1be ./Source/cr_startup_lpc176x.o
 .debug_loc     0x000159df      0x2a8 ./Source/main.o
 .debug_loc     0x00015c87      0x783 ./Source/printf-stdarg.o

.debug_aranges  0x00000000     0x1808
 .debug_aranges
                0x00000000       0x60 ./Source/lwIP/netif/etharp.o
 .debug_aranges
                0x00000060       0x30 ./Source/lwIP/netif/ethernetif.o
 .debug_aranges
                0x00000090       0xb8 ./Source/lwIP/netif/sys_arch.o
 .debug_aranges
                0x00000148       0x38 ./Source/lwIP/lwIP_Apps/apps/httpserver_raw/fs.o
 .debug_aranges
                0x00000180       0x80 ./Source/lwIP/lwIP_Apps/apps/httpserver_raw/httpd.o
 .debug_aranges
                0x00000200       0x20 ./Source/lwIP/lwIP_Apps/apps/BasicSocketCommandServer/BasicSocketCommandServer.o
 .debug_aranges
                0x00000220       0x28 ./Source/lwIP/lwIP_Apps/lwIP_Apps.o
 .debug_aranges
                0x00000248       0x28 ./Source/lwIP/core/ipv4/icmp.o
 .debug_aranges
                0x00000270       0x40 ./Source/lwIP/core/ipv4/inet_chksum.o
 .debug_aranges
                0x000002b0       0x38 ./Source/lwIP/core/ipv4/ip.o
 .debug_aranges
                0x000002e8       0x48 ./Source/lwIP/core/ipv4/ip_addr.o
 .debug_aranges
                0x00000330       0x38 ./Source/lwIP/core/def.o
 .debug_aranges
                0x00000368       0x20 ./Source/lwIP/core/init.o
 .debug_aranges
                0x00000388       0x50 ./Source/lwIP/core/lwip_timers.o
 .debug_aranges
                0x000003d8       0x40 ./Source/lwIP/core/mem.o
 .debug_aranges
                0x00000418       0x30 ./Source/lwIP/core/memp.o
 .debug_aranges
                0x00000448       0x80 ./Source/lwIP/core/netif.o
 .debug_aranges
                0x000004c8       0xa0 ./Source/lwIP/core/pbuf.o
 .debug_aranges
                0x00000568      0x118 ./Source/lwIP/core/tcp.o
 .debug_aranges
                0x00000680       0x30 ./Source/lwIP/core/tcp_in.o
 .debug_aranges
                0x000006b0       0x88 ./Source/lwIP/core/tcp_out.o
 .debug_aranges
                0x00000738       0xa8 ./Source/lwIP/api/api_lib.o
 .debug_aranges
                0x000007e0       0xd0 ./Source/lwIP/api/api_msg.o
 .debug_aranges
                0x000008b0       0x60 ./Source/lwIP/api/netbuf.o
 .debug_aranges
                0x00000910       0xf8 ./Source/lwIP/api/sockets.o
 .debug_aranges
                0x00000a08       0x68 ./Source/lwIP/api/tcpip.o
 .debug_aranges
                0x00000a70       0x38 ./Source/MemMang/heap_2.o
 .debug_aranges
                0x00000aa8       0x80 ./Source/FreeRTOS-Products/FreeRTOS/portable/GCC/ARM_CM3/port.o
 .debug_aranges
                0x00000b28       0x20 ./Source/FreeRTOS-Products/FreeRTOS-Plus-IO/Device/LPC17xx/FreeRTOS_lpc17xx_DriverInterface.o
 .debug_aranges
                0x00000b48       0x48 ./Source/FreeRTOS-Products/FreeRTOS-Plus-IO/Device/LPC17xx/FreeRTOS_lpc17xx_ssp.o
 .debug_aranges
                0x00000b90       0x48 ./Source/FreeRTOS-Products/FreeRTOS-Plus-IO/Device/LPC17xx/FreeRTOS_lpc17xx_uart.o
 .debug_aranges
                0x00000bd8       0x28 ./Source/FreeRTOS-Products/FreeRTOS-Plus-IO/Common/FreeRTOS_DriverInterface.o
 .debug_aranges
                0x00000c00       0x20 ./Source/FreeRTOS-Products/FreeRTOS-Plus-IO/Common/FreeRTOS_IOUtils.o
 .debug_aranges
                0x00000c20       0x50 ./Source/FreeRTOS-Products/FreeRTOS-Plus-IO/Common/IOUtils_CharQueueTxAndRx.o
 .debug_aranges
                0x00000c70       0x38 ./Source/FreeRTOS-Products/FreeRTOS-Plus-IO/Common/IOUtils_CircularBufferRx.o
 .debug_aranges
                0x00000ca8       0x30 ./Source/FreeRTOS-Products/FreeRTOS-Plus-IO/Common/IOUtils_ZeroCopyTx.o
 .debug_aranges
                0x00000cd8       0x40 ./Source/FreeRTOS-Products/FreeRTOS-Plus-CLI/FreeRTOS_CLI.o
 .debug_aranges
                0x00000d18       0x40 ./Source/FreeRTOS-Products/FreeRTOS/list.o
 .debug_aranges
                0x00000d58       0xd8 ./Source/FreeRTOS-Products/FreeRTOS/queue.o
 .debug_aranges
                0x00000e30      0x148 ./Source/FreeRTOS-Products/FreeRTOS/tasks.o
 .debug_aranges
                0x00000f78       0x60 ./Source/FreeRTOS-Products/FreeRTOS/timers.o
 .debug_aranges
                0x00000fd8      0x138 ./Source/FatFS/ff.o
 .debug_aranges
                0x00001110       0x88 ./Source/FatFS/mmc.o
 .debug_aranges
                0x00001198       0x38 ./Source/FatFS/syscall.o
 .debug_aranges
                0x000011d0       0x50 ./Source/Examples/SSP/SPI-interface-to-SD-card.o
 .debug_aranges
                0x00001220       0x28 ./Source/Examples/GPIO/GPIO-output-and-software-timers.o
 .debug_aranges
                0x00001248       0x88 ./Source/cr_startup_lpc176x.o
 .debug_aranges
                0x000012d0       0x60 ./Source/main.o
 .debug_aranges
                0x00001330       0x58 ./Source/printf-stdarg.o
 .debug_aranges
                0x00001388       0xf0 /home/froux/MEGA/LPC1769_Repo/LPC_Open_Free_RTOS/lpc17xx.cmsis.driver.library/Debug/liblpc17xx.cmsis.driver.library.a(lpc17xx_emac.o)
 .debug_aranges
                0x00001478      0x100 /home/froux/MEGA/LPC1769_Repo/LPC_Open_Free_RTOS/lpc17xx.cmsis.driver.library/Debug/liblpc17xx.cmsis.driver.library.a(lpc17xx_gpio.o)
 .debug_aranges
                0x00001578       0x20 /home/froux/MEGA/LPC1769_Repo/LPC_Open_Free_RTOS/lpc17xx.cmsis.driver.library/Debug/liblpc17xx.cmsis.driver.library.a(lpc17xx_libcfg_default.o)
 .debug_aranges
                0x00001598       0x48 /home/froux/MEGA/LPC1769_Repo/LPC_Open_Free_RTOS/lpc17xx.cmsis.driver.library/Debug/liblpc17xx.cmsis.driver.library.a(lpc17xx_pinsel.o)
 .debug_aranges
                0x000015e0       0xa8 /home/froux/MEGA/LPC1769_Repo/LPC_Open_Free_RTOS/lpc17xx.cmsis.driver.library/Debug/liblpc17xx.cmsis.driver.library.a(lpc17xx_ssp.o)
 .debug_aranges
                0x00001688      0x100 /home/froux/MEGA/LPC1769_Repo/LPC_Open_Free_RTOS/lpc17xx.cmsis.driver.library/Debug/liblpc17xx.cmsis.driver.library.a(lpc17xx_uart.o)
 .debug_aranges
                0x00001788       0x58 /home/froux/MEGA/LPC1769_Repo/LPC_Open_Free_RTOS/lpc17xx.cmsis.driver.library/Debug/liblpc17xx.cmsis.driver.library.a(lpc17xx_clkpwr.o)
 .debug_aranges
                0x000017e0       0x28 /home/froux/MEGA/LPC1769_Repo/LPC_Open_Free_RTOS/CMSISv2p00_LPC17xx/Debug/libCMSISv2p00_LPC17xx.a(system_LPC17xx.o)

.debug_ranges   0x00000000     0x1a48
 .debug_ranges  0x00000000       0xf8 ./Source/lwIP/netif/etharp.o
 .debug_ranges  0x000000f8       0x58 ./Source/lwIP/netif/ethernetif.o
 .debug_ranges  0x00000150       0xa8 ./Source/lwIP/netif/sys_arch.o
 .debug_ranges  0x000001f8       0x28 ./Source/lwIP/lwIP_Apps/apps/httpserver_raw/fs.o
 .debug_ranges  0x00000220       0xc0 ./Source/lwIP/lwIP_Apps/apps/httpserver_raw/httpd.o
 .debug_ranges  0x000002e0       0x10 ./Source/lwIP/lwIP_Apps/apps/BasicSocketCommandServer/BasicSocketCommandServer.o
 .debug_ranges  0x000002f0       0x18 ./Source/lwIP/lwIP_Apps/lwIP_Apps.o
 .debug_ranges  0x00000308       0x30 ./Source/lwIP/core/ipv4/icmp.o
 .debug_ranges  0x00000338       0x30 ./Source/lwIP/core/ipv4/inet_chksum.o
 .debug_ranges  0x00000368       0x58 ./Source/lwIP/core/ipv4/ip.o
 .debug_ranges  0x000003c0       0x38 ./Source/lwIP/core/ipv4/ip_addr.o
 .debug_ranges  0x000003f8       0x28 ./Source/lwIP/core/def.o
 .debug_ranges  0x00000420       0x10 ./Source/lwIP/core/init.o
 .debug_ranges  0x00000430       0x40 ./Source/lwIP/core/lwip_timers.o
 .debug_ranges  0x00000470       0x60 ./Source/lwIP/core/mem.o
 .debug_ranges  0x000004d0       0x20 ./Source/lwIP/core/memp.o
 .debug_ranges  0x000004f0       0x70 ./Source/lwIP/core/netif.o
 .debug_ranges  0x00000560       0xc0 ./Source/lwIP/core/pbuf.o
 .debug_ranges  0x00000620      0x150 ./Source/lwIP/core/tcp.o
 .debug_ranges  0x00000770       0x58 ./Source/lwIP/core/tcp_in.o
 .debug_ranges  0x000007c8      0x130 ./Source/lwIP/core/tcp_out.o
 .debug_ranges  0x000008f8       0x98 ./Source/lwIP/api/api_lib.o
 .debug_ranges  0x00000990       0xd8 ./Source/lwIP/api/api_msg.o
 .debug_ranges  0x00000a68       0x50 ./Source/lwIP/api/netbuf.o
 .debug_ranges  0x00000ab8      0x168 ./Source/lwIP/api/sockets.o
 .debug_ranges  0x00000c20       0x58 ./Source/lwIP/api/tcpip.o
 .debug_ranges  0x00000c78       0x28 ./Source/MemMang/heap_2.o
 .debug_ranges  0x00000ca0       0x70 ./Source/FreeRTOS-Products/FreeRTOS/portable/GCC/ARM_CM3/port.o
 .debug_ranges  0x00000d10       0x10 ./Source/FreeRTOS-Products/FreeRTOS-Plus-IO/Device/LPC17xx/FreeRTOS_lpc17xx_DriverInterface.o
 .debug_ranges  0x00000d20       0xa0 ./Source/FreeRTOS-Products/FreeRTOS-Plus-IO/Device/LPC17xx/FreeRTOS_lpc17xx_ssp.o
 .debug_ranges  0x00000dc0       0x70 ./Source/FreeRTOS-Products/FreeRTOS-Plus-IO/Device/LPC17xx/FreeRTOS_lpc17xx_uart.o
 .debug_ranges  0x00000e30       0x18 ./Source/FreeRTOS-Products/FreeRTOS-Plus-IO/Common/FreeRTOS_DriverInterface.o
 .debug_ranges  0x00000e48       0x10 ./Source/FreeRTOS-Products/FreeRTOS-Plus-IO/Common/FreeRTOS_IOUtils.o
 .debug_ranges  0x00000e58       0x40 ./Source/FreeRTOS-Products/FreeRTOS-Plus-IO/Common/IOUtils_CharQueueTxAndRx.o
 .debug_ranges  0x00000e98       0x28 ./Source/FreeRTOS-Products/FreeRTOS-Plus-IO/Common/IOUtils_CircularBufferRx.o
 .debug_ranges  0x00000ec0       0x20 ./Source/FreeRTOS-Products/FreeRTOS-Plus-IO/Common/IOUtils_ZeroCopyTx.o
 .debug_ranges  0x00000ee0       0x30 ./Source/FreeRTOS-Products/FreeRTOS-Plus-CLI/FreeRTOS_CLI.o
 .debug_ranges  0x00000f10       0x30 ./Source/FreeRTOS-Products/FreeRTOS/list.o
 .debug_ranges  0x00000f40       0xc8 ./Source/FreeRTOS-Products/FreeRTOS/queue.o
 .debug_ranges  0x00001008      0x190 ./Source/FreeRTOS-Products/FreeRTOS/tasks.o
 .debug_ranges  0x00001198       0x68 ./Source/FreeRTOS-Products/FreeRTOS/timers.o
 .debug_ranges  0x00001200      0x210 ./Source/FatFS/ff.o
 .debug_ranges  0x00001410       0x78 ./Source/FatFS/mmc.o
 .debug_ranges  0x00001488       0x28 ./Source/FatFS/syscall.o
 .debug_ranges  0x000014b0       0x40 ./Source/Examples/SSP/SPI-interface-to-SD-card.o
 .debug_ranges  0x000014f0       0x18 ./Source/Examples/GPIO/GPIO-output-and-software-timers.o
 .debug_ranges  0x00001508       0x78 ./Source/cr_startup_lpc176x.o
 .debug_ranges  0x00001580       0x80 ./Source/main.o
 .debug_ranges  0x00001600       0x48 ./Source/printf-stdarg.o
 .debug_ranges  0x00001648       0xe0 /home/froux/MEGA/LPC1769_Repo/LPC_Open_Free_RTOS/lpc17xx.cmsis.driver.library/Debug/liblpc17xx.cmsis.driver.library.a(lpc17xx_emac.o)
 .debug_ranges  0x00001728       0xf0 /home/froux/MEGA/LPC1769_Repo/LPC_Open_Free_RTOS/lpc17xx.cmsis.driver.library/Debug/liblpc17xx.cmsis.driver.library.a(lpc17xx_gpio.o)
 .debug_ranges  0x00001818       0x10 /home/froux/MEGA/LPC1769_Repo/LPC_Open_Free_RTOS/lpc17xx.cmsis.driver.library/Debug/liblpc17xx.cmsis.driver.library.a(lpc17xx_libcfg_default.o)
 .debug_ranges  0x00001828       0x38 /home/froux/MEGA/LPC1769_Repo/LPC_Open_Free_RTOS/lpc17xx.cmsis.driver.library/Debug/liblpc17xx.cmsis.driver.library.a(lpc17xx_pinsel.o)
 .debug_ranges  0x00001860       0x98 /home/froux/MEGA/LPC1769_Repo/LPC_Open_Free_RTOS/lpc17xx.cmsis.driver.library/Debug/liblpc17xx.cmsis.driver.library.a(lpc17xx_ssp.o)
 .debug_ranges  0x000018f8       0xf0 /home/froux/MEGA/LPC1769_Repo/LPC_Open_Free_RTOS/lpc17xx.cmsis.driver.library/Debug/liblpc17xx.cmsis.driver.library.a(lpc17xx_uart.o)
 .debug_ranges  0x000019e8       0x48 /home/froux/MEGA/LPC1769_Repo/LPC_Open_Free_RTOS/lpc17xx.cmsis.driver.library/Debug/liblpc17xx.cmsis.driver.library.a(lpc17xx_clkpwr.o)
 .debug_ranges  0x00001a30       0x18 /home/froux/MEGA/LPC1769_Repo/LPC_Open_Free_RTOS/CMSISv2p00_LPC17xx/Debug/libCMSISv2p00_LPC17xx.a(system_LPC17xx.o)

.debug_macro    0x00000000     0xec70
 .debug_macro   0x00000000      0x202 ./Source/lwIP/netif/etharp.o
 .debug_macro   0x00000202      0x87a ./Source/lwIP/netif/etharp.o
 .debug_macro   0x00000a7c       0x10 ./Source/lwIP/netif/etharp.o
 .debug_macro   0x00000a8c       0x7c ./Source/lwIP/netif/etharp.o
 .debug_macro   0x00000b08      0x1dc ./Source/lwIP/netif/etharp.o
 .debug_macro   0x00000ce4       0x16 ./Source/lwIP/netif/etharp.o
 .debug_macro   0x00000cfa      0x12d ./Source/lwIP/netif/etharp.o
 .debug_macro   0x00000e27       0xa0 ./Source/lwIP/netif/etharp.o
 .debug_macro   0x00000ec7       0x22 ./Source/lwIP/netif/etharp.o
 .debug_macro   0x00000ee9       0x46 ./Source/lwIP/netif/etharp.o
 .debug_macro   0x00000f2f      0x5b2 ./Source/lwIP/netif/etharp.o
 .debug_macro   0x000014e1      0x1ea ./Source/lwIP/netif/etharp.o
 .debug_macro   0x000016cb       0x99 ./Source/lwIP/netif/etharp.o
 .debug_macro   0x00001764       0x12 ./Source/lwIP/netif/etharp.o
 .debug_macro   0x00001776       0x1f ./Source/lwIP/netif/etharp.o
 .debug_macro   0x00001795      0x1bd ./Source/lwIP/netif/etharp.o
 .debug_macro   0x00001952       0x5e ./Source/lwIP/netif/etharp.o
 .debug_macro   0x000019b0       0x57 ./Source/lwIP/netif/etharp.o
 .debug_macro   0x00001a07       0x5e ./Source/lwIP/netif/etharp.o
 .debug_macro   0x00001a65      0x3d4 ./Source/lwIP/netif/etharp.o
 .debug_macro   0x00001e39       0x58 ./Source/lwIP/netif/etharp.o
 .debug_macro   0x00001e91      0x3ef ./Source/lwIP/netif/etharp.o
 .debug_macro   0x00002280       0x58 ./Source/lwIP/netif/etharp.o
 .debug_macro   0x000022d8      0x175 ./Source/lwIP/netif/etharp.o
 .debug_macro   0x0000244d       0x76 ./Source/lwIP/netif/etharp.o
 .debug_macro   0x000024c3       0x2e ./Source/lwIP/netif/etharp.o
 .debug_macro   0x000024f1       0x5b ./Source/lwIP/netif/etharp.o
 .debug_macro   0x0000254c      0x117 ./Source/lwIP/netif/etharp.o
 .debug_macro   0x00002663       0x22 ./Source/lwIP/netif/etharp.o
 .debug_macro   0x00002685       0x10 ./Source/lwIP/netif/etharp.o
 .debug_macro   0x00002695       0x3a ./Source/lwIP/netif/etharp.o
 .debug_macro   0x000026cf      0x11c ./Source/lwIP/netif/etharp.o
 .debug_macro   0x000027eb      0x321 ./Source/lwIP/netif/etharp.o
 .debug_macro   0x00002b0c       0x86 ./Source/lwIP/netif/etharp.o
 .debug_macro   0x00002b92      0x2cf ./Source/lwIP/netif/ethernetif.o
 .debug_macro   0x00002e61       0x10 ./Source/lwIP/netif/ethernetif.o
 .debug_macro   0x00002e71       0x96 ./Source/lwIP/netif/ethernetif.o
 .debug_macro   0x00002f07       0x9a ./Source/lwIP/netif/ethernetif.o
 .debug_macro   0x00002fa1       0xca ./Source/lwIP/netif/ethernetif.o
 .debug_macro   0x0000306b       0x1c ./Source/lwIP/netif/ethernetif.o
 .debug_macro   0x00003087       0x2e ./Source/lwIP/netif/ethernetif.o
 .debug_macro   0x000030b5       0x18 ./Source/lwIP/netif/ethernetif.o
 .debug_macro   0x000030cd      0x7af ./Source/lwIP/netif/ethernetif.o
 .debug_macro   0x0000387c      0x2c7 ./Source/lwIP/netif/ethernetif.o
 .debug_macro   0x00003b43       0x5d ./Source/lwIP/netif/ethernetif.o
 .debug_macro   0x00003ba0      0x334 ./Source/lwIP/netif/ethernetif.o
 .debug_macro   0x00003ed4      0x2a3 ./Source/lwIP/netif/ethernetif.o
 .debug_macro   0x00004177      0x191 ./Source/lwIP/netif/ethernetif.o
 .debug_macro   0x00004308      0x18d ./Source/lwIP/netif/ethernetif.o
 .debug_macro   0x00004495       0x7c ./Source/lwIP/netif/ethernetif.o
 .debug_macro   0x00004511       0x9a ./Source/lwIP/netif/ethernetif.o
 .debug_macro   0x000045ab       0x1c ./Source/lwIP/netif/ethernetif.o
 .debug_macro   0x000045c7       0x16 ./Source/lwIP/netif/ethernetif.o
 .debug_macro   0x000045dd       0x77 ./Source/lwIP/netif/ethernetif.o
 .debug_macro   0x00004654       0x2e ./Source/lwIP/netif/ethernetif.o
 .debug_macro   0x00004682       0x4a ./Source/lwIP/netif/ethernetif.o
 .debug_macro   0x000046cc      0x17b ./Source/lwIP/netif/ethernetif.o
 .debug_macro   0x00004847      0x31b ./Source/lwIP/netif/ethernetif.o
 .debug_macro   0x00004b62      0x11d ./Source/lwIP/netif/ethernetif.o
 .debug_macro   0x00004c7f       0x80 ./Source/lwIP/netif/ethernetif.o
 .debug_macro   0x00004cff      0x66b ./Source/lwIP/netif/ethernetif.o
 .debug_macro   0x0000536a      0x145 ./Source/lwIP/netif/ethernetif.o
 .debug_macro   0x000054af      0x1a5 ./Source/lwIP/netif/sys_arch.o
 .debug_macro   0x00005654       0x16 ./Source/lwIP/netif/sys_arch.o
 .debug_macro   0x0000566a      0x170 ./Source/lwIP/lwIP_Apps/apps/httpserver_raw/fs.o
 .debug_macro   0x000057da       0x1c ./Source/lwIP/lwIP_Apps/apps/httpserver_raw/fs.o
 .debug_macro   0x000057f6       0x18 ./Source/lwIP/lwIP_Apps/apps/httpserver_raw/fs.o
 .debug_macro   0x0000580e      0x2f1 ./Source/lwIP/lwIP_Apps/apps/httpserver_raw/httpd.o
 .debug_macro   0x00005aff       0x34 ./Source/lwIP/lwIP_Apps/apps/httpserver_raw/httpd.o
 .debug_macro   0x00005b33       0x1c ./Source/lwIP/lwIP_Apps/apps/httpserver_raw/httpd.o
 .debug_macro   0x00005b4f       0x16 ./Source/lwIP/lwIP_Apps/apps/httpserver_raw/httpd.o
 .debug_macro   0x00005b65       0x64 ./Source/lwIP/lwIP_Apps/apps/httpserver_raw/httpd.o
 .debug_macro   0x00005bc9       0xac ./Source/lwIP/lwIP_Apps/apps/httpserver_raw/httpd.o
 .debug_macro   0x00005c75      0x184 ./Source/lwIP/lwIP_Apps/apps/BasicSocketCommandServer/BasicSocketCommandServer.o
 .debug_macro   0x00005df9       0xdc ./Source/lwIP/lwIP_Apps/apps/BasicSocketCommandServer/BasicSocketCommandServer.o
 .debug_macro   0x00005ed5      0x2f2 ./Source/lwIP/lwIP_Apps/apps/BasicSocketCommandServer/BasicSocketCommandServer.o
 .debug_macro   0x000061c7       0x10 ./Source/lwIP/lwIP_Apps/apps/BasicSocketCommandServer/BasicSocketCommandServer.o
 .debug_macro   0x000061d7      0x24d ./Source/lwIP/lwIP_Apps/lwIP_Apps.o
 .debug_macro   0x00006424       0x10 ./Source/lwIP/lwIP_Apps/lwIP_Apps.o
 .debug_macro   0x00006434       0x4f ./Source/lwIP/lwIP_Apps/lwIP_Apps.o
 .debug_macro   0x00006483       0x40 ./Source/lwIP/lwIP_Apps/lwIP_Apps.o
 .debug_macro   0x000064c3       0xca ./Source/lwIP/lwIP_Apps/lwIP_Apps.o
 .debug_macro   0x0000658d       0x16 ./Source/lwIP/lwIP_Apps/lwIP_Apps.o
 .debug_macro   0x000065a3       0x16 ./Source/lwIP/lwIP_Apps/lwIP_Apps.o
 .debug_macro   0x000065b9       0x34 ./Source/lwIP/lwIP_Apps/lwIP_Apps.o
 .debug_macro   0x000065ed       0x22 ./Source/lwIP/lwIP_Apps/lwIP_Apps.o
 .debug_macro   0x0000660f      0x1d8 ./Source/lwIP/core/ipv4/icmp.o
 .debug_macro   0x000067e7       0x5e ./Source/lwIP/core/ipv4/icmp.o
 .debug_macro   0x00006845       0x1c ./Source/lwIP/core/ipv4/icmp.o
 .debug_macro   0x00006861      0x18a ./Source/lwIP/core/ipv4/inet_chksum.o
 .debug_macro   0x000069eb       0x16 ./Source/lwIP/core/ipv4/inet_chksum.o
 .debug_macro   0x00006a01      0x274 ./Source/lwIP/core/ipv4/ip.o
 .debug_macro   0x00006c75      0x1bc ./Source/lwIP/core/ipv4/ip.o
 .debug_macro   0x00006e31       0x16 ./Source/lwIP/core/ipv4/ip.o
 .debug_macro   0x00006e47      0x18d ./Source/lwIP/core/ipv4/ip_addr.o
 .debug_macro   0x00006fd4      0x13a ./Source/lwIP/core/def.o
 .debug_macro   0x0000710e      0x285 ./Source/lwIP/core/init.o
 .debug_macro   0x00007393       0x46 ./Source/lwIP/core/init.o
 .debug_macro   0x000073d9      0x272 ./Source/lwIP/core/lwip_timers.o
 .debug_macro   0x0000764b       0x10 ./Source/lwIP/core/lwip_timers.o
 .debug_macro   0x0000765b      0x201 ./Source/lwIP/core/mem.o
 .debug_macro   0x0000785c      0x2e9 ./Source/lwIP/core/memp.o
 .debug_macro   0x00007b45       0x1c ./Source/lwIP/core/memp.o
 .debug_macro   0x00007b61      0x122 ./Source/lwIP/core/memp.o
 .debug_macro   0x00007c83      0x21e ./Source/lwIP/core/netif.o
 .debug_macro   0x00007ea1      0x1de ./Source/lwIP/core/pbuf.o
 .debug_macro   0x0000807f      0x222 ./Source/lwIP/core/tcp.o
 .debug_macro   0x000082a1      0x1c2 ./Source/lwIP/core/tcp.o
 .debug_macro   0x00008463      0x20c ./Source/lwIP/core/tcp_in.o
 .debug_macro   0x0000866f      0x223 ./Source/lwIP/core/tcp_out.o
 .debug_macro   0x00008892      0x25a ./Source/lwIP/api/api_lib.o
 .debug_macro   0x00008aec       0x3a ./Source/lwIP/api/api_lib.o
 .debug_macro   0x00008b26      0x269 ./Source/lwIP/api/api_msg.o
 .debug_macro   0x00008d8f      0x190 ./Source/lwIP/api/netbuf.o
 .debug_macro   0x00008f1f      0x27c ./Source/lwIP/api/sockets.o
 .debug_macro   0x0000919b      0x236 ./Source/lwIP/api/tcpip.o
 .debug_macro   0x000093d1       0xe9 ./Source/MemMang/heap_2.o
 .debug_macro   0x000094ba       0x28 ./Source/MemMang/heap_2.o
 .debug_macro   0x000094e2      0x117 ./Source/FreeRTOS-Products/FreeRTOS/portable/GCC/ARM_CM3/port.o
 .debug_macro   0x000095f9       0xed ./Source/FreeRTOS-Products/FreeRTOS-Plus-IO/Device/LPC17xx/FreeRTOS_lpc17xx_DriverInterface.o
 .debug_macro   0x000096e6      0x1b7 ./Source/FreeRTOS-Products/FreeRTOS-Plus-IO/Device/LPC17xx/FreeRTOS_lpc17xx_ssp.o
 .debug_macro   0x0000989d      0x1b8 ./Source/FreeRTOS-Products/FreeRTOS-Plus-IO/Device/LPC17xx/FreeRTOS_lpc17xx_uart.o
 .debug_macro   0x00009a55      0x1a6 ./Source/FreeRTOS-Products/FreeRTOS-Plus-IO/Common/FreeRTOS_DriverInterface.o
 .debug_macro   0x00009bfb      0x124 ./Source/FreeRTOS-Products/FreeRTOS-Plus-IO/Common/FreeRTOS_IOUtils.o
 .debug_macro   0x00009d1f      0x120 ./Source/FreeRTOS-Products/FreeRTOS-Plus-IO/Common/IOUtils_CharQueueTxAndRx.o
 .debug_macro   0x00009e3f      0x120 ./Source/FreeRTOS-Products/FreeRTOS-Plus-IO/Common/IOUtils_CircularBufferRx.o
 .debug_macro   0x00009f5f      0x124 ./Source/FreeRTOS-Products/FreeRTOS-Plus-IO/Common/IOUtils_ZeroCopyTx.o
 .debug_macro   0x0000a083       0xce ./Source/FreeRTOS-Products/FreeRTOS-Plus-CLI/FreeRTOS_CLI.o
 .debug_macro   0x0000a151      0x1f0 ./Source/FreeRTOS-Products/FreeRTOS-Plus-CLI/FreeRTOS_CLI.o
 .debug_macro   0x0000a341       0xbc ./Source/FreeRTOS-Products/FreeRTOS/list.o
 .debug_macro   0x0000a3fd      0x152 ./Source/FreeRTOS-Products/FreeRTOS/queue.o
 .debug_macro   0x0000a54f      0x16e ./Source/FreeRTOS-Products/FreeRTOS/tasks.o
 .debug_macro   0x0000a6bd       0x5b ./Source/FreeRTOS-Products/FreeRTOS/tasks.o
 .debug_macro   0x0000a718       0x17 ./Source/FreeRTOS-Products/FreeRTOS/tasks.o
 .debug_macro   0x0000a72f       0xe5 ./Source/FreeRTOS-Products/FreeRTOS/timers.o
 .debug_macro   0x0000a814      0x311 ./Source/FatFS/ff.o
 .debug_macro   0x0000ab25       0x91 ./Source/FatFS/ff.o
 .debug_macro   0x0000abb6       0xee ./Source/FatFS/ff.o
 .debug_macro   0x0000aca4       0xc4 ./Source/FatFS/ff.o
 .debug_macro   0x0000ad68      0x240 ./Source/FatFS/mmc.o
 .debug_macro   0x0000afa8       0x63 ./Source/FatFS/mmc.o
 .debug_macro   0x0000b00b      0x29d ./Source/FatFS/mmc.o
 .debug_macro   0x0000b2a8       0x46 ./Source/FatFS/mmc.o
 .debug_macro   0x0000b2ee       0x16 ./Source/FatFS/mmc.o
 .debug_macro   0x0000b304       0xb2 ./Source/FatFS/mmc.o
 .debug_macro   0x0000b3b6      0x1f0 ./Source/FatFS/mmc.o
 .debug_macro   0x0000b5a6      0x33a ./Source/FatFS/mmc.o
 .debug_macro   0x0000b8e0       0xec ./Source/FatFS/syscall.o
 .debug_macro   0x0000b9cc      0x20e ./Source/Examples/SSP/SPI-interface-to-SD-card.o
 .debug_macro   0x0000bbda       0xe7 ./Source/Examples/SSP/SPI-interface-to-SD-card.o
 .debug_macro   0x0000bcc1      0x177 ./Source/Examples/GPIO/GPIO-output-and-software-timers.o
 .debug_macro   0x0000be38       0x5d ./Source/Examples/GPIO/GPIO-output-and-software-timers.o
 .debug_macro   0x0000be95       0x52 ./Source/cr_startup_lpc176x.o
 .debug_macro   0x0000bee7      0x2df ./Source/main.o
 .debug_macro   0x0000c1c6       0x41 ./Source/printf-stdarg.o
 .debug_macro   0x0000c207       0x16 ./Source/printf-stdarg.o
 .debug_macro   0x0000c21d      0x124 /home/froux/MEGA/LPC1769_Repo/LPC_Open_Free_RTOS/lpc17xx.cmsis.driver.library/Debug/liblpc17xx.cmsis.driver.library.a(lpc17xx_emac.o)
 .debug_macro   0x0000c341      0x86e /home/froux/MEGA/LPC1769_Repo/LPC_Open_Free_RTOS/lpc17xx.cmsis.driver.library/Debug/liblpc17xx.cmsis.driver.library.a(lpc17xx_emac.o)
 .debug_macro   0x0000cbaf      0x665 /home/froux/MEGA/LPC1769_Repo/LPC_Open_Free_RTOS/lpc17xx.cmsis.driver.library/Debug/liblpc17xx.cmsis.driver.library.a(lpc17xx_emac.o)
 .debug_macro   0x0000d214      0x2f7 /home/froux/MEGA/LPC1769_Repo/LPC_Open_Free_RTOS/lpc17xx.cmsis.driver.library/Debug/liblpc17xx.cmsis.driver.library.a(lpc17xx_emac.o)
 .debug_macro   0x0000d50b      0x168 /home/froux/MEGA/LPC1769_Repo/LPC_Open_Free_RTOS/lpc17xx.cmsis.driver.library/Debug/liblpc17xx.cmsis.driver.library.a(lpc17xx_emac.o)
 .debug_macro   0x0000d673       0xd3 /home/froux/MEGA/LPC1769_Repo/LPC_Open_Free_RTOS/lpc17xx.cmsis.driver.library/Debug/liblpc17xx.cmsis.driver.library.a(lpc17xx_emac.o)
 .debug_macro   0x0000d746      0x11b /home/froux/MEGA/LPC1769_Repo/LPC_Open_Free_RTOS/lpc17xx.cmsis.driver.library/Debug/liblpc17xx.cmsis.driver.library.a(lpc17xx_gpio.o)
 .debug_macro   0x0000d861       0x40 /home/froux/MEGA/LPC1769_Repo/LPC_Open_Free_RTOS/lpc17xx.cmsis.driver.library/Debug/liblpc17xx.cmsis.driver.library.a(lpc17xx_gpio.o)
 .debug_macro   0x0000d8a1       0xd9 /home/froux/MEGA/LPC1769_Repo/LPC_Open_Free_RTOS/lpc17xx.cmsis.driver.library/Debug/liblpc17xx.cmsis.driver.library.a(lpc17xx_libcfg_default.o)
 .debug_macro   0x0000d97a       0x5d /home/froux/MEGA/LPC1769_Repo/LPC_Open_Free_RTOS/lpc17xx.cmsis.driver.library/Debug/liblpc17xx.cmsis.driver.library.a(lpc17xx_libcfg_default.o)
 .debug_macro   0x0000d9d7      0x168 /home/froux/MEGA/LPC1769_Repo/LPC_Open_Free_RTOS/lpc17xx.cmsis.driver.library/Debug/liblpc17xx.cmsis.driver.library.a(lpc17xx_libcfg_default.o)
 .debug_macro   0x0000db3f       0x8d /home/froux/MEGA/LPC1769_Repo/LPC_Open_Free_RTOS/lpc17xx.cmsis.driver.library/Debug/liblpc17xx.cmsis.driver.library.a(lpc17xx_pinsel.o)
 .debug_macro   0x0000dbcc      0x13f /home/froux/MEGA/LPC1769_Repo/LPC_Open_Free_RTOS/lpc17xx.cmsis.driver.library/Debug/liblpc17xx.cmsis.driver.library.a(lpc17xx_pinsel.o)
 .debug_macro   0x0000dd0b      0x124 /home/froux/MEGA/LPC1769_Repo/LPC_Open_Free_RTOS/lpc17xx.cmsis.driver.library/Debug/liblpc17xx.cmsis.driver.library.a(lpc17xx_ssp.o)
 .debug_macro   0x0000de2f      0x124 /home/froux/MEGA/LPC1769_Repo/LPC_Open_Free_RTOS/lpc17xx.cmsis.driver.library/Debug/liblpc17xx.cmsis.driver.library.a(lpc17xx_uart.o)
 .debug_macro   0x0000df53       0x8d /home/froux/MEGA/LPC1769_Repo/LPC_Open_Free_RTOS/lpc17xx.cmsis.driver.library/Debug/liblpc17xx.cmsis.driver.library.a(lpc17xx_clkpwr.o)
 .debug_macro   0x0000dfe0      0x2f1 /home/froux/MEGA/LPC1769_Repo/LPC_Open_Free_RTOS/lpc17xx.cmsis.driver.library/Debug/liblpc17xx.cmsis.driver.library.a(lpc17xx_clkpwr.o)
 .debug_macro   0x0000e2d1      0x12b /home/froux/MEGA/LPC1769_Repo/LPC_Open_Free_RTOS/CMSISv2p00_LPC17xx/Debug/libCMSISv2p00_LPC17xx.a(system_LPC17xx.o)
 .debug_macro   0x0000e3fc      0x874 /home/froux/MEGA/LPC1769_Repo/LPC_Open_Free_RTOS/CMSISv2p00_LPC17xx/Debug/libCMSISv2p00_LPC17xx.a(system_LPC17xx.o)

.debug_line     0x00000000    0x1716c
 .debug_line    0x00000000      0x856 ./Source/lwIP/netif/etharp.o
 .debug_line    0x00000856      0x936 ./Source/lwIP/netif/ethernetif.o
 .debug_line    0x0000118c      0x648 ./Source/lwIP/netif/sys_arch.o
 .debug_line    0x000017d4      0x4be ./Source/lwIP/lwIP_Apps/apps/httpserver_raw/fs.o
 .debug_line    0x00001c92      0x8ec ./Source/lwIP/lwIP_Apps/apps/httpserver_raw/httpd.o
 .debug_line    0x0000257e      0x5a8 ./Source/lwIP/lwIP_Apps/apps/BasicSocketCommandServer/BasicSocketCommandServer.o
 .debug_line    0x00002b26      0x615 ./Source/lwIP/lwIP_Apps/lwIP_Apps.o
 .debug_line    0x0000313b      0x5cf ./Source/lwIP/core/ipv4/icmp.o
 .debug_line    0x0000370a      0x5ad ./Source/lwIP/core/ipv4/inet_chksum.o
 .debug_line    0x00003cb7      0x6c8 ./Source/lwIP/core/ipv4/ip.o
 .debug_line    0x0000437f      0x5a3 ./Source/lwIP/core/ipv4/ip_addr.o
 .debug_line    0x00004922      0x445 ./Source/lwIP/core/def.o
 .debug_line    0x00004d67      0x621 ./Source/lwIP/core/init.o
 .debug_line    0x00005388      0x70b ./Source/lwIP/core/lwip_timers.o
 .debug_line    0x00005a93      0x601 ./Source/lwIP/core/mem.o
 .debug_line    0x00006094      0x6c8 ./Source/lwIP/core/memp.o
 .debug_line    0x0000675c      0x735 ./Source/lwIP/core/netif.o
 .debug_line    0x00006e91      0x888 ./Source/lwIP/core/pbuf.o
 .debug_line    0x00007719      0xaf7 ./Source/lwIP/core/tcp.o
 .debug_line    0x00008210      0x986 ./Source/lwIP/core/tcp_in.o
 .debug_line    0x00008b96      0x9bb ./Source/lwIP/core/tcp_out.o
 .debug_line    0x00009551      0x869 ./Source/lwIP/api/api_lib.o
 .debug_line    0x00009dba      0xb34 ./Source/lwIP/api/api_msg.o
 .debug_line    0x0000a8ee      0x5fc ./Source/lwIP/api/netbuf.o
 .debug_line    0x0000aeea      0xd5a ./Source/lwIP/api/sockets.o
 .debug_line    0x0000bc44      0x6f7 ./Source/lwIP/api/tcpip.o
 .debug_line    0x0000c33b      0x314 ./Source/MemMang/heap_2.o
 .debug_line    0x0000c64f      0x374 ./Source/FreeRTOS-Products/FreeRTOS/portable/GCC/ARM_CM3/port.o
 .debug_line    0x0000c9c3      0x3e0 ./Source/FreeRTOS-Products/FreeRTOS-Plus-IO/Device/LPC17xx/FreeRTOS_lpc17xx_DriverInterface.o
 .debug_line    0x0000cda3      0x9ce ./Source/FreeRTOS-Products/FreeRTOS-Plus-IO/Device/LPC17xx/FreeRTOS_lpc17xx_ssp.o
 .debug_line    0x0000d771      0x7e2 ./Source/FreeRTOS-Products/FreeRTOS-Plus-IO/Device/LPC17xx/FreeRTOS_lpc17xx_uart.o
 .debug_line    0x0000df53      0x685 ./Source/FreeRTOS-Products/FreeRTOS-Plus-IO/Common/FreeRTOS_DriverInterface.o
 .debug_line    0x0000e5d8      0x414 ./Source/FreeRTOS-Products/FreeRTOS-Plus-IO/Common/FreeRTOS_IOUtils.o
 .debug_line    0x0000e9ec      0x4e0 ./Source/FreeRTOS-Products/FreeRTOS-Plus-IO/Common/IOUtils_CharQueueTxAndRx.o
 .debug_line    0x0000eecc      0x4b1 ./Source/FreeRTOS-Products/FreeRTOS-Plus-IO/Common/IOUtils_CircularBufferRx.o
 .debug_line    0x0000f37d      0x462 ./Source/FreeRTOS-Products/FreeRTOS-Plus-IO/Common/IOUtils_ZeroCopyTx.o
 .debug_line    0x0000f7df      0x3c5 ./Source/FreeRTOS-Products/FreeRTOS-Plus-CLI/FreeRTOS_CLI.o
 .debug_line    0x0000fba4      0x343 ./Source/FreeRTOS-Products/FreeRTOS/list.o
 .debug_line    0x0000fee7      0x675 ./Source/FreeRTOS-Products/FreeRTOS/queue.o
 .debug_line    0x0001055c      0x8d9 ./Source/FreeRTOS-Products/FreeRTOS/tasks.o
 .debug_line    0x00010e35      0x438 ./Source/FreeRTOS-Products/FreeRTOS/timers.o
 .debug_line    0x0001126d      0xcd5 ./Source/FatFS/ff.o
 .debug_line    0x00011f42      0x7f0 ./Source/FatFS/mmc.o
 .debug_line    0x00012732      0x2f9 ./Source/FatFS/syscall.o
 .debug_line    0x00012a2b      0x83c ./Source/Examples/SSP/SPI-interface-to-SD-card.o
 .debug_line    0x00013267      0x608 ./Source/Examples/GPIO/GPIO-output-and-software-timers.o
 .debug_line    0x0001386f      0x207 ./Source/cr_startup_lpc176x.o
 .debug_line    0x00013a76      0x9d1 ./Source/main.o
 .debug_line    0x00014447      0x245 ./Source/printf-stdarg.o
 .debug_line    0x0001468c      0x79b /home/froux/MEGA/LPC1769_Repo/LPC_Open_Free_RTOS/lpc17xx.cmsis.driver.library/Debug/liblpc17xx.cmsis.driver.library.a(lpc17xx_emac.o)
 .debug_line    0x00014e27      0x6be /home/froux/MEGA/LPC1769_Repo/LPC_Open_Free_RTOS/lpc17xx.cmsis.driver.library/Debug/liblpc17xx.cmsis.driver.library.a(lpc17xx_gpio.o)
 .debug_line    0x000154e5      0x331 /home/froux/MEGA/LPC1769_Repo/LPC_Open_Free_RTOS/lpc17xx.cmsis.driver.library/Debug/liblpc17xx.cmsis.driver.library.a(lpc17xx_libcfg_default.o)
 .debug_line    0x00015816      0x29c /home/froux/MEGA/LPC1769_Repo/LPC_Open_Free_RTOS/lpc17xx.cmsis.driver.library/Debug/liblpc17xx.cmsis.driver.library.a(lpc17xx_pinsel.o)
 .debug_line    0x00015ab2      0x73b /home/froux/MEGA/LPC1769_Repo/LPC_Open_Free_RTOS/lpc17xx.cmsis.driver.library/Debug/liblpc17xx.cmsis.driver.library.a(lpc17xx_ssp.o)
 .debug_line    0x000161ed      0xa9f /home/froux/MEGA/LPC1769_Repo/LPC_Open_Free_RTOS/lpc17xx.cmsis.driver.library/Debug/liblpc17xx.cmsis.driver.library.a(lpc17xx_uart.o)
 .debug_line    0x00016c8c      0x302 /home/froux/MEGA/LPC1769_Repo/LPC_Open_Free_RTOS/lpc17xx.cmsis.driver.library/Debug/liblpc17xx.cmsis.driver.library.a(lpc17xx_clkpwr.o)
 .debug_line    0x00016f8e      0x1de /home/froux/MEGA/LPC1769_Repo/LPC_Open_Free_RTOS/CMSISv2p00_LPC17xx/Debug/libCMSISv2p00_LPC17xx.a(system_LPC17xx.o)

.debug_str      0x00000000    0x29d3e
 .debug_str     0x00000000     0xb308 ./Source/lwIP/netif/etharp.o
                               0xb4bb (size before relaxing)
 .debug_str     0x0000b308     0xd0ee ./Source/lwIP/netif/ethernetif.o
                              0x1816f (size before relaxing)
 .debug_str     0x000183f6      0x3c0 ./Source/lwIP/netif/sys_arch.o
                               0xa39a (size before relaxing)
 .debug_str     0x000187b6      0x28a ./Source/lwIP/lwIP_Apps/apps/httpserver_raw/fs.o
                               0x8619 (size before relaxing)
 .debug_str     0x00018a40      0xf9c ./Source/lwIP/lwIP_Apps/apps/httpserver_raw/httpd.o
                               0xc5ce (size before relaxing)
 .debug_str     0x000199dc     0x1347 ./Source/lwIP/lwIP_Apps/apps/BasicSocketCommandServer/BasicSocketCommandServer.o
                               0xa2eb (size before relaxing)
 .debug_str     0x0001ad23      0xe2a ./Source/lwIP/lwIP_Apps/lwIP_Apps.o
                               0xc010 (size before relaxing)
 .debug_str     0x0001bb4d      0x26c ./Source/lwIP/core/ipv4/icmp.o
                               0xb15e (size before relaxing)
 .debug_str     0x0001bdb9       0xc4 ./Source/lwIP/core/ipv4/inet_chksum.o
                               0x93d1 (size before relaxing)
 .debug_str     0x0001be7d     0x11b6 ./Source/lwIP/core/ipv4/ip.o
                               0xdab2 (size before relaxing)
 .debug_str     0x0001d033      0x1d2 ./Source/lwIP/core/ipv4/ip_addr.o
                               0x9680 (size before relaxing)
 .debug_str     0x0001d205       0x25 ./Source/lwIP/core/def.o
                               0x8381 (size before relaxing)
 .debug_str     0x0001d22a      0x29f ./Source/lwIP/core/init.o
                               0xec1a (size before relaxing)
 .debug_str     0x0001d4c9      0x13c ./Source/lwIP/core/lwip_timers.o
                               0xd926 (size before relaxing)
 .debug_str     0x0001d605      0x217 ./Source/lwIP/core/mem.o
                               0xa303 (size before relaxing)
 .debug_str     0x0001d81c      0x14d ./Source/lwIP/core/memp.o
                               0xe6aa (size before relaxing)
 .debug_str     0x0001d969      0x118 ./Source/lwIP/core/netif.o
                               0xddd6 (size before relaxing)
 .debug_str     0x0001da81      0x204 ./Source/lwIP/core/pbuf.o
                               0xa567 (size before relaxing)
 .debug_str     0x0001dc85      0x33a ./Source/lwIP/core/tcp.o
                               0xdf26 (size before relaxing)
 .debug_str     0x0001dfbf      0x123 ./Source/lwIP/core/tcp_in.o
                               0xde7e (size before relaxing)
 .debug_str     0x0001e0e2      0x1b7 ./Source/lwIP/core/tcp_out.o
                               0xdefd (size before relaxing)
 .debug_str     0x0001e299      0x383 ./Source/lwIP/api/api_lib.o
                               0xc920 (size before relaxing)
 .debug_str     0x0001e61c      0x296 ./Source/lwIP/api/api_msg.o
                               0xcb32 (size before relaxing)
 .debug_str     0x0001e8b2       0x87 ./Source/lwIP/api/netbuf.o
                               0x97df (size before relaxing)
 .debug_str     0x0001e939      0x4cd ./Source/lwIP/api/sockets.o
                               0xdd01 (size before relaxing)
 .debug_str     0x0001ee06      0x131 ./Source/lwIP/api/tcpip.o
                               0xc6d6 (size before relaxing)
 .debug_str     0x0001ef37      0x4db ./Source/MemMang/heap_2.o
                               0x633e (size before relaxing)
 .debug_str     0x0001f412      0x504 ./Source/FreeRTOS-Products/FreeRTOS/portable/GCC/ARM_CM3/port.o
                               0x6337 (size before relaxing)
 .debug_str     0x0001f916      0x266 ./Source/FreeRTOS-Products/FreeRTOS-Plus-IO/Device/LPC17xx/FreeRTOS_lpc17xx_DriverInterface.o
                               0x6a42 (size before relaxing)
 .debug_str     0x0001fb7c     0x214d ./Source/FreeRTOS-Products/FreeRTOS-Plus-IO/Device/LPC17xx/FreeRTOS_lpc17xx_ssp.o
                              0x12da8 (size before relaxing)
 .debug_str     0x00021cc9      0x489 ./Source/FreeRTOS-Products/FreeRTOS-Plus-IO/Device/LPC17xx/FreeRTOS_lpc17xx_uart.o
                              0x12af7 (size before relaxing)
 .debug_str     0x00022152      0x2a1 ./Source/FreeRTOS-Products/FreeRTOS-Plus-IO/Common/FreeRTOS_DriverInterface.o
                              0x1218b (size before relaxing)
 .debug_str     0x000223f3       0x81 ./Source/FreeRTOS-Products/FreeRTOS-Plus-IO/Common/FreeRTOS_IOUtils.o
                               0x93b8 (size before relaxing)
 .debug_str     0x00022474      0x122 ./Source/FreeRTOS-Products/FreeRTOS-Plus-IO/Common/IOUtils_CharQueueTxAndRx.o
                               0x96d0 (size before relaxing)
 .debug_str     0x00022596       0xeb ./Source/FreeRTOS-Products/FreeRTOS-Plus-IO/Common/IOUtils_CircularBufferRx.o
                               0x9601 (size before relaxing)
 .debug_str     0x00022681       0x70 ./Source/FreeRTOS-Products/FreeRTOS-Plus-IO/Common/IOUtils_ZeroCopyTx.o
                               0x950c (size before relaxing)
 .debug_str     0x000226f1      0x2ce ./Source/FreeRTOS-Products/FreeRTOS-Plus-CLI/FreeRTOS_CLI.o
                               0x6182 (size before relaxing)
 .debug_str     0x000229bf      0x14a ./Source/FreeRTOS-Products/FreeRTOS/list.o
                               0x5c5b (size before relaxing)
 .debug_str     0x00022b09      0x695 ./Source/FreeRTOS-Products/FreeRTOS/queue.o
                               0x6925 (size before relaxing)
 .debug_str     0x0002319e     0x16f1 ./Source/FreeRTOS-Products/FreeRTOS/tasks.o
                               0x7c11 (size before relaxing)
 .debug_str     0x0002488f      0x37c ./Source/FreeRTOS-Products/FreeRTOS/timers.o
                               0x723e (size before relaxing)
 .debug_str     0x00024c0b     0x1198 ./Source/FatFS/ff.o
                               0x77d9 (size before relaxing)
 .debug_str     0x00025da3      0x886 ./Source/FatFS/mmc.o
                              0x10f11 (size before relaxing)
 .debug_str     0x00026629       0x1a ./Source/FatFS/syscall.o
                               0x6bd6 (size before relaxing)
 .debug_str     0x00026643      0x37e ./Source/Examples/SSP/SPI-interface-to-SD-card.o
                              0x115e5 (size before relaxing)
 .debug_str     0x000269c1       0xe9 ./Source/Examples/GPIO/GPIO-output-and-software-timers.o
                               0xfb4a (size before relaxing)
 .debug_str     0x00026aaa      0x2dd ./Source/cr_startup_lpc176x.o
                               0x3e72 (size before relaxing)
 .debug_str     0x00026d87      0x1fe ./Source/main.o
                              0x16aa8 (size before relaxing)
 .debug_str     0x00026f85      0x11f ./Source/printf-stdarg.o
                               0x2625 (size before relaxing)
 .debug_str     0x000270a4     0x1910 /home/froux/MEGA/LPC1769_Repo/LPC_Open_Free_RTOS/lpc17xx.cmsis.driver.library/Debug/liblpc17xx.cmsis.driver.library.a(lpc17xx_emac.o)
                               0xd40a (size before relaxing)
 .debug_str     0x000289b4      0x411 /home/froux/MEGA/LPC1769_Repo/LPC_Open_Free_RTOS/lpc17xx.cmsis.driver.library/Debug/liblpc17xx.cmsis.driver.library.a(lpc17xx_gpio.o)
                               0xa65f (size before relaxing)
 .debug_str     0x00028dc5       0x30 /home/froux/MEGA/LPC1769_Repo/LPC_Open_Free_RTOS/lpc17xx.cmsis.driver.library/Debug/liblpc17xx.cmsis.driver.library.a(lpc17xx_libcfg_default.o)
                               0x5ef5 (size before relaxing)
 .debug_str     0x00028df5      0x1fb /home/froux/MEGA/LPC1769_Repo/LPC_Open_Free_RTOS/lpc17xx.cmsis.driver.library/Debug/liblpc17xx.cmsis.driver.library.a(lpc17xx_pinsel.o)
                               0x8573 (size before relaxing)
 .debug_str     0x00028ff0      0x17a /home/froux/MEGA/LPC1769_Repo/LPC_Open_Free_RTOS/lpc17xx.cmsis.driver.library/Debug/liblpc17xx.cmsis.driver.library.a(lpc17xx_ssp.o)
                               0xc4ca (size before relaxing)
 .debug_str     0x0002916a      0x646 /home/froux/MEGA/LPC1769_Repo/LPC_Open_Free_RTOS/lpc17xx.cmsis.driver.library/Debug/liblpc17xx.cmsis.driver.library.a(lpc17xx_uart.o)
                               0xd373 (size before relaxing)
 .debug_str     0x000297b0      0x1be /home/froux/MEGA/LPC1769_Repo/LPC_Open_Free_RTOS/lpc17xx.cmsis.driver.library/Debug/liblpc17xx.cmsis.driver.library.a(lpc17xx_clkpwr.o)
                               0x92fb (size before relaxing)
 .debug_str     0x0002996e      0x3d0 /home/froux/MEGA/LPC1769_Repo/LPC_Open_Free_RTOS/CMSISv2p00_LPC17xx/Debug/libCMSISv2p00_LPC17xx.a(system_LPC17xx.o)
                               0x8102 (size before relaxing)

.comment        0x00000000       0x70
 .comment       0x00000000       0x70 ./Source/lwIP/netif/etharp.o
                                 0x71 (size before relaxing)
 .comment       0x00000000       0x71 ./Source/lwIP/netif/ethernetif.o
 .comment       0x00000000       0x71 ./Source/lwIP/netif/sys_arch.o
 .comment       0x00000000       0x71 ./Source/lwIP/lwIP_Apps/apps/httpserver_raw/fs.o
 .comment       0x00000000       0x71 ./Source/lwIP/lwIP_Apps/apps/httpserver_raw/httpd.o
 .comment       0x00000000       0x71 ./Source/lwIP/lwIP_Apps/apps/BasicSocketCommandServer/BasicSocketCommandServer.o
 .comment       0x00000000       0x71 ./Source/lwIP/lwIP_Apps/lwIP_Apps.o
 .comment       0x00000000       0x71 ./Source/lwIP/core/ipv4/icmp.o
 .comment       0x00000000       0x71 ./Source/lwIP/core/ipv4/inet_chksum.o
 .comment       0x00000000       0x71 ./Source/lwIP/core/ipv4/ip.o
 .comment       0x00000000       0x71 ./Source/lwIP/core/ipv4/ip_addr.o
 .comment       0x00000000       0x71 ./Source/lwIP/core/def.o
 .comment       0x00000000       0x71 ./Source/lwIP/core/init.o
 .comment       0x00000000       0x71 ./Source/lwIP/core/lwip_timers.o
 .comment       0x00000000       0x71 ./Source/lwIP/core/mem.o
 .comment       0x00000000       0x71 ./Source/lwIP/core/memp.o
 .comment       0x00000000       0x71 ./Source/lwIP/core/netif.o
 .comment       0x00000000       0x71 ./Source/lwIP/core/pbuf.o
 .comment       0x00000000       0x71 ./Source/lwIP/core/tcp.o
 .comment       0x00000000       0x71 ./Source/lwIP/core/tcp_in.o
 .comment       0x00000000       0x71 ./Source/lwIP/core/tcp_out.o
 .comment       0x00000000       0x71 ./Source/lwIP/api/api_lib.o
 .comment       0x00000000       0x71 ./Source/lwIP/api/api_msg.o
 .comment       0x00000000       0x71 ./Source/lwIP/api/netbuf.o
 .comment       0x00000000       0x71 ./Source/lwIP/api/sockets.o
 .comment       0x00000000       0x71 ./Source/lwIP/api/tcpip.o
 .comment       0x00000000       0x71 ./Source/MemMang/heap_2.o
 .comment       0x00000000       0x71 ./Source/FreeRTOS-Products/FreeRTOS/portable/GCC/ARM_CM3/port.o
 .comment       0x00000000       0x71 ./Source/FreeRTOS-Products/FreeRTOS-Plus-IO/Device/LPC17xx/FreeRTOS_lpc17xx_DriverInterface.o
 .comment       0x00000000       0x71 ./Source/FreeRTOS-Products/FreeRTOS-Plus-IO/Device/LPC17xx/FreeRTOS_lpc17xx_ssp.o
 .comment       0x00000000       0x71 ./Source/FreeRTOS-Products/FreeRTOS-Plus-IO/Device/LPC17xx/FreeRTOS_lpc17xx_uart.o
 .comment       0x00000000       0x71 ./Source/FreeRTOS-Products/FreeRTOS-Plus-IO/Common/FreeRTOS_DriverInterface.o
 .comment       0x00000000       0x71 ./Source/FreeRTOS-Products/FreeRTOS-Plus-IO/Common/FreeRTOS_IOUtils.o
 .comment       0x00000000       0x71 ./Source/FreeRTOS-Products/FreeRTOS-Plus-IO/Common/IOUtils_CharQueueTxAndRx.o
 .comment       0x00000000       0x71 ./Source/FreeRTOS-Products/FreeRTOS-Plus-IO/Common/IOUtils_CircularBufferRx.o
 .comment       0x00000000       0x71 ./Source/FreeRTOS-Products/FreeRTOS-Plus-IO/Common/IOUtils_ZeroCopyTx.o
 .comment       0x00000000       0x71 ./Source/FreeRTOS-Products/FreeRTOS-Plus-CLI/FreeRTOS_CLI.o
 .comment       0x00000000       0x71 ./Source/FreeRTOS-Products/FreeRTOS/list.o
 .comment       0x00000000       0x71 ./Source/FreeRTOS-Products/FreeRTOS/queue.o
 .comment       0x00000000       0x71 ./Source/FreeRTOS-Products/FreeRTOS/tasks.o
 .comment       0x00000000       0x71 ./Source/FreeRTOS-Products/FreeRTOS/timers.o
 .comment       0x00000000       0x71 ./Source/FatFS/ff.o
 .comment       0x00000000       0x71 ./Source/FatFS/mmc.o
 .comment       0x00000000       0x71 ./Source/FatFS/syscall.o
 .comment       0x00000000       0x71 ./Source/Examples/SSP/SPI-interface-to-SD-card.o
 .comment       0x00000000       0x71 ./Source/Examples/GPIO/GPIO-output-and-software-timers.o
 .comment       0x00000000       0x71 ./Source/cr_startup_lpc176x.o
 .comment       0x00000000       0x71 ./Source/main.o
 .comment       0x00000000       0x71 ./Source/printf-stdarg.o
 .comment       0x00000000       0x71 /home/froux/MEGA/LPC1769_Repo/LPC_Open_Free_RTOS/lpc17xx.cmsis.driver.library/Debug/liblpc17xx.cmsis.driver.library.a(lpc17xx_emac.o)
 .comment       0x00000000       0x71 /home/froux/MEGA/LPC1769_Repo/LPC_Open_Free_RTOS/lpc17xx.cmsis.driver.library/Debug/liblpc17xx.cmsis.driver.library.a(lpc17xx_gpio.o)
 .comment       0x00000000       0x71 /home/froux/MEGA/LPC1769_Repo/LPC_Open_Free_RTOS/lpc17xx.cmsis.driver.library/Debug/liblpc17xx.cmsis.driver.library.a(lpc17xx_libcfg_default.o)
 .comment       0x00000000       0x71 /home/froux/MEGA/LPC1769_Repo/LPC_Open_Free_RTOS/lpc17xx.cmsis.driver.library/Debug/liblpc17xx.cmsis.driver.library.a(lpc17xx_pinsel.o)
 .comment       0x00000000       0x71 /home/froux/MEGA/LPC1769_Repo/LPC_Open_Free_RTOS/lpc17xx.cmsis.driver.library/Debug/liblpc17xx.cmsis.driver.library.a(lpc17xx_ssp.o)
 .comment       0x00000000       0x71 /home/froux/MEGA/LPC1769_Repo/LPC_Open_Free_RTOS/lpc17xx.cmsis.driver.library/Debug/liblpc17xx.cmsis.driver.library.a(lpc17xx_uart.o)
 .comment       0x00000000       0x71 /home/froux/MEGA/LPC1769_Repo/LPC_Open_Free_RTOS/lpc17xx.cmsis.driver.library/Debug/liblpc17xx.cmsis.driver.library.a(lpc17xx_clkpwr.o)
 .comment       0x00000000       0x71 /home/froux/MEGA/LPC1769_Repo/LPC_Open_Free_RTOS/CMSISv2p00_LPC17xx/Debug/libCMSISv2p00_LPC17xx.a(system_LPC17xx.o)
 .comment       0x00000000       0x71 /usr/local/lpcxpresso_7.7.2_379/lpcxpresso/tools/bin/../lib/gcc/arm-none-eabi/4.9.3/../../../../arm-none-eabi/lib/armv7-m/libcr_nohost.a(_cr__main.o)
 .comment       0x00000000       0x71 /usr/local/lpcxpresso_7.7.2_379/lpcxpresso/tools/bin/../lib/gcc/arm-none-eabi/4.9.3/../../../../arm-none-eabi/lib/armv7-m/libcr_c.a(memcpy.o)
 .comment       0x00000000       0x71 /usr/local/lpcxpresso_7.7.2_379/lpcxpresso/tools/bin/../lib/gcc/arm-none-eabi/4.9.3/../../../../arm-none-eabi/lib/armv7-m/libcr_c.a(memset.o)
 .comment       0x00000000       0x71 /usr/local/lpcxpresso_7.7.2_379/lpcxpresso/tools/bin/../lib/gcc/arm-none-eabi/4.9.3/../../../../arm-none-eabi/lib/armv7-m/libcr_c.a(fflush.o)
 .comment       0x00000000       0x71 /usr/local/lpcxpresso_7.7.2_379/lpcxpresso/tools/bin/../lib/gcc/arm-none-eabi/4.9.3/../../../../arm-none-eabi/lib/armv7-m/libcr_c.a(initio.o)
 .comment       0x00000000       0x71 /usr/local/lpcxpresso_7.7.2_379/lpcxpresso/tools/bin/../lib/gcc/arm-none-eabi/4.9.3/../../../../arm-none-eabi/lib/armv7-m/libcr_c.a(memcmp.o)
 .comment       0x00000000       0x71 /usr/local/lpcxpresso_7.7.2_379/lpcxpresso/tools/bin/../lib/gcc/arm-none-eabi/4.9.3/../../../../arm-none-eabi/lib/armv7-m/libcr_c.a(setvbuf.o)
 .comment       0x00000000       0x71 /usr/local/lpcxpresso_7.7.2_379/lpcxpresso/tools/bin/../lib/gcc/arm-none-eabi/4.9.3/../../../../arm-none-eabi/lib/armv7-m/libcr_c.a(stdio.o)
 .comment       0x00000000       0x71 /usr/local/lpcxpresso_7.7.2_379/lpcxpresso/tools/bin/../lib/gcc/arm-none-eabi/4.9.3/../../../../arm-none-eabi/lib/armv7-m/libcr_c.a(stdlib.o)
 .comment       0x00000000       0x71 /usr/local/lpcxpresso_7.7.2_379/lpcxpresso/tools/bin/../lib/gcc/arm-none-eabi/4.9.3/../../../../arm-none-eabi/lib/armv7-m/libcr_c.a(strcat.o)
 .comment       0x00000000       0x71 /usr/local/lpcxpresso_7.7.2_379/lpcxpresso/tools/bin/../lib/gcc/arm-none-eabi/4.9.3/../../../../arm-none-eabi/lib/armv7-m/libcr_c.a(strchr.o)
 .comment       0x00000000       0x71 /usr/local/lpcxpresso_7.7.2_379/lpcxpresso/tools/bin/../lib/gcc/arm-none-eabi/4.9.3/../../../../arm-none-eabi/lib/armv7-m/libcr_c.a(strcmp.o)
 .comment       0x00000000       0x71 /usr/local/lpcxpresso_7.7.2_379/lpcxpresso/tools/bin/../lib/gcc/arm-none-eabi/4.9.3/../../../../arm-none-eabi/lib/armv7-m/libcr_c.a(strcpy.o)
 .comment       0x00000000       0x71 /usr/local/lpcxpresso_7.7.2_379/lpcxpresso/tools/bin/../lib/gcc/arm-none-eabi/4.9.3/../../../../arm-none-eabi/lib/armv7-m/libcr_c.a(strlen.o)
 .comment       0x00000000       0x71 /usr/local/lpcxpresso_7.7.2_379/lpcxpresso/tools/bin/../lib/gcc/arm-none-eabi/4.9.3/../../../../arm-none-eabi/lib/armv7-m/libcr_c.a(strncmp.o)
 .comment       0x00000000       0x71 /usr/local/lpcxpresso_7.7.2_379/lpcxpresso/tools/bin/../lib/gcc/arm-none-eabi/4.9.3/../../../../arm-none-eabi/lib/armv7-m/libcr_c.a(strncpy.o)
 .comment       0x00000000       0x71 /usr/local/lpcxpresso_7.7.2_379/lpcxpresso/tools/bin/../lib/gcc/arm-none-eabi/4.9.3/../../../../arm-none-eabi/lib/armv7-m/libcr_c.a(strstr.o)
 .comment       0x00000000       0x71 /usr/local/lpcxpresso_7.7.2_379/lpcxpresso/tools/bin/../lib/gcc/arm-none-eabi/4.9.3/../../../../arm-none-eabi/lib/armv7-m/libcr_c.a(_deferredlazyseek.o)
 .comment       0x00000000       0x71 /usr/local/lpcxpresso_7.7.2_379/lpcxpresso/tools/bin/../lib/gcc/arm-none-eabi/4.9.3/../../../../arm-none-eabi/lib/armv7-m/libcr_c.a(_do_fflush.o)
 .comment       0x00000000       0x71 /usr/local/lpcxpresso_7.7.2_379/lpcxpresso/tools/bin/../lib/gcc/arm-none-eabi/4.9.3/../../../../arm-none-eabi/lib/armv7-m/libcr_c.a(_fdopen.o)
 .comment       0x00000000       0x71 /usr/local/lpcxpresso_7.7.2_379/lpcxpresso/tools/bin/../lib/gcc/arm-none-eabi/4.9.3/../../../../arm-none-eabi/lib/armv7-m/libcr_c.a(_fflush.o)
 .comment       0x00000000       0x71 /usr/local/lpcxpresso_7.7.2_379/lpcxpresso/tools/bin/../lib/gcc/arm-none-eabi/4.9.3/../../../../arm-none-eabi/lib/armv7-m/libcr_c.a(_writebuf.o)
 .comment       0x00000000       0x71 /usr/local/lpcxpresso_7.7.2_379/lpcxpresso/tools/bin/../lib/gcc/arm-none-eabi/4.9.3/../../../../arm-none-eabi/lib/armv7-m/libcr_c.a(alloc.o)
 .comment       0x00000000       0x71 /usr/local/lpcxpresso_7.7.2_379/lpcxpresso/tools/bin/../lib/gcc/arm-none-eabi/4.9.3/../../../../arm-none-eabi/lib/armv7-m/libcr_c.a(fclose.o)
 .comment       0x00000000       0x71 /usr/local/lpcxpresso_7.7.2_379/lpcxpresso/tools/bin/../lib/gcc/arm-none-eabi/4.9.3/../../../../arm-none-eabi/lib/armv7-m/libcr_c.a(fseek.o)
 .comment       0x00000000       0x71 /usr/local/lpcxpresso_7.7.2_379/lpcxpresso/tools/bin/../lib/gcc/arm-none-eabi/4.9.3/../../../../arm-none-eabi/lib/armv7-m/libcr_c.a(ftell.o)
 .comment       0x00000000       0x71 /usr/local/lpcxpresso_7.7.2_379/lpcxpresso/tools/bin/../lib/gcc/arm-none-eabi/4.9.3/../../../../arm-none-eabi/lib/armv7-m/libcr_c.a(raise.o)
 .comment       0x00000000       0x71 /usr/local/lpcxpresso_7.7.2_379/lpcxpresso/tools/bin/../lib/gcc/arm-none-eabi/4.9.3/../../../../arm-none-eabi/lib/armv7-m/libcr_c.a(remove.o)
 .comment       0x00000000       0x71 /usr/local/lpcxpresso_7.7.2_379/lpcxpresso/tools/bin/../lib/gcc/arm-none-eabi/4.9.3/../../../../arm-none-eabi/lib/armv7-m/libcr_c.a(__init_alloc.o)
 .comment       0x00000000       0x71 /usr/local/lpcxpresso_7.7.2_379/lpcxpresso/tools/bin/../lib/gcc/arm-none-eabi/4.9.3/../../../../arm-none-eabi/lib/armv7-m/libcr_c.a(_cr_sbrk.o)
 .comment       0x00000000       0x71 /usr/local/lpcxpresso_7.7.2_379/lpcxpresso/tools/bin/../lib/gcc/arm-none-eabi/4.9.3/../../../../arm-none-eabi/lib/armv7-m/libcr_c.a(errno.o)
 .comment       0x00000000       0x71 /usr/local/lpcxpresso_7.7.2_379/lpcxpresso/tools/bin/../lib/gcc/arm-none-eabi/4.9.3/../../../../arm-none-eabi/lib/armv7-m/libcr_c.a(_cr_check_heap.o)
 .comment       0x00000000       0x71 /usr/local/lpcxpresso_7.7.2_379/lpcxpresso/tools/bin/../lib/gcc/arm-none-eabi/4.9.3/../../../../arm-none-eabi/lib/armv7-m/libcr_nohost.a(__sys_appexit.o)
 .comment       0x00000000       0x71 /usr/local/lpcxpresso_7.7.2_379/lpcxpresso/tools/bin/../lib/gcc/arm-none-eabi/4.9.3/../../../../arm-none-eabi/lib/armv7-m/libcr_nohost.a(__sys_close.o)
 .comment       0x00000000       0x71 /usr/local/lpcxpresso_7.7.2_379/lpcxpresso/tools/bin/../lib/gcc/arm-none-eabi/4.9.3/../../../../arm-none-eabi/lib/armv7-m/libcr_nohost.a(__sys_flen.o)
 .comment       0x00000000       0x71 /usr/local/lpcxpresso_7.7.2_379/lpcxpresso/tools/bin/../lib/gcc/arm-none-eabi/4.9.3/../../../../arm-none-eabi/lib/armv7-m/libcr_nohost.a(__sys_istty.o)
 .comment       0x00000000       0x71 /usr/local/lpcxpresso_7.7.2_379/lpcxpresso/tools/bin/../lib/gcc/arm-none-eabi/4.9.3/../../../../arm-none-eabi/lib/armv7-m/libcr_nohost.a(__sys_remove.o)
 .comment       0x00000000       0x71 /usr/local/lpcxpresso_7.7.2_379/lpcxpresso/tools/bin/../lib/gcc/arm-none-eabi/4.9.3/../../../../arm-none-eabi/lib/armv7-m/libcr_nohost.a(__sys_seek.o)
 .comment       0x00000000       0x71 /usr/local/lpcxpresso_7.7.2_379/lpcxpresso/tools/bin/../lib/gcc/arm-none-eabi/4.9.3/../../../../arm-none-eabi/lib/armv7-m/libcr_nohost.a(__sys_tmpnam.o)
 .comment       0x00000000       0x71 /usr/local/lpcxpresso_7.7.2_379/lpcxpresso/tools/bin/../lib/gcc/arm-none-eabi/4.9.3/../../../../arm-none-eabi/lib/armv7-m/libcr_nohost.a(__sys_write.o)

.ARM.attributes
                0x00000000       0x31
 .ARM.attributes
                0x00000000       0x33 ./Source/lwIP/netif/etharp.o
 .ARM.attributes
                0x00000033       0x33 ./Source/lwIP/netif/ethernetif.o
 .ARM.attributes
                0x00000066       0x33 ./Source/lwIP/netif/sys_arch.o
 .ARM.attributes
                0x00000099       0x33 ./Source/lwIP/lwIP_Apps/apps/httpserver_raw/fs.o
 .ARM.attributes
                0x000000cc       0x33 ./Source/lwIP/lwIP_Apps/apps/httpserver_raw/httpd.o
 .ARM.attributes
                0x000000ff       0x33 ./Source/lwIP/lwIP_Apps/apps/BasicSocketCommandServer/BasicSocketCommandServer.o
 .ARM.attributes
                0x00000132       0x33 ./Source/lwIP/lwIP_Apps/lwIP_Apps.o
 .ARM.attributes
                0x00000165       0x33 ./Source/lwIP/core/ipv4/icmp.o
 .ARM.attributes
                0x00000198       0x33 ./Source/lwIP/core/ipv4/inet_chksum.o
 .ARM.attributes
                0x000001cb       0x33 ./Source/lwIP/core/ipv4/ip.o
 .ARM.attributes
                0x000001fe       0x33 ./Source/lwIP/core/ipv4/ip_addr.o
 .ARM.attributes
                0x00000231       0x33 ./Source/lwIP/core/def.o
 .ARM.attributes
                0x00000264       0x33 ./Source/lwIP/core/init.o
 .ARM.attributes
                0x00000297       0x33 ./Source/lwIP/core/lwip_timers.o
 .ARM.attributes
                0x000002ca       0x33 ./Source/lwIP/core/mem.o
 .ARM.attributes
                0x000002fd       0x33 ./Source/lwIP/core/memp.o
 .ARM.attributes
                0x00000330       0x33 ./Source/lwIP/core/netif.o
 .ARM.attributes
                0x00000363       0x33 ./Source/lwIP/core/pbuf.o
 .ARM.attributes
                0x00000396       0x33 ./Source/lwIP/core/tcp.o
 .ARM.attributes
                0x000003c9       0x33 ./Source/lwIP/core/tcp_in.o
 .ARM.attributes
                0x000003fc       0x33 ./Source/lwIP/core/tcp_out.o
 .ARM.attributes
                0x0000042f       0x33 ./Source/lwIP/api/api_lib.o
 .ARM.attributes
                0x00000462       0x33 ./Source/lwIP/api/api_msg.o
 .ARM.attributes
                0x00000495       0x33 ./Source/lwIP/api/netbuf.o
 .ARM.attributes
                0x000004c8       0x33 ./Source/lwIP/api/sockets.o
 .ARM.attributes
                0x000004fb       0x33 ./Source/lwIP/api/tcpip.o
 .ARM.attributes
                0x0000052e       0x33 ./Source/MemMang/heap_2.o
 .ARM.attributes
                0x00000561       0x33 ./Source/FreeRTOS-Products/FreeRTOS/portable/GCC/ARM_CM3/port.o
 .ARM.attributes
                0x00000594       0x33 ./Source/FreeRTOS-Products/FreeRTOS-Plus-IO/Device/LPC17xx/FreeRTOS_lpc17xx_DriverInterface.o
 .ARM.attributes
                0x000005c7       0x33 ./Source/FreeRTOS-Products/FreeRTOS-Plus-IO/Device/LPC17xx/FreeRTOS_lpc17xx_ssp.o
 .ARM.attributes
                0x000005fa       0x33 ./Source/FreeRTOS-Products/FreeRTOS-Plus-IO/Device/LPC17xx/FreeRTOS_lpc17xx_uart.o
 .ARM.attributes
                0x0000062d       0x33 ./Source/FreeRTOS-Products/FreeRTOS-Plus-IO/Common/FreeRTOS_DriverInterface.o
 .ARM.attributes
                0x00000660       0x33 ./Source/FreeRTOS-Products/FreeRTOS-Plus-IO/Common/FreeRTOS_IOUtils.o
 .ARM.attributes
                0x00000693       0x33 ./Source/FreeRTOS-Products/FreeRTOS-Plus-IO/Common/IOUtils_CharQueueTxAndRx.o
 .ARM.attributes
                0x000006c6       0x33 ./Source/FreeRTOS-Products/FreeRTOS-Plus-IO/Common/IOUtils_CircularBufferRx.o
 .ARM.attributes
                0x000006f9       0x33 ./Source/FreeRTOS-Products/FreeRTOS-Plus-IO/Common/IOUtils_ZeroCopyTx.o
 .ARM.attributes
                0x0000072c       0x33 ./Source/FreeRTOS-Products/FreeRTOS-Plus-CLI/FreeRTOS_CLI.o
 .ARM.attributes
                0x0000075f       0x33 ./Source/FreeRTOS-Products/FreeRTOS/list.o
 .ARM.attributes
                0x00000792       0x33 ./Source/FreeRTOS-Products/FreeRTOS/queue.o
 .ARM.attributes
                0x000007c5       0x33 ./Source/FreeRTOS-Products/FreeRTOS/tasks.o
 .ARM.attributes
                0x000007f8       0x33 ./Source/FreeRTOS-Products/FreeRTOS/timers.o
 .ARM.attributes
                0x0000082b       0x33 ./Source/FatFS/ff.o
 .ARM.attributes
                0x0000085e       0x33 ./Source/FatFS/mmc.o
 .ARM.attributes
                0x00000891       0x33 ./Source/FatFS/syscall.o
 .ARM.attributes
                0x000008c4       0x33 ./Source/Examples/SSP/SPI-interface-to-SD-card.o
 .ARM.attributes
                0x000008f7       0x33 ./Source/Examples/GPIO/GPIO-output-and-software-timers.o
 .ARM.attributes
                0x0000092a       0x33 ./Source/cr_startup_lpc176x.o
 .ARM.attributes
                0x0000095d       0x33 ./Source/main.o
 .ARM.attributes
                0x00000990       0x33 ./Source/printf-stdarg.o
 .ARM.attributes
                0x000009c3       0x33 /home/froux/MEGA/LPC1769_Repo/LPC_Open_Free_RTOS/lpc17xx.cmsis.driver.library/Debug/liblpc17xx.cmsis.driver.library.a(lpc17xx_emac.o)
 .ARM.attributes
                0x000009f6       0x33 /home/froux/MEGA/LPC1769_Repo/LPC_Open_Free_RTOS/lpc17xx.cmsis.driver.library/Debug/liblpc17xx.cmsis.driver.library.a(lpc17xx_gpio.o)
 .ARM.attributes
                0x00000a29       0x33 /home/froux/MEGA/LPC1769_Repo/LPC_Open_Free_RTOS/lpc17xx.cmsis.driver.library/Debug/liblpc17xx.cmsis.driver.library.a(lpc17xx_libcfg_default.o)
 .ARM.attributes
                0x00000a5c       0x33 /home/froux/MEGA/LPC1769_Repo/LPC_Open_Free_RTOS/lpc17xx.cmsis.driver.library/Debug/liblpc17xx.cmsis.driver.library.a(lpc17xx_pinsel.o)
 .ARM.attributes
                0x00000a8f       0x33 /home/froux/MEGA/LPC1769_Repo/LPC_Open_Free_RTOS/lpc17xx.cmsis.driver.library/Debug/liblpc17xx.cmsis.driver.library.a(lpc17xx_ssp.o)
 .ARM.attributes
